:020000040000fa
:10000000f0ff0320d5c4010035f001003bf00100f2
:1000100047f001004df0010053f001000000000026
:10002000000000000000000000000000f3a6000037
:1000300041f0010000000000f3a60000e9d7010034
:10004000f3a60000f3a60000f3a60000f3a600004c
:10005000f3a60000f3a60000f3a60000f3a600003c
:10006000f3a60000f3a60000f3a60000f3a600002c
:10007000f3a60000f3a60000f3a60000f3a600001c
:10008000f3a60000f3a60000f3a60000f3a600000c
:10009000f3a60000f3a60000f3a60000f3a60000fc
:1000a000f3a60000f3a60000f3a60000f3a60000ec
:1000b000f3a60000f3a60000f3a6000065ef010020
:1000c000f3a60000f3a60000f3a60000f3a60000cc
:1000d000f3a60000f3a60000f3a60000f3a60000bc
:1000e000f3a60000f3a600000000000000000000de
:1000f00000000000f3a60000f3a60000f3a6000035
:10010000f3a60000f3a6000095e5000095e50000c9
:1001100095e5000095e500000d3d01000d3d010055
:100120000d3d01000d3d0100f3a60000f3a6000007
:10013000f3a60000f3a60000f3a60000f3a600005b
:10014000f3a60000f3a60000f3a60000f3a600004b
:10015000f3a60000f3a6000000000000000000006d
:10016000000000000000000000000000000000008f
:10017000000000000000000000000000000000007f
:10018000a9ec0100c1ec0100d9ec0100f1ec010087
:1001900000000000f3a60000f3a60000f3a6000094
:1001a000f3a60000f3a60000f3a60000f3a60000eb
:1001b000f3a60000f3a60000f3a60000f3a60000db
:1001c000f3a60000f3a60000f3a60000f3a60000cb
:1001d000f3a60000f3a60000f3a60000f3a60000bb
:1001e000f3a60000f3a60000f3a60000d1c90100a9
:1001f0001dca0100f3a60000f3a60000f3a600004c
:10020000f3a600000000000000000000f3a60000bc
:10021000f3a60000f3a60000f3a60000f3a600007a
:10022000f3a60000f3a60000f3a60000f3a600006a
:10023000f3a60000f3a60000f3a60000f3a600005a
:10024000f3a60000f3a60000f3a60000f3a600004a
:10025000f3a60000f3a60000f3a60000414401004d
:020000040000fa
:10026000f8b500bff8bc08bc9e467047a5d3010096
:10027000f8b500bff8bc08bc9e46704781d30100aa
:020000040000fa
:08028000e0bd000001000000d8
:020000040000fa
:100288002de9f04ff9b000afc7f80c01c7f8081115
:10029800c7f80421c7f8003107f58673184618f027
:1002a8000bffc7f87001d7f87031002b02da0b2367
:1002b80001f074bde04ad7f8703152f82330002bb2
:1002c80006d0dd4ad7f8703152f823200023137086
:1002d800da4ad7f8703112f8133087f86f31d74af5
:1002e800d7f870315b0013445b7887f86e3197f864
:1002f8006f3118461ef086fb034687f86d3197f874
:100308006d3103f00103002b02d0032301f046bd39
:1003180097f86d3103f00403002b02d00a2301f093
:100328003dbdd7f80831002b02d1c54bc7f80831bd
:10033800d7f808315b68c7f83831d7f83831002b5f
:1003480007d107f59c7397f86f011a46032119f036
:1003580091ffd7f83831002b0cd0d7f83831b3f5e6
:10036800004f07d8d7f838315a1ed7f8383113401c
:10037800002b02d00123c7f838314ff40073a7f8d7
:100388006a31d7f808311b7803f00f0387f8df319b
:10039800d7f808315b78002b08d0d7f808315b789c
:1003a800022b03d8d7f808315b7800e00123c7f89f
:1003b8006431d7f808319b68002b18d0d7f808317a
:1003c8009b68b3f5004f12d8d7f808319968b7f889
:1003d8006a315b099bb21a46b1fbf2f302fb03f3e5
:1003e800cb1a002b03d1d7f808319b6801e04ff4f2
:1003f8000073c7f86031d7f80831db68b3f1807f44
:100408000dd8d7f80831da68d7f80831db68013b2e
:100418001340002b03d1d7f80831db6800e0002334
:10042800c7f8a831b7f86a21d7f8a831b3fbf2f3b7
:10043800c7f8a831b7f86a21d7f80031b3fbf2f34f
:10044800c7f85c31d7f85c31002b02d1112301f0d9
:10045800a5bcd7f80431c7f85831d7f85831002b64
:1004680002d1112301f09abc4ff000034ff00004b1
:10047800c7e94c34d7e94c34c7e9723497f86e3180
:10048800002b00f0118197f86f0101230022d7f8a3
:1004980058111df019fd0346002b02d0012301f06d
:1004a8007dbcd7f8583103f5ff7318461df0dcfc06
:1004b80003461a464af655239a4202d00e2301f003
:1004c8006dbcd7f8583103f5e1731b78ee2b40f07b
:1004d800bb8097f86f0101230122d7f858111df04e
:1004e800f3fc0346002b02d0012301f057bcd7f8d8
:1004f800580117f007f90346002b02d10e2301f02b
:100508004dbcd7f85831503318461cf0f0fcc7f8ea
:10051800a001d7f858314833184612f081fbc7e9d3
:1005280064010023c7f8a4310023c7f89c3171e0a7
:10053800d7f89c31002b1ad1d7e964345a1cc7f874
:10054800902044f10002c7f89420d7e92412c7e9a3
:1005580064121a4697f86f010123d7f858111df055
:10056800b3fc0346002b02d0012301f017bcd7f8d7
:100578005821d7f89c3113441022324918461ef0ee
:100588004bfb0346002b33d1d7f8a4310133c7f80e
:10059800a43197f86e21d7f8a431934228d1d7f81f
:1005a8009c3103f12002d7f858311344184612f051
:1005b80037fbc7e97201d7f89c3103f12802d7f855
:1005c80058311344184612f02bfb0a460146d7e966
:1005d8007234cd1a62eb04066b1cc7f8f83046f18a
:1005e8000003c7f8fc30d7e93e34c7e94c3415e0be
:1005f800d7f8a031013bc7f8a031d7f89c3103f1f7
:100608008001b7f86a21b1fbf2f302fb03f3cb1abe
:10061800c7f89c31d7f8a031002b89d1d7f8a03181
:10062800002b02d10e2301f0b9bb97f8df3163f03c
:100638007f0387f8df31a2e0b82b0020f42b0020dd
:10064800e8ee0100b8ee010097f86e31013b1b019e
:1006580003f5df731a46d7f858311344c7f85431f5
:1006680097f86e31042b05d8d7f8543104331b782a
:10067800002b02d10e2301f091bbd7f85431083377
:1006880018461cf034fc03464ff00004c7e97234e6
:10069800d7f854310c3318461cf029fc03464ff0a8
:1006a8000004c7e94c346ae007f5987397f86f01be
:1006b8001a46012119f0defd0346002b02d0012362
:1006c80001f06cbb97f8df3103f00803002b56d11b
:1006d800d7e94c126ff070434ff00004944208bf02
:1006e8008b4231d297f8df3163f07f0387f8df312f
:1006f800b7f86a214ff4801393fbf2f34feae374df
:10070800c7e97234d7e94c56b7f86a214ff48043e9
:1007180093fbf2f319464feae172d7e9723411eb11
:10072800030842eb0409b5eb080a66eb090b1af15a
:10073800ff33c7f8f0304bf1ff33c7f8f430d7e98f
:100748003c34c7e94c341ae0d7e94c34002c08bfd4
:10075800402b14d34ff03f034ff00004c7e9723425
:10076800d7e94c12d7e97234c81ac7f8e80062eb27
:100778000403c7f8ec30d7e93a34c7e94c34d7e971
:100788004c34002c08bf802b02d20e2301f006bb8c
:1007980097f8df3103f00403002b17d097f8df3107
:1007a80003f00703042b0dd0d7e94c126ff07c43fc
:1007b8004ff00004944208bf8b4203d3d7f8a83106
:1007c800802b03d9042387f8de312be0d7e94c349a
:1007d800012c08bf002b02d30e2301f0dfbad7f893
:1007e800a831802b02d98023c7f8a83197f8df31c8
:1007f80003f00203002b09d097f8df3103f001035f
:10080800002b03d1032387f8de310be097f8df31a3
:1008180003f00103002b02d1132301f0bfba022316
:1008280087f8de31d7e94c341c461bf0ccfe034672
:100838002344c7f8503197f8de31042b40f00e8678
:10084800d7e94c1240f6ff734ff00004944208bffa
:100858008b4202d30e2301f0a1bad7f8a831002b9e
:100868001cd10823c7f8a831d7e94c12c74b4ff061
:100878000004944208bf8b4202d24023c7f8a83133
:10088800d7e94c126ff07c434ff00004944208bf44
:100898008b4203d24ff48073c7f8a831d7e972347a
:1008a80013f12002c7f8882044f10003c7f88c3000
:1008b800d7e92234c7e97034d7e94c01d7f8a83111
:1008c8004ff000041a4623461df0e6fa03460c468c
:1008d8009a1cc7f8e02044f10003c7f8e430d7f8c1
:1008e800e0309a00b7f86a3113445a1eb7f86a31f3
:1008f800b2fbf3f3c7f8b031d7f8b03119464ff06f
:100908000002d7e97034c818c7f8d80042eb0403ce
:10091800c7f8dc30d7f838314ff00004d7e9360192
:100928000246d218c7f8d0200a4644eb0202c7f89c
:10093800d420d7e934120b4613f1ff33c7f8c83077
:10094800134643f1ff33c7f8cc30d7f838314ff0ae
:1009580000045b4264eb4404d7e9320102461a40c2
:10096800c7f880200a462240c7f88420d7e92034f7
:10097800c7e95234d7e95212d7e97234c81ac7f80e
:10098800c00062eb0403c7f8c430d7e94c344ff019
:1009980000014ff00002590841eac4716208d7e922
:1009a8003034944208bf8b4202d30e2301f0f6b9cb
:1009b800d7e97212d7e95234c81ac7f8b80062ebff
:1009c8000403c7f8bc30d7e94c34d7e92e010246f6
:1009d800d218c7f8b0200a4644eb0202c7f8b42080
:1009e800d7f8a8314ff000041a462346d7e92c015e
:1009f8001df052fa03460c46c7f84431d7f8443183
:100a08000f2b02d80e2301f0c9b9d7f84421604b47
:100a18009a4202d90e2301f0c1b9d7f844310733fd
:100a2800db08c7f84031b7f86a21d7f8a83103fbcb
:100a380002f2d7f840311344591eb7f86a21d7f8a3
:100a4800a83103fb02f3b1fbf3f3c7f81431d7f86d
:100a58001421d7f8a83103fb02f319464ff000021e
:100a6800d7e952345818b86744eb0203fb67d7e953
:100a78001e34c7e96e340023c7f888310023c7f84d
:100a880074310023a7f87c310023c7f8a431002370
:100a9800c7f878310023c7f88c31d7f87431002ba8
:100aa80004d0d7f87431012b4ad05ee0b7f87c3116
:100ab800184613f053fd0346a7f87e31b7f87e2198
:100ac800b7f87c319a4205d0b7f87c310133a7f8e2
:100ad8007c3160e00123c7f8783104e0d7f8783139
:100ae8000133c7f87831d7f878319ab2b7f87c3142
:100af80013449bb2002b14d0d7f878319ab2b7f8c8
:100b08007c3113449bb21c46d7f878319ab2b7f8b7
:100b18007c3113449bb2184613f020fd03469c42d7
:100b2800dcd0d7f878317f2b07d94ff6ff73a7f8b9
:100b38007e310223c7f874312de00123c7f87431e0
:100b4800b7f87c21531ca7f87c311346a7f87e31ef
:100b5800d7f87831013bc7f87831d7f87831002bce
:100b680018d10023c7f8743114e0d7f87831a7f802
:100b78007e31d7f878319ab2b7f87c311344a7f8a8
:100b88007c310023c7f8743105e000bfffff070080
:100b9800fdffff7f00bfd7f85821d7f8a4311a44ca
:100ba800b7f87e31dbb213701378d7f8881118467e
:100bb8001df04dfdc7f88801b7f87e311b0a99b2c0
:100bc800d7f8a4315a1cd7f858311a44cbb213704d
:100bd8001378d7f8881118461df039fdc7f8880131
:100be800d7f8a4310233c7f8a431d7f88c310233cf
:100bf800c7f88c31b7f87c31002b09d0b7f86a21d7
:100c0800d7f85c3103fb02f2d7f8a43193422ed116
:100c1800b7f86a21d7f8a43113445a1eb7f86a31d5
:100c2800b2fbf3f3c7f8d031d7f8b82197f86f01c2
:100c3800d7f8d031d7f858111af052fc0346002bd8
:100c480002d0012301f0aab8d7f8d03119464ff0e5
:100c58000002d7e96e345818386744eb02037b6703
:100c6800d7e91c34c7e96e340023c7f8a431b7f8b4
:100c78007c31002b7ff411afb7f86a21d7f8a8317f
:100c880003fb02f2d7f88c311344591eb7f86a21d6
:100c9800d7f8a83103fb02f3b1fbf3f3c7f8183117
:100ca8000123c7f81c31d7e95234c7e96e34b7f8c5
:100cb8006a21d7f8403113445a1eb7f86a31b2fb9b
:100cc800f3f3c7f8d431d7f81421d7f818311a44f8
:100cd800d7f81c311344c7f88431b7f86a21d7f81c
:100ce8005c3103fb02f31a460021d7f858011ef0c5
:100cf800aff80023c7f8a4311fe0d7f8a431d8080b
:100d0800d7f8583103441b7859b2d7f8a43103f007
:100d18000702012393405bb20b4359b2d7f858310d
:100d28001a18cbb21370d7f8a4310133c7f8a4311d
:100d3800d7f88431013bc7f88431d7f88431002bc8
:100d48000ad0d7f8a431d908b7f86a21d7f85c31a6
:100d580003fb02f39942d0d3d7f8d421d7f85c31fa
:100d6800934228bf1346c7f8d031d7f8b82197f86f
:100d78006f01d7f8d031d7f858111af0b1fb0346f4
:100d8800002b02d0012301f009b8d7f8d031194659
:100d98004ff00002d7e96e345818b86644eb0203e6
:100da800fb66d7e91a34c7e96e34d7f8d421d7f8e7
:100db800d031d31ac7f8d431d7f8d431002b8cd11d
:100dc800d7e97034c7e96e34d7f8b031c7f8d431f1
:100dd8000023c7f88031d7f88031c7f88431d7f8b5
:100de8008431c7f87831b7f86a21d7f85c3103fb4a
:100df80002f31a460021d7f858011ef029f80023fb
:100e0800c7f8a431d7f88031002b4ad1d7f8582138
:100e1800d7f8a43113446ff0070118461bf0d2f835
:100e2800d7f8a4310433c7f8a431d7f88031013397
:100e3800c7f88031d7f85821d7f8a43113444ff0b8
:100e4800ff3118461bf0bef8d7f8a4310433c7f8b1
:100e5800a431d7f880310133c7f8803121e0d7f8c1
:100e68005821d7f8a4311a44d7f88431012b03d973
:100e7800d7f88031013301e04ff0ff3319461046af
:100e88001bf0a0f8d7f8a4310433c7f8a431d7f879
:100e980080310133c7f88031d7f88431013bc7f876
:100ea8008431d7f88431002b09d0b7f86a21d7f8f4
:100eb8005c3103fb02f2d7f8a4319342cfd3d7f8c1
:100ec8008431002b10d1d7f87831022b0cd8d7f801
:100ed8007821531cc7f87831930007f5f072134452
:100ee80053f8cc3cc7f88431d7f88431002b09d0ab
:100ef800b7f86a21d7f85c3103fb02f2d7f8a431be
:100f08009342ced3d7f8d421d7f85c31934228bf87
:100f18001346c7f8d031d7f8b82197f86f01d7f83a
:100f2800d031d7f858111af0dbfa0346002b02d05b
:100f3800012300f033bfd7f8d03119464ff0000233
:100f4800d7e96e345818386644eb02037b66d7e954
:100f58001834c7e96e34d7f8d421d7f8d031d31a6a
:100f6800c7f8d431d7f8d431002b7ff43cafb7f8a9
:100f78006a31d7f85c2102fb03f31a460021d7f83f
:100f880058011df065ffd7f8582183231370d7f84f
:100f9800583103f1200281231370d7f858313433c4
:100fa800022118461bf00ef8d7f858313833d7f815
:100fb800401118461bf006f8d7f8583103f14002e3
:100fc80082231370d7f858314433d7f8881118465c
:100fd8001af0f8ffd7f8583103f15402d7f8143152
:100fe8000233194610461af0edffd7f85831583336
:100ff800d7f88c1118461af0e5ffd7f81421d7f85e
:1010080018311344d7f8a82102fb03f319464ff00f
:101018000002d7e952345818b86544eb0203fb655f
:10102800d7e91634c7e96e34d7f8a831c7f8d431f0
:10103800d7f8d421d7f85c31934228bf1346c7f8b4
:10104800d031d7f8b82197f86f01d7f8d031d7f851
:1010580058111af045fa0346002b02d0012300f07c
:101068009dbeb7f86a311a460021d7f858011df01d
:10107800effed7f8d0314ff00004d7e96e12c81848
:10108800386542eb04037b65d7e91434c7e96e344d
:10109800d7f8d421d7f8d031d31ac7f8d431d7f834
:1010a800d431002bc4d1d7e97234c7e96e34002398
:1010b800c7f8d031c8e1b7f86a311a460021d7f825
:1010c80058011df0c5fe0b22e349d7f858011df061
:1010d800b1fdd7f8583103f14001d7e9722308462a
:1010e80013f0caffd7f8583103f14801d7e94c3457
:1010f8001a462346084613f0bfffd7f8583103f1c4
:101108005000d7f8c021d7f8c831d31a19461af0b9
:1011180059ffd7f858315433d7f8b01118461af098
:1011280051ffd7f8583103f15800d7f84821d7f8bc
:10113800c831d31a19461af045ffd7f858315c332d
:10114800d7f8441118461af03dffd7f8583103f183
:101158006000d7f81421d7f8183113440233194620
:101168001af030ffd7f858316433d7f850111846c1
:101178001af028ffd7f8583168334ff480711846b1
:101188001cf0bffcd7f858316c3300221a70b7f83e
:101198006a31c7f8a43106e0d7f858316c331a78a9
:1011a8000132d2b21a70d7f8a4315b08c7f8a4315b
:1011b800d7f8a431002befd1d7f858316d3300227e
:1011c8001a70d7f8a831c7f8a43106e0d7f8583113
:1011d8006d331a780132d2b21a70d7f8a4315b088d
:1011e800c7f8a431d7f8a431002befd1d7f858317c
:1011f8006e3301221a70d7f858316f3380221a7073
:10120800d7f8583178334ff6eb6118461cf079fc63
:10121800d7f8583103f5ff734af6552118461cf0e4
:1012280070fc0023c7f888310023c7f8a4311de0fb
:10123800d7f8a4316a2b14d0d7f8a4316b2b10d06f
:10124800d7f8a431702b0cd0d7f85821d7f8a4318f
:1012580013441b78d7f8881118461df0f8f9c7f819
:101268008801d7f8a4310133c7f8a431b7f86a3137
:10127800d7f8a4219a42dbd3d7e96e345a1cba6452
:1012880044f10002fa64d7e91212c7e96e121a464d
:1012980097f86f010123d7f858111af021f903467e
:1012a800002b02d0012300f079bdb7f86a311a4645
:1012b8000021d7f858011df0cbfdb7f86a31023b81
:1012c800d7f8582113444af6552118461cf019fc42
:1012d8000123c7f8783137e00023c7f8a4310fe0bd
:1012e800d7f8a4315a1cc7f8a421d7f858211344b9
:1012f8001b78d7f8881118461df0a9f9c7f8880196
:10130800b7f86a31d7f8a4219a42e9d3d7e96e34fd
:101318005a1c3a6444f100027a64d7e91012c7e90a
:101328006e121a4697f86f010123d7f858111af070
:10133800d7f80346002b02d0012300f02fbdd7f8c1
:1013480078310133c7f87831d7f87831082bc3d909
:10135800b7f86a311a460021d7f858011df078fd10
:1013680037e00023c7f8a4310fe0d7f8a4315a1c9e
:10137800c7f8a421d7f8582113441b78d7f8881147
:1013880018461df064f9c7f88801b7f86a31d7f82c
:10139800a4219a42e9d3d7e96e345a1cba6344f1be
:1013a8000002fa63d7e90e12c7e96e121a4697f8d7
:1013b8006f010123d7f858111af092f80346002b51
:1013c80002d0012300f0eabcd7f878310133c7f81e
:1013d8007831d7f878310a2bc3d90023c7f8a4315c
:1013e8000ee0d7f85821d7f8a4311344d7f888115c
:1013f80018461af0e7fdd7f8a4310433c7f8a4312a
:10140800b7f86a31d7f8a4219a42ead3d7e96e34fb
:101418005a1c3a6344f100027a63d7e90c12c7e90f
:101428006e121a4697f86f010123d7f858111af06f
:1014380057f80346002b02d0012300f0afbcd7f8c1
:10144800d0310133c7f8d031d7f8d031012b7ff62e
:1014580032ae00f01bbc00bfec9c0100d7f8a831ed
:10146800c7f8d83197f8de31032b55d1d7f8d831e2
:10147800002b26d1d7e94c345b0cc7f8d0310023b8
:10148800c7f8a4310123c7f8d83109e0d7f8a43147
:101498000133c7f8a431d7f8d8315b00c7f8d83181
:1014a800d94ad7f8a43132f81330002b09d0d64adc
:1014b800d7f8a43132f813301a46d7f8d03193420e
:1014c800e4d2d7e94c341a46d7f8d831b2fbf3f353
:1014d800c7f84431d7f8443102339a00b7f86a3173
:1014e80013445a1eb7f86a31b2fbf3f3c7f8b031a8
:1014f8002023c7f8b4310023c7f8ac31d7f844210a
:101508004ff6f5739a4204d9d7f84421bf4b9a4253
:1015180068d90e2300f042bcd7f8d831002b26d169
:10152800d7e94c341b0bc7f8d0310023c7f8a431d6
:101538000123c7f8d83109e0d7f8a4310133c7f837
:10154800a431d7f8d8315b00c7f8d831b04ad7f8fa
:10155800a43132f81330002b09d0ad4ad7f8a431a2
:1015680032f813301a46d7f8d0319342e4d2d7e98b
:101578004c341a46d7f8d831b2fbf3f3c7f84431e4
:10158800d7f8442140f6f5739a4206d9d7f8443182
:1015980002335b00c7f8d0310ce0012387f8de3155
:1015a800d7f8442113465b00134401335b08033327
:1015b800c7f8d031b7f86a21d7f8d03113445a1e8a
:1015c800b7f86a31b2fbf3f3c7f8b0310123c7f8b3
:1015d800b431d7f860315a01b7f86a31b2fbf3f386
:1015e800c7f8ac31d7f8b43119464ff00002d7e943
:1015f80072345818b86244eb0203fb62d7e90a3424
:10160800c7e97034d7f8b021d7f8643103fb02f387
:1016180019464ff00002d7e97034c818c7f8a80077
:1016280042eb0403c7f8ac30d7f8ac314ff00004f4
:10163800d7e92a010246d2183a620a4642eb040365
:101648007b62d7e90834c7e95234d7f84821d7f87c
:10165800383113445a1ed7f838315b421a40d7f84c
:101668004831d31ac7f8d03197f8de31032b17d198
:10167800d7f8b421d7f8d0311344c7f8b431d7f824
:10168800d03119464ff00002d7e970345818b861c4
:1016980044eb0203fb61d7e90634c7e970342ce058
:1016a800d7f8d011d7f86431b1fbf3f2d7f8643129
:1016b80003fb02f3cb1a002b14d0d7f8d031013b2f
:1016c800c7f8d031d7f8b4310133c7f8b431d7e906
:1016d80070345a1c3a6144f100037b61d7e9043441
:1016e800c7e97034d7f8d021d7f86431b2fbf3f2e8
:1016f800d7f8b0311344c7f8b031d7f8d8311b0147
:1017080019464ff00002d7e95234c818c7f8a000ac
:1017180042eb0403c7f8a430d7e97234d7e92801ab
:101728000246d21ac7f898200a4662eb0403c7f8a3
:101738009c30d7e94c34d7e92612944208bf8b4233
:1017480001d20e232ae3d7e94c341a46d7f8b4312c
:10175800d11ad7f8b021d7f8643103fb02f3ca1abb
:10176800d7f8ac31d21ad7f8d831b2fbf3f3c7f8af
:10177800443197f8de31032b14d1d7f844214ff6c2
:10178800f5739a420ed8d7f8a831002b08d1d7f8ac
:10179800d8315b08c7f8a831d7f8a831002b5ad13f
:1017a8000e23fbe297f8de31022b48d1d7f844210b
:1017b8004ff6f5739a422dd9d7f8a831002b0ad1e4
:1017c800d7f8d8315b00402b05d8d7f8d8315b0063
:1017d800c7f8a83144e097f8df3103f00203002b83
:1017e80003d0032387f8de313ae0d7f8a831002b7d
:1017f80008d1d7f8d8315b00c7f8a831d7f8a83195
:10180800802b2ad90e23c9e2f8ee0100f5ffff0f5d
:1018180008ef0100d7f8442140f6f5739a420ed834
:10182800d7f8a831002b08d1d7f8d8315b00c7f812
:10183800a831d7f8a831802b11d90e23aee297f83a
:10184800de31012b0dd1d7f8443140f6f5729342c1
:1018580007d90e23a2e200bf00e600bffee500bfe5
:10186800fce500bfb7f86a311a460021d7f85801dd
:101878001df0eefa0b22e449d7f858011df0daf909
:10188800d7f858310b33b7f86a21114618461cf0bf
:1018980038f9d7f858310d33d7f8d821d2b21a70a1
:1018a800d7f858310e33d7f8b42192b211461846fa
:1018b8001cf027f9d7f858311033d7f86421d2b281
:1018c8001a70d7f8583103f1110297f8de31032b5b
:1018d80003d0d7f860319bb200e0002319461046c8
:1018e8001cf00ff9d7e94c344ff6ff714ff00002a6
:1018f800a24208bf99420bd3d7f8583103f113021b
:10190800d7e94c349bb2194610461cf0faf809e0a6
:10191800d7f8583103f12002d7e94c34194610465c
:101928001af050fbd7f858311533f8221a70d7f847
:10193800583118333f2118461cf0e3f8d7f85831ce
:101948001a33ff2118461cf0dcf8d7f858311c333d
:10195800d7f8c821114618461af034fb97f8de313b
:10196800032b37d1d7f858314333d7f850111846dd
:101978001af028fbd7f858312433d7f8b011184695
:101988001af020fbd7f858312c33022118461af0e8
:1019980019fbd7f858313033012118461cf0b1f83b
:1019a800d7f858313233062118461cf0aaf8d7f870
:1019b8005831403380221a70d7f8583142332922df
:1019c8001a70d7f8583147331322904918461df03a
:1019d80031f923e0d7f858312733d7f85011184692
:1019e8001af0f0fad7f858311633d7f8b02192b276
:1019f800114618461cf085f8d7f858312433802250
:101a08001a70d7f85831263329221a70d7f8583166
:101a18002b3313227e4918461df00cf9d7f858319c
:101a280003f5ff734af6552118461cf06af8d7f8f3
:101a3800c82197f86f010123d7f8581119f050fd04
:101a48000346002b01d00123a8e197f8de31032bd0
:101a58004ed1d7f8c8319a1d97f86f010123d7f8ee
:101a6800581119f03dfdb7f86a311a460021d7f828
:101a780058011df0edf96749d7f858011af0a2fa94
:101a8800d7f8583103f5f273634918461af09afaf1
:101a9800d7f8583103f5f472d7f84431013b1946a9
:101aa80010461af08ffad7f8583103f5f673022169
:101ab80018461af087fad7f8583103f5ff734af633
:101ac800552118461cf01df8d7f8c831da1d97f8cb
:101ad8006f010123d7f8581119f002fdd7f8c83162
:101ae8005a1c97f86f010123d7f8581119f0f8fc20
:101af800b7f86a31d7f85c2102fb03f31a460021d4
:101b0800d7f858011df0a4f9d7e97034c7e96e3445
:101b18000023c7f8a4316ae097f8de31032b16d109
:101b28006ff00701d7f858011af04cfad7f8583176
:101b380004334ff0ff3118461af044fad7f85831f9
:101b480008336ff0704118461af03cfa0ce097f829
:101b5800de31012b01d1314b01e06ff0070319464b
:101b6800d7f858011af02efad7f8b031c7f8d4319f
:101b7800d7f8d421d7f85c31934228bf1346c7f869
:101b8800d031d7f8b82197f86f01d7f8d031d7f806
:101b9800581119f0a5fc0346002b01d00123fde0e4
:101ba800b7f86a311a460021d7f858011df050f9e4
:101bb800d7f8d0314ff00004d7e96e12c818b860d2
:101bc80042eb0403fb60d7e90234c7e96e34d7f867
:101bd800d421d7f8d031d31ac7f8d431d7f8d431b3
:101be800002bc5d1d7f8a4310133c7f8a431d7f8f1
:101bf800a421d7f864319a428ed397f8de31032bab
:101c08000ed1d7f8d8310de0149d0100209d0100b8
:101c1800349d01005252614172724161f8ffff0028
:101c2800d7f8ac31c7f8d431d7f8d421d7f85c311c
:101c3800934228bf1346c7f8d031d7f8b82197f890
:101c48006f01d7f8d031d7f8581119f049fc03467d
:101c5800002b01d00123a1e0d7f8d0314ff00004c8
:101c6800d7e96e12c818386042eb04037b60d7e9e5
:101c78000034c7e96e34d7f8d421d7f8d031d31a55
:101c8800c7f8d431d7f8d431002bcdd197f8de314d
:101c9800042b03d1072387f8dd3120e097f8de31e4
:101ca800032b03d10c2387f8dd3118e0d7e94c3436
:101cb8004ff6ff714ff00002a24208bf994203d2cb
:101cc800062387f8dd310ae097f8de31022b03d1cd
:101cd800042387f8dd3102e0012387f8dd3197f826
:101ce8006e31002b29d097f9df31002b49db97f8ab
:101cf8006f0101230022d7f858111cf0e5f80346bc
:101d0800002b01d0012349e097f86e31013b1b01fc
:101d180003f5e173d7f85821134497f8dd211a70b9
:101d280097f86f0101230022d7f8581119f0d8fb52
:101d38000346002b25d0012330e097f8df3103f06c
:101d48000803002b1dd1d7e94c34c7e948344ff0bc
:101d580000034ff00004c7e94a3497f8dd2107f57e
:101d6800907197f86f01d7f8583103f0e9f80346f6
:101d780087f83f3197f83f31002b02d097f83f3171
:101d88000ce097f86f3100220021184618f072fa1b
:101d98000346002b01d0012300e00023184607f575
:081da800f277bd46bde8f08fa3
:020000040000fa
:101db00080b58cb004af78600023fb770023fb75ff
:101dc0007b6893f8d032212b00f23b8601a252f8b7
:101dd00023f000bf5d1e0000ef1e0000131f000077
:101de0006b1f0000dd1f00001b2000009f20000073
:101df000e1200000112100005d210000b72100005a
:101e0000e7210000db26000017220000bf220000af
:101e1000fb2200005f230000a5230000b324000084
:101e2000072700005f270000cd270000f7240000ef
:101e3000a32800007d250000172900005d2900006f
:101e4000c12500002926000097260000bf290000b8
:101e5000fd290000252a0000252a00007b68d3f810
:101e60009432bd4a93420ed07b689b689b68ba4807
:101e700098470346002b00f0e9857b68b64ac3f813
:101e8000942200f0e3bd7b689b78012b22d17b6814
:101e90005a687b6803f536731946104619f004ff3b
:101ea0000346002b10d17b68012283f8d0227b6887
:101eb00093f8e032002b01d1022200e003227b687c
:101ec00083f8d12200f0c2bd7b68212283f8d022a2
:101ed00000f0bcbd7b6893f8e032002b01d10222f8
:101ee00000e003227b6883f8d02200f0afbd7b685e
:101ef000d3f8d83218461cf091f90346002b00f0b5
:101f0000a7857b6893f8d1227b6883f8d02200f004
:101f10009fbd002302930023019300230093082315
:101f200006220021786815f0b1fc0346fb77fb7fa1
:101f3000042b00f08f857b6803f536731946642007
:101f400019f0b2fe0346002b09d17b68012283f809
:101f5000d0227b68032283f8d12200f07bbd7b680e
:101f6000212283f8d02200f075bd7b6803f2d323d1
:101f7000009300230022002178680ef04ff97b685f
:101f800093f8d232032b40f067857b6803f53673f4
:101f90001946642019f088fe0346002b18d17b688f
:101fa000012283f8d0227b6893f8e032002b05d120
:101fb0007b68042283f8d12200f04ebd7b680722a3
:101fc00083f8d1227b681422a3f8ec2200f044bdf0
:101fd0007b68212283f8d02200f03ebd786816f09d
:101fe00093ff0346fb77fb7f002b02d0fb7f022b86
:101ff00009d17b68002283f81e237b68052283f8c1
:10200000d02200f02bbdfb7f012b40f027857b68a1
:10201000212283f8d02200f021bd786810f02efa3a
:102020000346fb77fb7f002b26d17b6893f89c321d
:10203000002b0cd07b68092283f8d0227b6893f8b0
:102040001e3343f00203dab27b6883f81e237b68f9
:1020500093f89d32012b40f003857b68062283f8bc
:10206000d0227b6893f81e3343f00103dab27b6819
:1020700083f81e2300f0f4bcfb7f022b05d17b68a4
:10208000062283f8d02200f0ebbcfb7f012b40f04e
:10209000e7847b68212283f8d02200f0e1bc7868d5
:1020a00011f08cfb0346fb77fb7f002b0ed17b6886
:1020b00093f81e3343f00103dab27b6883f81e23e2
:1020c0007b68082283f8d02200f0ccbcfb7f012b78
:1020d00040f0c8847b68212283f8d02200f0c2bc83
:1020e000786814f09dfa0346fb77fb7f002b05d13f
:1020f0007b68082283f8d02200f0b6bcfb7f012b5e
:1021000040f0b2847b68212283f8d02200f0acbc7e
:10211000786819f029f90346fb77fb7f002b10d173
:102120007b6893f8e032002b05d17b68092283f8a5
:10213000d02200f0a3bc7b680a2283f8d02200f0f2
:102140009dbcfb7f012b40f099847b68212283f8a2
:10215000d02200f093bc00bf801a0600786817f008
:102160003ef80346fb77fb7f002b1ad17b6893f880
:102170001e3303f00103002b05d07b680b2283f88c
:10218000d02200f07dbc7b6893f81e3303f002037d
:10219000002b00f075847b680d2283f8d02200f0bc
:1021a0006fbcfb7f012b40f06b847b68212283f89e
:1021b000d02200f065bc786817f004fe0346fb7778
:1021c000fb7f002b05d17b680b2283f8d02200f027
:1021d00059bcfb7f012b40f055847b68212283f89a
:1021e000d02200f04fbc786817f076fc0346fb77ee
:1021f000fb7f002b05d17b680d2283f8d02200f0f5
:1022000043bcfb7f012b40f03f847b68212283f895
:10221000d02200f039bc7b68b3f882321a047b68a4
:1022200003f2d32300930223072178680df0f6ff11
:102230007b6893f8d232032b40f028847b6893f8b4
:10224000cd32002b36d17b6803f5367319460a2050
:1022500019f02afd0346002b27d17b68012283f861
:10226000d0227b6893f8e032002b19d17b6893f879
:102270001e3303f00203002b05d07b680e2283f887
:10228000d12200f003bc7b6893f81e3303f00103f6
:10229000002b00f0fb837b68102283f8d122f5e34a
:1022a0007b680c2283f8d122f0e37b68212283f83b
:1022b000d022ebe37b68212283f8d022e6e37b681f
:1022c00003f528720023009313460022002178684a
:1022d00016f0cafa0346fb77fb7f002b04d17b681c
:1022e0000f2283f8d022d3e3fb7f012b40f0d08371
:1022f0007b68212283f8d022cae37b6803f29e2206
:1023000000230093134608220021786816f0acfae7
:102310000346fb77fb7f002b18d17b6893f81e33b5
:1023200003f00103002b04d07b68102283f8d02235
:10233000b0e37b6893f81e3303f00203002b00f038
:10234000a9837b68112283f8d022a3e3fb7f012bb2
:1023500040f0a0837b68212283f8d0229ae37b6837
:1023600030331946786810f053f90346fb77fb7f4a
:10237000002b04d17b68112283f8d0228ce3fb7ff1
:10238000012b40f089837b6893f88e32002b04d0b8
:102390007b68202283f8d0227ee37b68212283f8a9
:1023a000d02279e37b6893f8e232012b65d17b6818
:1023b00093f8e032002b64d10023bb7700237b77b6
:1023c0007b6893f81e3303f00203002b14d07b6864
:1023d00093f89e3203f04003002b09d07b6893f8fa
:1023e0009e325bb2db115bb203f00103002b01d024
:1023f000012300e00023bb777b6893f81e3303f0d2
:102400000103002b0ad07b6893f831309b0803f05e
:102410000103002b14bf012300237b777b6893f813
:102420001e3303f00303032b0dd1bb7f002b04d01d
:102430007b7f002b01d0012300e00023dab27b6810
:1024400083f881221de07b6893f81e3303f00203ba
:10245000002b05d0bb7f1a467b6883f8812210e0f1
:102460007b6893f81e3303f00103002b09d07b7fb8
:102470001a467b6883f8812203e07b68002283f898
:1024800081227b6893f88132012b0dd17b6893f810
:102490001e3303f00203002b01d0122200e01322ae
:1024a0007b6883f8d02210e37b68142283f8d02263
:1024b0000be378681af0abfd0346fb77fb7f002b3c
:1024c00010d17b6893f81e3303f00103002b04d076
:1024d0007b68132283f8d022e0e27b68142283f821
:1024e000d022dbe2fb7f012b40f0d8827b682122e7
:1024f00083f8d022d2e207f117020023009313469b
:1025000013220021786816f0aff90346fb77fb7fb2
:10251000002b2ad1fb7d03f00103002b20d07b6828
:1025200093f81e3303f00103002b14d07b6893f85b
:10253000303003f00f03002b08d07b68002283f8b3
:1025400084227b68172283f8d022a9e27b681e22ae
:1025500083f8d022a4e27b68182283f8d0229fe27d
:102560007b681b2283f8d0229ae2fb7f012b40f08c
:1025700097827b68212283f8d02291e2786817f055
:10258000d9fc0346fb77fb7f002b10d17b6893f8c7
:102590001e3303f00103002b04d07b68192283f85b
:1025a000d0227fe27b681a2283f8d0227ae2fb7f76
:1025b000012b40f077827b68212283f8d02271e2e0
:1025c0007b6893f89e3203f00203002b27d0002390
:1025d0003b617b6893f89f3207f1100219467868d7
:1025e00015f084fb0346fb77fb7f002b0ed13b6984
:1025f000b3f5007fc0f058827b684ff40072c3f8d7
:10260000a4227b681c2283f8d0224de2fb7f012ba1
:1026100040f04a827b68212283f8d02244e27b6822
:102620001d2283f8d0223fe27b6893f89f127b68db
:10263000d3f8a4329bb21a46786814f035f90346f1
:10264000fb77fb7f002b19d17b6893f89f227b6877
:1026500093f89c329a420cd27b6893f89f320133f4
:10266000dab27b6883f89f227b681b2283f8d02232
:102670001ce27b681d2283f8d02217e2fb7f012b2e
:1026800040f014827b680022c3f8a4227b682122d8
:1026900083f8d0220ae2786815f070fa0346fb77d7
:1026a000fb7f002b10d17b6893f81e3303f00103ee
:1026b000002b04d07b681e2283f8d022f8e17b68cf
:1026c0001f2283f8d022f3e1fb7f012b40f0f08141
:1026d0007b68212283f8d022eae1786812f0defddf
:1026e0000346fb77fb7f002b04d17b68132283f822
:1026f000d022dfe1fb7f012b40f0dc817b682122cf
:1027000083f8d022d6e17b6893f8e032002b05d124
:10271000786817f05bf80346fb7704e0786819f0f7
:10272000d1fb0346fb77fb7f002b0fd17b6893f82f
:10273000e032012b05d17b6893f8e2227b6883f8b5
:1027400081227b68142283f8d022b5e1fb7f012b24
:1027500040f0b2817b68212283f8d022ace17b6813
:102760009b68db6a7a6892f88122104698477b68fa
:1027700093f8e032002b24d17b6893f81e3303f0ea
:102780000203002b18d07b6893f89e3203f04003bd
:10279000002b08d17b68b54ac3f898227b681522c4
:1027a00083f8d02291e17b68b14ac3f898227b6814
:1027b0001b2283f8d02288e17b68152283f8d0227f
:1027c00083e17b68152283f8d0227ee17b689b68d9
:1027d0009b687a68d2f89822104698470346002be7
:1027e0005ad07b68d3f898227b68c3f894227b6820
:1027f00093f8e032002b33d17b6893f8e132012b60
:1028000020d17b6893f81e3303f00203002b04d021
:102810007b68162283f8d02257e17b6893f830302a
:1028200003f00f03002b08d07b68002283f884227a
:102830007b68172283f8d02247e17b681e2283f849
:10284000d02242e17b6893f81e3303f00203002b91
:1028500001d01b2200e01e227b6883f8d02234e1e5
:102860007b6893f8e132012b11d17b6893f84431f6
:1028700003f00103dbb2002b04d07b68192283f83c
:10288000d02222e17b681e2283f8d0221de17b68e2
:102890001e2283f8d02218e17b68212283f8d022ff
:1028a00013e107f10f031a460021786812f010f8bf
:1028b0000346fb77fb7f002b24d1fb7b002b10d042
:1028c0007b6893f81e3303f00203002b04d07b686f
:1028d000182283f8d022f1e07b68192283f8d022f5
:1028e000ece07b6893f81e3303f00203002b04d066
:1028f0007b681b2283f8d022e0e07b681e2283f8ed
:10290000d022dbe0fb7f012b40f0d8807b682122c6
:1029100083f8d022d2e07b6893f8e032002b07d115
:1029200000220121786811f0d3ff0346fb7704e011
:1029300078681af001f80346fb77fb7f002b04d17f
:102940007b681a2283f8d022bae0fb7f012b40f08b
:10295000b7807b68202283f8d022b1e07b6893f8af
:10296000e032002b02d1434bbb6101e0424bbb6123
:102970007b689b689b68b86998470346002b19d011
:102980007b68ba69c3f894227b689b681b6b012043
:1029900098477b6893f81e3303f00203002b04d0a2
:1029a0007b681b2283f8d0228fe07b681e2283f88d
:1029b000d0228ae07b68212283f8d02285e07b68e0
:1029c00003f2d323009301234ff40072102178689f
:1029d0000df024fc7b6893f8d232032b72d17b6814
:1029e00093f8cd32002b04d17b681f2283f8d022cc
:1029f00068e07b68212283f8d02263e07b6803f2e1
:102a0000d323009300230022072178680df006fcf1
:102a10007b6893f8d232032b56d17b68202283f84f
:102a2000d02251e07b68d3f8dc32184618f098f9d0
:102a30007b68002283f89f227b68002283f8d022e3
:102a400043e07b68002283f8d0223ee000bf3ce0f8
:102a500000bf3ae000bf38e000bf36e000bf34e01e
:102a600000bf32e000bf30e000bf2ee040787d01c3
:102a7000801a060080f0fa020075190300bf24e0f6
:102a800000bf22e000bf20e000bf1ee000bf1ce04e
:102a900000bf1ae000bf18e000bf16e000bf14e05e
:102aa00000bf12e000bf10e000bf0ee000bf0ce06e
:102ab00000bf0ae000bf08e000bf06e000bf04e07e
:102ac00000bf02e000bf00e000bf00bf2037bd46ee
:042ad00080bd00bf06
:020000040000fa
:102ad40080b58cb002af786000233b620023fb61b9
:102ae4000023bb61002387f827300023bb607b6889
:102af4004ff4487202fb03f3b84a13443b623b6a47
:102b040003f547737b614ff0ff333b617b691b78af
:102b1400012b02d17b6900221a70386a1bf0befeb9
:102b2400b8613b6a93f8cf32132b00f2118601a2ed
:102b340052f823f0892b0000d52b0000f72b00005e
:102b44004d2c00001f2d0000d72e0000472f000041
:102b5400b12f0000db2f00004d300000a130000039
:102b64006d34000013350000553700007d3500003a
:102b7400bb3500001b3600004b360000bf3600009a
:102b84003d3700003b6a9b78002b0dd13b6a9b6864
:102b94009b6b98470346002b00f0dc853b6a0122bf
:102ba40083f8cf2200f0d6bd3b6a1033194678680b
:102bb40014f01ff83b6a9b685b6898473b6a884a35
:102bc400c3f894223b6a032283f8cf2200f0c2bdeb
:102bd4003b6a03f536731946fa2019f063f8034685
:102be400002b40f0b9853b6a022283f8cf2200f023
:102bf400b3bd3b6ad3f8d83218461bf00dfb03462d
:102c0400002b00f0ab853b6a9b689b6b984703469f
:102c1400002b13d03b6a10331946786813f0e9ff90
:102c24003b6a9b685b6898473b6a6d4ac3f8942289
:102c34003b6a032283f8cf2200f090bd3b6a002256
:102c440083f8cf2200f08abd386afff7aff83b6af9
:102c540093f8d032202b31d13b6a002283f8ea2248
:102c64003b6a93f8cc32002b0ed03b6a9b68db6b3b
:102c7400002b0dd03b6a9b68db6b984703461a46d2
:102c84003b6a83f88d2203e03b6a002283f88d229d
:102c9400386a17f0bffc3b6a9b78012b04d13b6a6e
:102ca4004ff0ff32c3f8dc223b6a012283f8ce22c4
:102cb4003b6a042283f8cf2200f052bd3b6a93f8aa
:102cc400d032212b40f04c853b6a9b78012b07d1f5
:102cd4003b6a10331946786813f08bff00f040bd4f
:102ce4003b6a9b78002b40f03b853b6a9b689b6b5f
:102cf4009847034683f00103dbb2002b05d03b6aff
:102d0400002283f8cf2200f02bbd3b6a1033194612
:102d1400786813f06eff00f023bd386a1bf0befd27
:102d2400b861bb69002b5dd03b6a93f8d232032ba8
:102d340058d13b6a9b78012b0ad13b6ad3f8dc3229
:102d4400184618f00bf83b6a4ff0ff32c3f8dc2248
:102d54003b6a93f88e32002b08d0bb69ff221a72ab
:102d64003b6a112283f8cf2200f013bd3b6a9b78a3
:102d7400002b0fd13b6a9b689b6b9847034683f0fb
:102d84000103dbb2002b05d03b6a132283f8cf2268
:102d940000f0ffbcbb6902221a723b6a9b78022bcb
:102da40017d13b6a93f8e032012b0dd13b6a93f8bb
:102db400ea32012b08d13b6a002283f8ea223b6afb
:102dc400052283f8cf2282e03b6a092283f8cf22ce
:102dd4007de03b6a092283f8cf2278e000080020d6
:102de400801a06003b6a9b78022b1bd13b6a93f83e
:102df400e032012b40f0b6843b6a93f8e932002bb1
:102e040000f0b0843b6a93f8ea32002b40f0aa84c5
:102e14003b6a012283f8ea223b6a052283f8cf2227
:102e240000f0a0bc3b6a9b78012b3ad13b6ad3f8f3
:102e3400dc32b3f1ff3f12d13b6a5a683b6a03f5b7
:102e440037731946104618f02dff0346012b40f046
:102e540089843b6a112283f8cf2200f09abc3b6a32
:102e6400d3f8dc3218461bf0d7f90346002b00f0e8
:102e740079843b6a4ff0ff32c3f8dc223b6a93f853
:102e84001e3303f00203002b05d03b6a062283f8ad
:102e9400cf2200f067bc3b6a082283f8cf2200f0ff
:102ea40061bc3b6a9b78002b40f05c843b6a9b6866
:102eb4009b6b9847034683f00103dbb2002b00f0c1
:102ec40051843b6a132283f8cf2200f04bbc00f0fc
:102ed40049bc3b6a002283f8d3223b6ab3f88232ae
:102ee4001a043b6a93f8ea32db031a433b6a03f29f
:102ef400d323009302230521386a0df08df93b6a30
:102f040093f8d232032b40f02f843b6a93f8cd32ee
:102f1400002b10d13b6a93f8ea32012b05d13b6aae
:102f2400042283f8cf2200f01fbc3b6a092283f8f5
:102f3400cf2200f019bc3b6a132283f8cf2200f0a1
:102f440013bc3b6ab3f882321a043b6a03f2d323fc
:102f5400009302230721386a0df05ef93b6a93f867
:102f6400d232032b40f002843b6a93f8cd32002b1b
:102f740017d13b6a9b681b6a07f1080211460020bf
:102f84009847bb685b0a03f00f030f2b04d03b6a1e
:102f9400132283f8cf22e9e33b6a072283f8cf2286
:102fa400e4e33b6a132283f8cf22dfe33b6a03f2b4
:102fb400d3230093002300220721386a0df02cf953
:102fc4003b6a93f8d232032b40f0d2833b6a04224b
:102fd40083f8cf22cce33b6a002283f8d3223b6af6
:102fe400b3f882321a043b6a03f2d3230093012319
:102ff4000d21386a0df010f93b6a93f8d232032b95
:1030040040f0b8833b6a93f8cd32002b17d13b6a6a
:103014009b681b6a07f10802114600209847bb68a9
:103024005b0a03f00f03032b04d03b6a132283f8db
:10303400cf229fe33b6a042283f8cf229ae33b6ac0
:10304400132283f8cf2295e33b6ab3f882321a0441
:103054003b6a03f2d323009302230721386a0df05d
:10306400dbf83b6a93f8d232032b40f085833b6a4a
:1030740093f8cd32002b0cd13b6a9b681b6a07f195
:1030840008021146002098473b6a0a2283f8cf229f
:1030940072e33b6a112283f8cf226de3bb69002bf4
:1030a40004d13b6a112283f8cf2272e3bb695b7fb0
:1030b400022b3fd13b6a9b685b6aba69926992b200
:1030c400104698473b6a9b689b6a4ff40070984788
:1030d4003b6a002283f8d4223b6a012283f8d3227c
:1030e4003b6a042283f8d522bb6935221a77bb696f
:1030f40093f824301a07bb6993f825309b061a43ca
:10310400bb695b695b021a43bb699b69134343f068
:103114000842bb699a62bb69062283f82c203b6a89
:103124009b685b6bba691069ba69926951020022a3
:10313400984795e1bb695b7f042b38d13b6a9b6858
:103144009b6aba69926992b2104698473b6a002218
:1031540083f8d4223b6a012283f8d3223b6a0322f8
:1031640083f8d522bb6935221a77bb6993f82430da
:103174001a07bb6993f825309b061a43bb695b6940
:103184005b021a43bb699b69134343f00042bb696a
:103194009a62bb69062283f82c203b6a9b685b6bae
:1031a400ba691069ba6991690022984758e1bb6904
:1031b4005b7f032b3fd13b6a9b685b6aba69926968
:1031c40092b2104698473b6a9b689b6a4ff4007022
:1031d40098473b6a012283f8d4223b6a012283f890
:1031e400d3223b6a042283f8d522bb6935221a779d
:1031f400bb6993f824301a07bb6993f825309b0602
:103204001a43bb695b695b021a43bb699b6913433d
:1032140043f00062bb699a62bb69062283f82c20e2
:103224003b6a9b685b6bba691069ba69926951021f
:103234000122984714e1bb695b7f052b36d13b6ab9
:103244009b689b6aba69926992b2104698473b6a36
:10325400012283f8d4223b6a012283f8d3223b6af9
:10326400032283f8d522bb6935221a77bb6993f808
:1032740024301a07bb6993f825309b061a43bb69af
:103284005b695b021a43bb699b691a43bb699a6217
:10329400bb69062283f82c203b6a9b685b6bba6986
:1032a4001069ba69916901229847d9e0bb695b7fcb
:1032b400012b49d13b6a012283f8d4223b6a0122c3
:1032c40083f8d322bb699b69012b0cd13b6a9b68b1
:1032d4005b6a00209847bb6911221a773b6a002277
:1032e40083f8d5220ee03b6a9b685b6aba699269ef
:1032f40092b210469847bb6912221a773b6a0122a0
:1033040083f8d5223b6a93f88632002b03d1bb693c
:103314005b695b0201e0bb695b69ba699362bb6983
:10332400012283f82c203b6a9b689b6a4ff400704f
:1033340098473b6a9b685b6bba691069ba69926982
:103344005102012298478be0bb695b7f002b49d176
:103354003b6a002283f8d4223b6a012283f8d322f9
:10336400bb699b69012b0cd13b6a9b685b6a00209b
:103374009847bb6918221a773b6a002283f8d52242
:103384000ee03b6a9b685b6aba69926992b2104626
:103394009847bb6919221a773b6a012283f8d52220
:1033a4003b6a93f88632002b03d1bb695b695b02ed
:1033b40001e0bb695b69ba699362bb69012283f866
:1033c4002c203b6a9b689b6a4ff4007098473b6ac9
:1033d4009b685b6bba691069ba69926951020022f1
:1033e40098473de0bb695b7f062b20d1bb69342243
:1033f4001a77bb6993f824301a07bb6993f8253010
:10340400db061a43bb695b695b021343ba69126941
:103414001278134343f00042bb699a62bb690622e7
:1034240083f82c203b6a002283f8d32218e0bb697e
:103434005b7f072b14d1bb6934221a77bb6993f8dd
:1034440024301a07bb695b695b021a43bb699a6241
:10345400bb69062283f82c203b6a002283f8d3221e
:103464003b6a0b2283f8cf22bb69197fbb699a6a36
:10347400bb6993f82c003b6a03f2d3230093034601
:10348400386a0cf0c9fe3b6a93f8d232032b40f041
:1034940075813b6a93f8cd32002b2fd1bb6993f829
:1034a4002c30062b1bd13b6a9b681b6a07f1080270
:1034b400114600209847bb681b0a03f0cb03002b7e
:1034c40004d03b6a112283f8cf2208e0bb695b7ffa
:1034d400072b04d1ba68bb691b69d2b21a703b6a64
:1034e40093f8d332002b04d03b6a0c2283f8cf220a
:1034f40008e03b6a102283f8cf2203e03b6a1122e2
:1035040083f8cf223b6a002283f8d32236e13b6a58
:1035140093f88f32002b00f033813b6ab3f8923278
:103524001a4648f270231340002b04d03b6a112240
:1035340083f8cf2224e1bb69002b18d03b6a93f8af
:10354400d532012b04d13b6a0e2283f8cf2217e136
:103554003b6a93f8d532002b04d13b6a0f2283f8df
:10356400cf220de13b6a102283f8cf2208e13b6aa7
:10357400112283f8cf2203e13b6a03f2d3230093a1
:10358400022300220c21386a0cf046fe3b6a93f8b1
:10359400d232032b40f0f6803b6a93f8cd32002bf5
:1035a40004d13b6a0f2283f8cf22ebe03b6a11225d
:1035b40083f8cf22e6e03b6ab3f882321a043b6a0e
:1035c40003f2d323009301230d21386a0cf024fe67
:1035d4003b6a93f8d232032b40f0d6803b6a93f8cf
:1035e400cd32002b12d13b6a9b681b6a07f108029b
:1035f400114600209847bb6803f48073002b00f049
:10360400c3803b6a102283f8cf22bde03b6a1122bb
:1036140083f8cf22b8e03b6a03f2d323009300235c
:1036240000220721386a0cf0f7fd3b6a93f8d23286
:10363400032b40f0ab80bb6900221a723b6a122252
:1036440083f8cf22a2e03b6a9b78002b0fd13b6a20
:103654009b689b6b984703461a46554b1a70bb6987
:10366400ff221a723b6a122283f8cf2290e03b6a4f
:10367400002283f8d3223b6ab3f882321a043b6aed
:1036840003f2d323009301230d21386a0cf0c4fd07
:103694003b6a93f8d232032b7ad1bb69ff221a72a8
:1036a4003b6a122283f8cf223b6a93f8cd32002b77
:1036b4006ed03f4b00221a706ae0bb69002b2ad0ff
:1036c400bb695b68dbb21a013b6ad3f8c8321344a6
:1036d400fb61fb69da68bb695b689a4218d1bb6914
:1036e40093f90830002b03d1002387f8273002e038
:1036f400012387f82730fb695b68002b08d0fb693e
:103704005b68ba69d168fa69926897f827009847a4
:10371400386a19f053fe264b1b78002b04d03b6a01
:10372400042283f8cf2234e0214b01221a703b6a31
:10373400132283f8cf222ce0386a16f033ff3b6a59
:10374400002283f8ce223b6a002283f8cf2220e0b5
:1037540000bf1ee000bf1ce000bf1ae000bf18e07d
:1037640000bf16e000bf14e000bf12e000bf10e08d
:1037740000bf0ee000bf0ce000bf0ae000bf08e09d
:1037840000bf06e000bf04e000bf02e000bf00e0ad
:1037940000bf3b6a03f54773fb60fb68002b02d054
:1037a400fb6801221a7000bf2837bd4680bd00bfe8
:0437b400ce2c0020f7
:020000040000fa
:1037b8000d0a55534220555342465356312044650d
:1037c80076696365204472697665723a2044726945
:1037d8007665722048616e646c6520697320696e35
:1037e80076616c696420696e204452565f55534275
:1037f800465356315f4445564943455f41646472b8
:1038080065737353657428292e0000bf0d0a55533c
:1038180042205553424653563120446576696365c4
:10382800204472697665723a20447269766572201e
:1038380048616e646c6520697320696e76616c6995
:103848006420696e204452565f55534246535631a0
:103858005f4445564943455f43757272656e7453bc
:103868007065656447657428292e00000d0a555354
:103878004220555342465356312044657669636564
:10388800204472697665723a2044726976657220be
:1038980048616e646c6520697320696e76616c6935
:1038a8006420696e204452565f5553424653563140
:1038b8005f4445564943455f52656d6f746557616e
:1038c8006b657570537461727428292e000000bfef
:1038d8000d0a5553422055534246535631204465ec
:1038e80076696365204472697665723a2044726924
:1038f8007665722048616e646c6520697320696e14
:1039080076616c696420696e204452565f55534253
:10391800465356315f4445564943455f52656d6f7e
:10392800746557616b65757053746f7028292e0024
:103938000d0a55534220555342465356312044658b
:1039480076696365204472697665723a20447269c3
:103958007665722048616e646c6520697320696eb3
:1039680076616c696420696e204452565f555342f3
:10397800465356315f4445564943455f4174746127
:10398800636828292e0000bf0d0a5553422055535d
:10399800424653563120446576696365204472690e
:1039a8007665723a204472697665722048616e6461
:1039b8006c6520697320696e76616c696420696e34
:1039c800204452565f555342465356315f4445563c
:1039d8004943455f44657461636828292e0000bf28
:1039e8000d0a5553422055534246535631204465db
:1039f80076696365204472697665723a204d7574fc
:103a08006578206c6f636b206661696c65642069fa
:103a18006e204452565f555342465356315f4445d3
:103a2800564943455f44657461636828290000bfaf
:103a38000d0a55534220555342465356312044658a
:103a480076696365204472697665723a20447269c2
:103a58007665722048616e646c6520697320696eb2
:103a680076616c696420696e204452565f555342f2
:103a7800465356315f4445564943455f534f464e7a
:103a8800756d62657247657428292e000d0a5553b5
:103a98004220555342465356312044657669636542
:103aa800204472697665723a20556e737570706f2e
:103ab8007274656420656e64706f696e7420696ed7
:103ac800204452565f555342465356315f4445563b
:103ad8004943455f456e64706f696e74456e6162f7
:103ae8006c6528292e0000bf0d0a555342205553f6
:103af80042465356312044657669636520447269ad
:103b08007665723a204472697665722048616e64ff
:103b18006c6520697320696e76616c696420696ed2
:103b2800204452565f555342465356315f444556da
:103b38004943455f456e64706f696e74456e616296
:103b48006c6528292e0000bf0d0a55534220555395
:103b5800424653563120446576696365204472694c
:103b68007665723a20556e737570706f72746564fd
:103b780020656e64706f696e7420696e20445256b9
:103b88005f555342465356315f4445564943455f56
:103b9800456e64706f696e7444697361626c652800
:103ba800292e00000d0a55534220555342465356bc
:103bb8003120446576696365204472697665723a96
:103bc800204472697665722048616e646c6520696c
:103bd8007320696e76616c696420696e2044525660
:103be8005f555342465356315f4445564943455ff6
:103bf800456e64706f696e7444697361626c6528a0
:103c0800292e00000d0a555342205553424653565b
:103c18003120446576696365204472697665723a35
:103c2800204d75746578206c6f636b206661696cd4
:103c3800656420696e204452565f55534246535678
:103c4800315f4445564943455f456e64706f696e00
:103c58007444697361626c65282900000d0a555324
:103c68004220555342465356312044657669636570
:103c7800204472697665723a20556e737570706f5c
:103c88007274656420656e64706f696e7420696e05
:103c9800204452565f555342465356315f44455669
:103ca8004943455f456e64706f696e744973456e2c
:103cb80061626c656428292e000000bf0d0a555307
:103cc8004220555342465356312044657669636510
:103cd800204472697665723a20447269766572206a
:103ce80048616e646c6520697320696e76616c69e1
:103cf8006420696e204452565f55534246535631ec
:103d08005f4445564943455f456e64706f696e74fc
:103d18004973456e61626c656428292e000000bff6
:103d28000d0a555342205553424653563120446597
:103d380076696365204472697665723a20556e73b8
:103d48007570706f7274656420656e64706f696eeb
:103d58007420696e204452565f555342465356317b
:103d68005f4445564943455f456e64706f696e749c
:103d78005374616c6c28292e000000bf0d0a55533e
:103d8800422055534246535631204465766963654f
:103d9800204472697665723a2044726976657220a9
:103da80048616e646c6520697320696e76616c6920
:103db8006420696e204452565f555342465356312b
:103dc8005f4445564943455f456e64706f696e743c
:103dd8005374616c6c28292e000000bf0d0a5553de
:103de80042205553424653563120446576696365ef
:103df800204472697665723a204d75746578206c36
:103e08006f636b206661696c656420696e2044523b
:103e1800565f555342465356315f444556494345cc
:103e28005f456e64706f696e745374616c6c282999
:103e3800000000bf0d0a55534220555342465356c1
:103e48003120446576696365204472697665723a03
:103e580020556e737570706f7274656420656e643a
:103e6800706f696e7420696e204452565f555342d4
:103e7800465356315f4445564943455f456e647025
:103e88006f696e745374616c6c436c656172282938
:103e98002e0000bf0d0a5553422055534246535633
:103ea8003120446576696365204472697665723aa3
:103eb800204472697665722048616e646c65206979
:103ec8007320696e76616c696420696e204452566d
:103ed8005f555342465356315f4445564943455f03
:103ee800456e64706f696e745374616c6c436c6575
:103ef800617228292e0000bf0d0a555342205553e0
:103f08004246535631204465766963652044726998
:103f18007665723a204472697665722048616e64eb
:103f28006c6520697320696e76616c696420696ebe
:103f3800204452565f555342465356315f444556c6
:103f48004943455f456e64706f696e744973537475
:103f5800616c6c656428292e000000bf0d0a55535a
:103f6800422055534246535631204465766963656d
:103f7800204472697665723a20496e76616c69648c
:103f88002068616e646c6520696e204452565f55e6
:103f98005342465356315f4445564943455f49525b
:103fa800505375626d697428292e00000d0a555307
:103fb800422055534246535631204465766963651d
:103fc800204472697665723a204465766963652093
:103fd80049525020697320616c7265616479206967
:103fe8006e2075736520696e204452565f555342a2
:103ff800485356315f4445564943455f49525053eb
:1040080075626d697428292e000000bf0d0a55538a
:1040180042205553424853563120446576696365ba
:10402800204472697665723a20456e64706f696ed5
:1040380074206973206e6f742070726f766973696b
:104048006f6e656420666f7220696e204452565ff9
:10405800555342485356315f4445564943455f4995
:1040680052505375626d697428292e000d0a5553f4
:10407800422055534246535631204465766963655c
:10408800204472697665723a204d75746578206ca3
:104098006f636b206661696c656420696e204452a9
:1040a800565f555342465356315f4445564943453a
:1040b8005f4952505375626d69742829000000bf2a
:1040c8000d0a5553422055534246535631204465f4
:1040d80076696365204472697665723a20556e7315
:1040e8007570706f7274656420656e64706f696e48
:1040f8007420696e204452565f55534246535631d8
:104108005f4445564943455f49525043616e636574
:104118006c416c6c28292e000d0a555342205553ca
:104128004246535631204465766963652044726976
:104138007665723a204472697665722048616e64c9
:104148006c6520697320696e76616c696420696e9c
:10415800204452565f555342465356315f444556a4
:104168004943455f49525043616e63656c416c6ccd
:1041780028292e000d0a55534220555342465356be
:104188003120446576696365204472697665723ac0
:10419800204d75746578206c6f636b206661696c5f
:1041a800656420696e204452565f55534246535603
:1041b800315f4445564943455f49525043616e63f8
:1041c800656c416c6c28292e000000bf0d0a555300
:1041d80042205553424653563120446576696365fb
:1041e800204472697665723a204472697665722055
:1041f80048616e646c6520697320696e76616c69cc
:104208006420696e204452565f55534246535631d6
:104218005f4445564943455f49525043616e636563
:104228006c28292e000000bf0d0a55534220555313
:104238004246535631204465766963652044726965
:104248007665723a2049525020697320696e76610a
:104258006c696420696e204452565f555342465338
:1042680056315f4445564943455f49525043616e54
:1042780063656c28292e00000d0a555342205553ba
:104288004246535631204465766963652044726915
:104298007665723a204d75746578206c6f636b2073
:1042a8006661696c656420696e204452565f555397
:1042b80042465356315f4445564943455f4952503b
:1042c80043616e63656c28292e0000bf0d0a5553a3
:1042d80042205553424653563120446576696365fa
:1042e800204472697665723a204472697665722054
:1042f800646f6573206e6f74206861766520612035
:10430800636c69656e7420696e20465f4452565f1f
:10431800555342465356315f4445564943455f54c9
:1043280061736b735f49535228292e000d0a555348
:104338004220555342465356312044657669636599
:10434800204472697665723a2044726976657220f3
:104358006e656564732061206576656e742068619a
:104368006e646c657220696e20465f4452565f55d4
:104378005342465356315f4445564943455f54615d
:0c438800736b735f49535228292e00000c
:020000040000fa
:1043940080b58cb000af78607b685b7883f00103f4
:1043a400dbb2002b0ed01af0ddfc0346022b40f2e8
:1043b400c4851af0cbfc03460c49184616f06cfd74
:1043c40000f0bbbd7b68db6b002b13d11af0cafc79
:1043d4000346022b40f2b1851af0b8fc03460449a7
:1043e400184616f059fd00f0a8bd00bfd4420000e5
:1043f400344300007b689b6abb62bb6a9b8b9bb2a5
:1044040003f40073b3f5007f0bd1bb6a1b8b9bb223
:1044140003f40073b3f5007f03d1bb6a4ff4007259
:104424009a83bb6a9b8b9bb203f48073b3f5807f42
:104434000bd1bb6a1b8b9bb203f48073b3f5807ff3
:1044440003d1bb6a4ff480729a83bb6a9b8b9bb285
:1044540003f08003802b09d1bb6a1b8b9bb203f052
:104464008003802b02d1bb6a80229a83bb6a9b8b18
:104474009bb203f04003402b09d1bb6a1b8b9bb258
:1044840003f04003402b02d1bb6a40229a83bb6aeb
:104494009b8b9bb203f02003202b09d1bb6a1b8b9f
:1044a4009bb203f02003202b02d1bb6a20229a8303
:1044b400bb6a9b8b9bb203f00103012b19d1bb6a2e
:1044c4001b8b9bb203f00103012b12d1bb6a0122a7
:1044d4009a83bb6a01229a82bb6a10229a83bb6abe
:1044e40010221a837b68db6b7a68906b00220421ac
:1044f4009847bb6a9b8b9bb203f01003102b19d116
:10450400bb6a1b8b9bb203f01003102b12d1bb6a46
:1045140010229a83bb6a10229a82bb6a01229a8370
:10452400bb6a01221a837b68db6b7a68906b00227a
:1045340003219847bb6a9b8b9bb203f00403042bb3
:1045440010d1bb6a1b8b9bb203f00403042b09d16b
:10455400bb6a04229a837b68db6b7a68906b0022c7
:1045640007219847bb6a9b8b9bb203f00803082b77
:104574002dd1bb6a1b8b9bb203f00803082b26d1f9
:104584007b68002283f82520bb6a1b7bdbb29b106f
:1045940003f003038f4ad25c7b6883f834207b6882
:1045a40054336022002118461af054fc7b68db6bfc
:1045b400002b06d07b68db6b7a68906b00220221ab
:1045c4009847bb6a80229a72bb6a08229a83bb6aa4
:1045d40093f80731dbb203f01003102b73d1bb6add
:1045e40093f80931dbb203f01003102b6bd17b6815
:1045f4009b6c7b627b6adb7923f002033b623b6a40
:10460400dab27b6ada717b6a0833db7923f002035e
:104614003b627b6a08333a6ad2b2da717b6a1b68fe
:10462400fb61fb69002b46d0fb6918687b685b6df6
:10463400082219461af000fbbb6a102283f80721ee
:10464400bb6a402283f80421fb691b68bb61bb6918
:104654009a79db791b021343fb82bb691b785bb23b
:10466400dbb2db09dbb2bb82fb8a002b04d17b68a3
:10467400072283f825200be0bb8a012b04d17b6839
:10468400062283f8252003e07b68022283f8252094
:10469400fb6902221a72fb6908225a60fb699a6953
:1046a4007b6a1a60fb69db68002b0cd0fb69db6852
:1046b400f869984707e07b68012283f82520bb6ae4
:1046c400102283f80821bb6a93f80731dbb203f0a8
:1046d4000203022b40f0b080bb6a93f80931dbb2cd
:1046e40003f00203022b40f0a7807b689b6c7b6283
:1046f4007b6a08337b627b6a1b68002b00f09c801a
:104704007b6a1b68fb617b6893f82530082b1ad100
:104714007b68002283f82520fb6900221a72fb695a
:104724009a697b6a1a60fb6900225a60fb69db683c
:10473400002b03d0fb69db68f8699847bb6a022247
:1047440083f8072178e0fb691b6a002b38d1fb69e9
:104754001b6903f08003002b16d0fb691b6923f04f
:104764008002fb691a617b689b6e23f47f5323f0fc
:104774003f037a689366bb6a022283f80721bb6a07
:10478400802283f8052157e07b68052283f82520e1
:10479400fb6900221a72fb699a697b6a1a60fb69d9
:1047a400db68002b03d0fb69db68f8699847bb6ab8
:1047b400022283f80721bb6a402283f804213be0ec
:1047c400fb691b6a7a6a9288934205d8fb691b6a63
:1047d400fb8504e0048200007b6a9b88fb857b6880
:1047e4005b6e1846fb691a68fb695968fb691b6aaa
:1047f400cb1a1344fa8d19461af01efafb691a6a89
:10480400fb8dd21afb691a627b689b6e23f47f537b
:1048140023f03f037a6893667b689a6efb8dc3f33b
:104824000d031a437b689a66bb6a022283f8072148
:10483400bb6a802283f80521bb6a93f80731dbb297
:1048440003f00103012b40f0b680bb6a93f80931f1
:10485400dbb203f00103012b40f0ad807b689b6c5d
:104864007b627b6893f82530052b2fd17b6a1b680c
:10487400002b22d07b6a1b68fb61fb6900221a7241
:104884007b68002283f82520bb6a012283f8072174
:10489400bb6a402283f80421fb699a697b6a1a6027
:1048a400fb6900225a60fb69db68002b00f08380ff
:1048b400fb69db68f86998477de07b68042283f82c
:1048c4002520bb6a012283f8082174e07b6a1b68f7
:1048d400002b08d17b68032283f82520bb6a0122c0
:1048e40083f8082167e07b6a1b68fb617b689b6d2a
:1048f4009bb2c3f30d03fb85fb691a6afb8d1a4453
:10490400fb695b689a4207d9fb695b689ab2fb69e9
:104914001b6a9bb2d31afb85fb691a68fb691b6a85
:10492400d0187b685b6d1946fb8d1a461af084f922
:10493400fb691a6afb8d1a44fb691a62fb691a6add
:10494400fb695b689a420dd27b6a9b88fa8d9a4216
:1049540008d3bb6a402283f80421bb6a012283f88e
:10496400072128e0fb691a6afb695b689a4203d352
:10497400fb6900221a7202e0fb6901221a727b6849
:10498400072283f82520bb6a012283f80721bb6a2a
:10499400402283f80421fb699a697b6a1a60fb69e7
:1049a4001a6afb695a60fb69db68002b03d0fb6958
:1049b400db68f8699847012387f82d30a2e1bb6ac8
:1049c4001b8c9bb21a4697f82d3022fa03f303f09e
:1049d4000103002b00f0908197f82d30ba6a5b0137
:1049e400134403f209131b78dbb23b6197f82d30b3
:1049f400ba6a08335b01134407331b78dbb2fb60ec
:104a04003b693b62fb6803f00803082b2cd13b6a2b
:104a140003f00803002b27d097f82d307a685b0148
:104a240013446e331b78dbb203f00203022b1bd159
:104a340097f82d307a685b0113446e331b78dab231
:104a440097f82d3022f00202d1b27a685b01134448
:104a54006e330a461a7097f82d30ba6a08335b0130
:104a64001344073308221a703b693b62fb6803f066
:104a74000203022b40f041813b6a03f00203002b46
:104a840000f03b8197f82d207b68123253f82230d6
:104a94007b627b6a08337b627b6a1b68002b00f0b5
:104aa4002c817b6a1b68fb61fb691b6a002b40f04d
:104ab400bb80fb691b6903f08003002b2cd0fb69ce
:104ac4001b6923f08002fb691a6197f82d307a681c
:104ad40003335b01134408331b6897f82d2023f438
:104ae4007f5323f03f037968033252010a440832aa
:104af400136097f82d30ba6a08335b011344073307
:104b04000a221a7097f82d30ba6a08335b011344ed
:104b1400053380221a70f0e0fb6900221a72fb69e7
:104b24009a697b6a1a60fb69db68002b03d0fb6916
:104b3400db68f86998477b6a1b68002b12d197f8e9
:104b44002d30ba6a5b01134403f584730a221a7088
:104b540097f82d30ba6a08335b01134407330a22ed
:104b64001a70cae07b6a1b68fb61fb691b6a7a6a7c
:104b74009288934203d8fb691b6afb8502e07b6a37
:104b84009b88fb85fb691a68fb695968fb691b6a8a
:104b9400cb1a1a4497f82d3011467a6803335b0117
:104ba400134404331960fb691a6afb8dd21afb693a
:104bb4001a6297f82d307a6803335b011344083383
:104bc4001b6897f82d2023f47f5323f03f03796863
:104bd400033252010a440832136097f82d307a6880
:104be40003335b01134408331968fb8dc3f30d02cf
:104bf40097f82d300a43796803335b010b4408337b
:104c04001a6097f82d30ba6a08335b0113440733ee
:104c14000a221a7097f82d30ba6a08335b011344dc
:104c2400053380221a7068e0fb691b6a7a6a9288ed
:104c3400934203d8fb691b6afb8502e07b6a9b886d
:104c4400fb85fb691a68fb695968fb691b6acb1a07
:104c54001a4497f82d3011467a6803335b011344e4
:104c640004331960fb691a6afb8dd21afb691a6254
:104c740097f82d307a6803335b01134408331b68bb
:104c840097f82d2023f47f5323f03f0379680332f0
:104c940052010a440832136097f82d307a680333be
:104ca4005b01134408331968fb8dc3f30d0297f8b5
:104cb4002d300a43796803335b010b4408331a60cf
:104cc40097f82d30ba6a08335b01134407330a227c
:104cd4001a7097f82d30ba6a5b01134403f2091372
:104ce40002221a7097f82d30ba6a08335b01134414
:104cf400053380221a7000e000bf97f82d3001338d
:104d040087f82d3097f82d30022b7ff658ae01230b
:104d140087f82d300ce1bb6a1b8c9bb21a4697f8be
:104d24002d3022fa03f303f00103002b00f0fa8084
:104d340097f82d30ba6a5b01134403f209131b7808
:104d4400dbb23b6197f82d30ba6a08335b01134438
:104d540007331b78dbb2fb60fb6803f00403042b0e
:104d640027d197f82d307a685b0113445e331b78a2
:104d7400dbb203f00203022b12d197f82d307a68cc
:104d84005b0113445e331b78dab297f82d3022f0be
:104d94000202d1b27a685b0113445e330a461a7088
:104da40097f82d30ba6a08335b01134407330422a1
:104db4001a703b693b62fb6803f00103012b40f06e
:104dc400b2803b6a03f00103002b00f0ac8097f83b
:104dd4002d207b68123253f822307b627b6a1b6879
:104de400002b00f0a0807b6a1b68fb6197f82d30d4
:104df4007a685b01134458331b689bb2c3f30d03f9
:104e0400fb85fb691a6afb8d1a44fb691a62fb690c
:104e14001a6afb695b689a4224d27b6a9b88fa8d82
:104e24009a421fd3fb691a68fb691b6a1a4497f8f4
:104e34002d3011467a685b0113445433196097f896
:104e44002d30ba6a08335b011344073305221a7004
:104e540097f82d30ba6a08335b01134404334022b7
:104e64001a7060e0fb691a6afb695b689a4203d3b3
:104e7400fb6900221a7207e07b6a9b88fa8d9a42ca
:104e840002d2fb6901221a72fb699a697b6a1a6071
:104e9400fb691a6afb695a60fb69db68002b03d063
:104ea400fb69db68f86998477b6a1b68002b26d08e
:104eb4007b6a1b681a6897f82d3011467a685b0183
:104ec40013445433196097f82d30ba6a08335b01e0
:104ed4001344073305221a7097f82d30ba6a5b0120
:104ee400134403f2091305221a7097f82d30ba6a95
:104ef40008335b011344043340221a7013e097f81b
:104f04002d30ba6a5b01134403f5847305221a70c9
:104f140097f82d30ba6a08335b011344073305222e
:104f24001a7000e000bf97f82d30013387f82d3058
:104f340097f82d30022b7ff6eeae00bf3037bd461a
:044f440080bd00bf6d
:020000040000fa
:104f48002de9f04fbfb000afb9677b67034687f81c
:104f58007f30134687f87e3007f1800397f87f008b
:104f68001a46012115f086f90346002b02d00123c9
:104f780000f055bcd7e920126ff070434ff00004e1
:104f8800944208bf8b4280f0f0824ff40073a7f878
:104f9800be30d7e920341c4617f015fb03462344de
:104fa800c7f8d430b7f8be204ff4801393fbf2f360
:104fb800c7f8b830b7f8be204ff4804393fbf2f33c
:104fc800c7f8b430d7e92012d7f8b4304ff000044e
:104fd800cd1a62eb040615f1ff3846f1ff39c7e92f
:104fe8002a89d7f8b43002334ff00004c7e93234c5
:104ff800d7e92a12d7e93234b1eb030a62eb040b82
:10500800c7e928ab4ff0ff33c7f8d8304ff001039a
:105018004ff00004c7e930340023c7f8dc30d7f874
:10502800dc30c7f8e030d7f8e030d901b7f8be2057
:10503800b1fbf2f302fb03f3cb1a002b06d1b7f84e
:10504800be301a460021786f19f002ffd7e93034d4
:10505800234300f0b280d7f8b83019464ff0000269
:10506800d7e93234c818386642eb04037b66d7e9bf
:1050780018120b4613f1ff33bb65134643f1ff3398
:10508800fb65d7f8b8304ff000045b4264eb44048a
:10509800d7e9160102461a403a610a4602ea0403b1
:1050a8007b61d7e90434c7e93234d7f8dc20531cd4
:1050b800c7f8dc30d200bb6f1344d3e90034c7e92a
:1050c8003034d7e93034002c08bf652b48d2d7f8e4
:1050d800a420d7f8c03003fb02f1d7f8c420d7f8d2
:1050e800a03003fb02f3cc18d7f8a020d7f8c030c3
:1050f800a2fb0301631819464ff064024ff0000346
:1051080018f0cafe03460c46c7e93034d7f8b83061
:1051180019464ff00002d7e93034c818386542eb19
:1051280004037b65d7e914120b4613f1ff33bb6404
:10513800134643f1ff33fb64d7f8b8304ff000044f
:105148005b4264eb4404d7e9120102461a40ba6094
:105158000a4602ea0403fb60d7e90234c7e930349f
:10516800d7e93212d7e93034c818386442eb04035f
:105178007b64d7e92a34d7e91012944208bf8b42de
:105188001bd2d7e93212d7e92a34a24208bf994282
:1051980009d2d7e92a12d7e93234c81ab86662ebbd
:1051a8000403fb6605e04ff000034ff00004c7e975
:1051b8001a34d7e91a34c7e93034d7e930342343ed
:1051c8005ad0d7f8e030d901b7f8be20b1fbf2f3d6
:1051d80002fb03f3cb1ac7f89c307a6fd7f89c30e0
:1051e8001344cc4a1d4614460fcc28606960aa6057
:1051f800eb60d7f89c3003f110027b6f1344102248
:105208001946d7f8d40015f0adfec7f8d400d7f882
:105218009c3003f120027b6f9918d7e932230846a6
:105228000ff02affd7f89c3003f128027b6f9818fb
:10523800d7e93212d7e93034cd18bd6342eb040305
:10524800fb63d7e90e120b4613f1ff333b6313469a
:1052580043f1ff337b63d7e90c230ff00dffd7e948
:105268003212d7e93034c818386042eb04037b6047
:10527800d7e90034c7e93234d7f8e0300133d9012f
:10528800b7f8be20b1fbf2f302fb03f3cb1a002bf5
:1052980040d10023c7f8f4300ee0d7f8f420531caf
:1052a800c7f8f4307b6f13441b781946d7f8d80039
:1052b80015f0c2ffc7f8d800b7f8be20d7f8f43009
:1052c8009342ead3d7f8e030da01b7f8be30b2fb40
:1052d800f3f39a1c97f87f000123796f16f000f911
:1052e8000346002b01d0012399e2d7f8e030da0118
:1052f800b7f8be30b2fbf3f2d7f8a8301a4497f8e3
:105308007f000123796f16f0ebf80346002b01d0dc
:10531800012384e2d7f8e0300133c7f8e030d7f84a
:10532800e0307f2b7ff67faeb7f8be301a460021fb
:10533800786f19f08dfd10227749786f19f07afc93
:105348007b6f03f15802d7f8d830db431946104673
:1053580016f038fe7b6f03f118014ff001024ff091
:10536800000308460ff088fe7b6f03f12001d7e9a0
:10537800203413f1ff32ba6244f1ff33fb62d7e9fc
:105388000a2308460ff078fe7b6f03f12801d7f84f
:10539800b43002334ff000041a46234608460ff093
:1053a8006bfe7b6f03f13001d7e92a3413f1ff322a
:1053b8003a6244f1ff337b62d7e9082308460ff0cd
:1053c8005bfe7b6f54338021184616f0fbfd7b6f24
:1053d80050338021184616f0f5fd7b6f48330221c3
:1053e800184616f0effd7b6f383310221946d7f8b0
:1053f800d40015f0b7fdc7f8d4000023c7f8f4307f
:105408004ff0ff33c7f8d8300ee0d7f8f4305a1c05
:10541800c7f8f4207a6f13441b781946d7f8d800d8
:1054280015f00affc7f8d800d7f8f4305b2becd991
:105438007b6f03f11002d7f8d830db4319461046ca
:1054480016f0c0fd97f87f0001230122796f16f04e
:1054580047f80346002b01d00123e0e17b6f03f1fd
:105468001801d7e9203413f1ff32ba6144f1ff3350
:10547800fb61d7e9062308460ff0fefd7b6f03f1b9
:1054880020014ff001024ff0000308460ff0f4fd31
:105498007b6f03f14801d7e92a2308460ff0ecfd9a
:1054a8007b6f10330021184616f08cfd0023c7f8d7
:1054b800f4304ff0ff33c7f8d8300ee0d7f8f430a7
:1054c8005a1cc7f8f4207a6f13441b781946d7f88a
:1054d800d80015f0b1fec7f8d800d7f8f4305b2b28
:1054e800ecd97b6f03f11002d7f8d830db431946ab
:1054f800104616f067fdd7e920345a1e97f87f004a
:105508000123796f15f0ecff0346002b06d0012329
:1055180085e100bfb8ee0100049d0100b7f8be3078
:105528001a460021786f19f093fc7b6f03f5df733f
:10553800bd4a1c4615460fcd20606160a260e3603d
:105548007b6f03f5ff734af65521184618f0d9fa10
:1055580097f87f0001230022796f15f0c1ff0346f9
:10556800002b00f05b81012359e1d7e92034c7f80b
:1055780098303f2387f89730082387f8e73004e00e
:1055880097f8e7305b0087f8e73097f8e730002bab
:105598000cd097f8e730d7f89820b2fbf3f297f8d9
:1055a8009730b2fbf3f3b3f5806fe9d897f8e7309b
:1055b800002b02d1ff2387f8e7304ff40072002157
:1055c800786f19f045fc7b6f03f5df73c7f8e83097
:1055d8000023c7f8f43097f89730c7f8f030f8e0b0
:1055e800d7f8f430db00ba6f1344d3e90034c7f8b6
:1055f800ec30d7f8ec30642b12d8d7f8ec30642ba9
:105608000ad0d7f89830894aa2fb03235b09d7f858
:10561800ec2002fb03f301e0d7f89830c7f8ec3030
:10562800d7f8f020d7f8ec301344d7f898209a42ee
:1056380008d3d7f8f020d7f8ec301344d7f8f02087
:105648009a4206d9d7f89820d7f8f030d31ac7f875
:10565800ec30d7f8ec30002b00f0cb80d7f8e830ee
:105668000833d7f8f010184616f0acfcd7f8e83035
:105678000c33d7f8ec10184616f0a4fcd7f8e8302d
:10568800043397f87e201a7097f89730d7f8f020ef
:10569800b2fbf3f297f8e730b2fbf3f3c7f89030b8
:1056a80097f89730d7f8f020b2fbf3f397f8e72094
:1056b800b3fbf2f102fb01f29b1a87f88f3097f8df
:1056c8009720d7f8f030b3fbf2f102fb01f29b1af6
:1056d800dbb2013387f88e30d7f8e830013397f81a
:1056e8008f201a70d7f890309b08dbb223f03f0365
:1056f800d9b2d7f8e830023397f88e200a43d2b2ed
:105708001a70d7f8e8300333d7f89020d2b21a705d
:10571800d7f8f020d7f8ec3013445a1e97f8973092
:10572800b2fbf3f297f8e730b2fbf3f3c7f8903027
:10573800d7f8f020d7f8ec3013445a1e97f8973072
:10574800b2fbf3f397f8e720b3fbf2f102fb01f2a7
:105758009b1a87f88f30d7f8f020d7f8ec3013442d
:10576800013b97f89720b3fbf2f102fb01f29b1a79
:10577800dbb2013387f88e30d7f8e830053397f875
:105788008f201a70d7f890309b08dbb223f03f03c4
:10579800d9b2d7f8e830063397f88e200a43d2b248
:1057a8001a70d7f8e8300733d7f89020d2b21a70b9
:1057b800d7f8e8301033c7f8e830d7f8f4300133b9
:1057c800c7f8f430d7f8f020d7f8ec301344c7f80e
:1057d800f030d7f8f430032b0cd8d7f8f030002b82
:1057e80008d0d7f8f020d7f898309a42fff4f8aeee
:1057f80000e000bf7b6f03f5ff734af6552118469a
:1058080018f07ff997f87f0001230022796f15f0cf
:1058180067fe0346002b01d0012300e00023184651
:10582800fc37bd46bde8f08fd8ee01001f85eb516f
:020000040000fa
:105838002de9f04fa7b000aff864b964134687f8b4
:105848004730ba6c00231360f86c13f035fcb86766
:10585800bb6f002b01da0b23afe3bc4abb6f52f8d6
:1058680023307b677b6f002b01d10c23a5e3ba6c37
:105878007b6f136097f8473023f0010387f84730b0
:105888007b6f1b78002b1bd07b6f5b78184619f059
:1058980073fa034687f8733097f8733003f00103ff
:1058a800002b0dd197f84730002b07d097f87330ad
:1058b80003f00403002b01d00a237ee300237ce3da
:1058c8007a6f002313707b6f5b78184619f09af88b
:1058d800034687f8733097f8733003f00103002b01
:1058e80001d0032369e397f84730002b07d097f8d6
:1058f800733003f00403002b01d00a235de3944abc
:10590800bb6f5b0013445b781946786f0af0bcf8ec
:10591800c7f88800d7f88830042b01d101234ce35d
:10592800d7f88830012b01d90d2346e37b6fd3e9e3
:105938001834c7e91a34d7f88830012b40f07c8135
:105948000b23fb6702e0fb6f0133fb67fb6f3f2b09
:1059580006d87a6ffb6f134470331b78002bf2d094
:10596800fb6f3f2b01d80d2327e37b6f7033683320
:10597800184618f079fa0346b3f5807f01d00d2355
:105988001be37b6f93f8dc30092b01d00d2314e364
:105998007b6f7033483318460df042f90a460146ca
:1059a800d7e91a345818386044eb02037b60d7e90a
:1059b8000034c7e918347b6f70335433184617f036
:1059c80096fa02467b6f1a637b6f93f8de307a6f24
:1059d800d3707b6fdb78012b01d00d23ede27b6f59
:1059e80093f8dd301a46012393409bb27a6f5381b6
:1059f8007b6f5b89002b01d10d23dee27b6f703357
:105a08005c33184617f073faf865fb6d514a9342f8
:105a180001d90d23d1e2fb6d9a1c7b6fda627a6f94
:105a2800d7e91a34c2e90e347b6f703358331846fd
:105a380017f05dfa034619464ff00002d7e91a3409
:105a4800c818b86342eb0403fb637b6fd7e90e12f7
:105a5800c3e914127b6f70335033184617f047fab6
:105a6800034619464ff00002d7e91a34c8183863bc
:105a780042eb04037b637b6fd7e90c12c3e9101276
:105a88007b6fd3e914127b6f5b891846fb6d03fbb0
