:020000040000fa
:10000000f0ff0320d9b70000f9cb0000ffcb0000c0
:100010000bcc000011cc000017cc00000000000049
:100020000000000000000000000000002f5f000042
:1000300005cc0000000000002f5f00002f5f0000d3
:100040002f5f00002f5f00002f5f00002f5f000078
:100050002f5f00002f5f00002f5f00002f5f000068
:100060002f5f00002f5f00002f5f00002f5f000058
:100070002f5f00002f5f00002f5f00002f5f000048
:100080002f5f00002f5f00002f5f00002f5f000038
:100090002f5f00002f5f00002f5f00002f5f000028
:1000a0002f5f00002f5f00002f5f00002f5f000018
:1000b0002f5f00002f5f00002f5f000055cb000076
:1000c0002f5f00002f5f00002f5f00002f5f0000f8
:1000d0002f5f00002f5f00002f5f00002f5f0000e8
:1000e0002f5f00002f5f00000000000000000000f4
:1000f000000000002f5f00002f5f00002f5f000056
:100100002f5f00002f5f0000915600009156000005
:1001100091560000915600001d7c00001d7c0000df
:100120001d7c00001d7c00002f5f00002f5f000081
:100130002f5f00002f5f00002f5f00002f5f000087
:100140002f5f00002f5f00002f5f00002f5f000077
:100150002f5f00002f5f0000000000000000000083
:10016000000000000000000000000000000000008f
:10017000000000000000000000000000000000007f
:1001800095c90000adc90000c5c90000ddc9000067
:10019000000000002f5f00002f5f00002f5f0000b5
:1001a0002f5f00002f5f00002f5f00002f5f000017
:1001b0002f5f00002f5f00002f5f00002f5f000007
:1001c0002f5f00002f5f00002f5f00002f5f0000f7
:1001d0002f5f00002f5f00002f5f00002f5f0000e7
:1001e0002f5f00002f5f00002f5f00006db900003f
:1001f000b9b900002f5f00002f5f00002f5f0000e3
:100200002f5f000000000000000000002f5f0000d2
:100210002f5f00002f5f00002f5f00002f5f0000a6
:100220002f5f00002f5f00002f5f00002f5f000096
:100230002f5f00002f5f00002f5f00002f5f000086
:100240002f5f00002f5f00002f5f00002f5f000076
:100250002f5f00002f5f00002f5f00002f5f000066
:020000040000fa
:10026000f8b500bff8bc08bc9e46704729bd000029
:10027000f8b500bff8bc08bc9e46704705bd00003d
:020000040000fa
:080280000c4500000100000024
:020000040000fa
:100288000d0a555342205553424653563120446572
:1002980076696365204472697665723a20447269aa
:1002a8007665722048616e646c6520697320696e9a
:1002b80076616c696420696e204452565f555342da
:1002c800465356315f4445564943455f416464721d
:1002d80065737353657428292e0000bf0d0a5553a2
:1002e800422055534246535631204465766963652a
:1002f800204472697665723a204472697665722084
:1003080048616e646c6520697320696e76616c69fa
:100318006420696e204452565f5553424653563105
:100328005f4445564943455f43757272656e745321
:100338007065656447657428292e00000d0a5553b9
:1003480042205553424653563120446576696365c9
:10035800204472697665723a204472697665722023
:1003680048616e646c6520697320696e76616c699a
:100378006420696e204452565f55534246535631a5
:100388005f4445564943455f52656d6f74655761d3
:100398006b657570537461727428292e000000bf54
:1003a8000d0a555342205553424653563120446551
:1003b80076696365204472697665723a2044726989
:1003c8007665722048616e646c6520697320696e79
:1003d80076616c696420696e204452565f555342b9
:1003e800465356315f4445564943455f52656d6fe4
:1003f800746557616b65757053746f7028292e008a
:100408000d0a5553422055534246535631204465f0
:1004180076696365204472697665723a2044726928
:100428007665722048616e646c6520697320696e18
:1004380076616c696420696e204452565f55534258
:10044800465356315f4445564943455f417474618c
:10045800636828292e0000bf0d0a555342205553c2
:100468004246535631204465766963652044726973
:100478007665723a204472697665722048616e64c6
:100488006c6520697320696e76616c696420696e99
:10049800204452565f555342465356315f444556a1
:1004a8004943455f44657461636828292e0000bf8d
:1004b8000d0a555342205553424653563120446540
:1004c80076696365204472697665723a204d757461
:1004d8006578206c6f636b206661696c6564206960
:1004e8006e204452565f555342465356315f444539
:1004f800564943455f44657461636828290000bf15
:100508000d0a5553422055534246535631204465ef
:1005180076696365204472697665723a2044726927
:100528007665722048616e646c6520697320696e17
:1005380076616c696420696e204452565f55534257
:10054800465356315f4445564943455f534f464edf
:10055800756d62657247657428292e000d0a55531a
:1005680042205553424653563120446576696365a7
:10057800204472697665723a20556e737570706f93
:100588007274656420656e64706f696e7420696e3c
:10059800204452565f555342465356315f444556a0
:1005a8004943455f456e64706f696e74456e61625c
:1005b8006c6528292e0000bf0d0a5553422055535b
:1005c8004246535631204465766963652044726912
:1005d8007665723a204472697665722048616e6465
:1005e8006c6520697320696e76616c696420696e38
:1005f800204452565f555342465356315f44455640
:100608004943455f456e64706f696e74456e6162fb
:100618006c6528292e0000bf0d0a555342205553fa
:1006280042465356312044657669636520447269b1
:100638007665723a20556e737570706f7274656462
:1006480020656e64706f696e7420696e204452561e
:100658005f555342465356315f4445564943455fbb
:10066800456e64706f696e7444697361626c652865
:10067800292e00000d0a5553422055534246535621
:100688003120446576696365204472697665723afb
:10069800204472697665722048616e646c652069d1
:1006a8007320696e76616c696420696e20445256c5
:1006b8005f555342465356315f4445564943455f5b
:1006c800456e64706f696e7444697361626c652805
:1006d800292e00000d0a55534220555342465356c1
:1006e8003120446576696365204472697665723a9b
:1006f800204d75746578206c6f636b206661696c3a
:10070800656420696e204452565f555342465356dd
:10071800315f4445564943455f456e64706f696e65
:100728007444697361626c65282900000d0a555389
:1007380042205553424653563120446576696365d5
:10074800204472697665723a20556e737570706fc1
:100758007274656420656e64706f696e7420696e6a
:10076800204452565f555342465356315f444556ce
:100778004943455f456e64706f696e744973456e91
:1007880061626c656428292e000000bf0d0a55536c
:100798004220555342465356312044657669636575
:1007a800204472697665723a2044726976657220cf
:1007b80048616e646c6520697320696e76616c6946
:1007c8006420696e204452565f5553424653563151
:1007d8005f4445564943455f456e64706f696e7462
:1007e8004973456e61626c656428292e000000bf5c
:1007f8000d0a5553422055534246535631204465fd
:1008080076696365204472697665723a20556e731d
:100818007570706f7274656420656e64706f696e50
:100828007420696e204452565f55534246535631e0
:100838005f4445564943455f456e64706f696e7401
:100848005374616c6c28292e000000bf0d0a5553a3
:1008580042205553424653563120446576696365b4
:10086800204472697665723a20447269766572200e
:1008780048616e646c6520697320696e76616c6985
:100888006420696e204452565f5553424653563190
:100898005f4445564943455f456e64706f696e74a1
:1008a8005374616c6c28292e000000bf0d0a555343
:1008b8004220555342465356312044657669636554
:1008c800204472697665723a204d75746578206c9b
:1008d8006f636b206661696c656420696e204452a1
:1008e800565f555342465356315f44455649434532
:1008f8005f456e64706f696e745374616c6c2829ff
:10090800000000bf0d0a5553422055534246535626
:100918003120446576696365204472697665723a68
:1009280020556e737570706f7274656420656e649f
:10093800706f696e7420696e204452565f55534239
:10094800465356315f4445564943455f456e64708a
:100958006f696e745374616c6c436c65617228299d
:100968002e0000bf0d0a5553422055534246535698
:100978003120446576696365204472697665723a08
:10098800204472697665722048616e646c652069de
:100998007320696e76616c696420696e20445256d2
:1009a8005f555342465356315f4445564943455f68
:1009b800456e64706f696e745374616c6c436c65da
:1009c800617228292e0000bf0d0a55534220555345
:1009d80042465356312044657669636520447269fe
:1009e8007665723a204472697665722048616e6451
:1009f8006c6520697320696e76616c696420696e24
:100a0800204452565f555342465356315f4445562b
:100a18004943455f456e64706f696e7449735374da
:100a2800616c6c656428292e000000bf0d0a5553bf
:100a380042205553424653563120446576696365d2
:100a4800204472697665723a20496e76616c6964f1
:100a58002068616e646c6520696e204452565f554b
:100a68005342465356315f4445564943455f4952c0
:100a7800505375626d697428292e00000d0a55536c
:100a88004220555342465356312044657669636582
:100a9800204472697665723a2044657669636520f8
:100aa80049525020697320616c72656164792069cc
:100ab8006e2075736520696e204452565f55534207
:100ac800485356315f4445564943455f4952505350
:100ad80075626d697428292e000000bf0d0a5553f0
:100ae8004220555342485356312044657669636520
:100af800204472697665723a20456e64706f696e3b
:100b080074206973206e6f742070726f76697369d0
:100b18006f6e656420666f7220696e204452565f5e
:100b2800555342485356315f4445564943455f49fa
:100b380052505375626d697428292e000d0a555359
:100b480042205553424653563120446576696365c1
:100b5800204472697665723a204d75746578206c08
:100b68006f636b206661696c656420696e2044520e
:100b7800565f555342465356315f4445564943459f
:100b88005f4952505375626d69742829000000bf8f
:100b98000d0a555342205553424653563120446559
:100ba80076696365204472697665723a20556e737a
:100bb8007570706f7274656420656e64706f696ead
:100bc8007420696e204452565f555342465356313d
:100bd8005f4445564943455f49525043616e6365da
:100be8006c416c6c28292e000d0a55534220555330
:100bf80042465356312044657669636520447269dc
:100c08007665723a204472697665722048616e642e
:100c18006c6520697320696e76616c696420696e01
:100c2800204452565f555342465356315f44455609
:100c38004943455f49525043616e63656c416c6c32
:100c480028292e000d0a5553422055534246535623
:100c58003120446576696365204472697665723a25
:100c6800204d75746578206c6f636b206661696cc4
:100c7800656420696e204452565f55534246535668
:100c8800315f4445564943455f49525043616e635d
:100c9800656c416c6c28292e000000bf0d0a555365
:100ca8004220555342465356312044657669636560
:100cb800204472697665723a2044726976657220ba
:100cc80048616e646c6520697320696e76616c6931
:100cd8006420696e204452565f555342465356313c
:100ce8005f4445564943455f49525043616e6365c9
:100cf8006c28292e000000bf0d0a55534220555379
:100d080042465356312044657669636520447269ca
:100d18007665723a2049525020697320696e76616f
:100d28006c696420696e204452565f55534246539d
:100d380056315f4445564943455f49525043616eb9
:100d480063656c28292e00000d0a5553422055531f
:100d5800424653563120446576696365204472697a
:100d68007665723a204d75746578206c6f636b20d8
:100d78006661696c656420696e204452565f5553fc
:100d880042465356315f4445564943455f495250a0
:100d980043616e63656c28292e0000bf0d0a555308
:100da800422055534246535631204465766963655f
:100db800204472697665723a2044726976657220b9
:100dc800646f6573206e6f7420686176652061209a
:100dd800636c69656e7420696e20465f4452565f85
:100de800555342465356315f4445564943455f542f
:100df80061736b735f49535228292e000d0a5553ae
:100e080042205553424653563120446576696365fe
:100e1800204472697665723a204472697665722058
:100e28006e656564732061206576656e74206861ff
:100e38006e646c657220696e20465f4452565f5539
:100e48005342465356315f4445564943455f5461c2
:0c0e5800736b735f49535228292e000071
:020000040000fa
:100e640080b58cb000af78607b685b7883f0010359
:100e7400dbb2002b0ed00bf0d3fd0346022b40f265
:100e8400c4850bf0c1fd03460c49184609f08cffdc
:100e940000f0bbbd7b68db6b002b13d10bf0c0fdf6
:100ea4000346022b40f2b1850bf0aefd0346044924
:100eb400184609f079ff00f0a8bd00bfa40d00009a
:100ec400040e00007b689b6abb62bb6a9b8b9bb26f
:100ed40003f40073b3f5007f0bd1bb6a1b8b9bb289
:100ee40003f40073b3f5007f03d1bb6a4ff40072bf
:100ef4009a83bb6a9b8b9bb203f48073b3f5807fa8
:100f04000bd1bb6a1b8b9bb203f48073b3f5807f58
:100f140003d1bb6a4ff480729a83bb6a9b8b9bb2ea
:100f240003f08003802b09d1bb6a1b8b9bb203f0b7
:100f34008003802b02d1bb6a80229a83bb6a9b8b7d
:100f44009bb203f04003402b09d1bb6a1b8b9bb2bd
:100f540003f04003402b02d1bb6a40229a83bb6a50
:100f64009b8b9bb203f02003202b09d1bb6a1b8b04
:100f74009bb203f02003202b02d1bb6a20229a8368
:100f8400bb6a9b8b9bb203f00103012b19d1bb6a93
:100f94001b8b9bb203f00103012b12d1bb6a01220c
:100fa4009a83bb6a01229a82bb6a10229a83bb6a23
:100fb40010221a837b68db6b7a68906b0022042111
:100fc4009847bb6a9b8b9bb203f01003102b19d17b
:100fd400bb6a1b8b9bb203f01003102b12d1bb6aac
:100fe40010229a83bb6a10229a82bb6a01229a83d6
:100ff400bb6a01221a837b68db6b7a68906b0022e0
:1010040003219847bb6a9b8b9bb203f00403042b18
:1010140010d1bb6a1b8b9bb203f00403042b09d1d0
:10102400bb6a04229a837b68db6b7a68906b00222c
:1010340007219847bb6a9b8b9bb203f00803082bdc
:101044002dd1bb6a1b8b9bb203f00803082b26d15e
:101054007b68002283f82520bb6a1b7bdbb29b10d4
:1010640003f003038f4ad25c7b6883f834207b68e7
:1010740054336022002118460bf01efd7b68db6ba5
:10108400002b06d07b68db6b7a68906b0022022110
:101094009847bb6a80229a72bb6a08229a83bb6a09
:1010a40093f80731dbb203f01003102b73d1bb6a42
:1010b40093f80931dbb203f01003102b6bd17b687a
:1010c4009b6c7b627b6adb7923f002033b623b6aa5
:1010d400dab27b6ada717b6a0833db7923f00203c4
:1010e4003b627b6a08333a6ad2b2da717b6a1b6864
:1010f400fb61fb69002b46d0fb6918687b685b6d5c
:10110400082219460bf01afcbb6a102283f8072147
:10111400bb6a402283f80421fb691b68bb61bb697d
:101124009a79db791b021343fb82bb691b785bb2a0
:10113400dbb2db09dbb2bb82fb8a002b04d17b6808
:10114400072283f825200be0bb8a012b04d17b689e
:10115400062283f8252003e07b68022283f82520f9
:10116400fb6902221a72fb6908225a60fb699a69b8
:101174007b6a1a60fb69db68002b0cd0fb69db68b7
:10118400f869984707e07b68012283f82520bb6a49
:10119400102283f80821bb6a93f80731dbb203f00d
:1011a4000203022b40f0b080bb6a93f80931dbb232
:1011b40003f00203022b40f0a7807b689b6c7b62e8
:1011c4007b6a08337b627b6a1b68002b00f09c807f
:1011d4007b6a1b68fb617b6893f82530082b1ad166
:1011e4007b68002283f82520fb6900221a72fb69c0
:1011f4009a697b6a1a60fb6900225a60fb69db68a2
:10120400002b03d0fb69db68f8699847bb6a0222ac
:1012140083f8072178e0fb691b6a002b38d1fb694e
:101224001b6903f08003002b16d0fb691b6923f0b4
:101234008002fb691a617b689b6e23f47f5323f061
:101244003f037a689366bb6a022283f80721bb6a6c
:10125400802283f8052157e07b68052283f8252046
:10126400fb6900221a72fb699a697b6a1a60fb693e
:10127400db68002b03d0fb69db68f8699847bb6a1d
:10128400022283f80721bb6a402283f804213be051
:10129400fb691b6a7a6a9288934205d8fb691b6ac8
:1012a400fb8504e0bc2d00007b6a9b88fb857b6882
:1012b4005b6e1846fb691a68fb695968fb691b6a0f
:1012c400cb1a1344fa8d19460bf038fbfb691a6ae2
:1012d400fb8dd21afb691a627b689b6e23f47f53e1
:1012e40023f03f037a6893667b689a6efb8dc3f3a1
:1012f4000d031a437b689a66bb6a022283f80721ae
:10130400bb6a802283f80521bb6a93f80731dbb2fc
:1013140003f00103012b40f0b680bb6a93f8093156
:10132400dbb203f00103012b40f0ad807b689b6cc2
:101334007b627b6893f82530052b2fd17b6a1b6871
:10134400002b22d07b6a1b68fb61fb6900221a72a6
:101354007b68002283f82520bb6a012283f80721d9
:10136400bb6a402283f80421fb699a697b6a1a608c
:10137400fb6900225a60fb69db68002b00f0838064
:10138400fb69db68f86998477de07b68042283f891
:101394002520bb6a012283f8082174e07b6a1b685c
:1013a400002b08d17b68032283f82520bb6a012225
:1013b40083f8082167e07b6a1b68fb617b689b6d8f
:1013c4009bb2c3f30d03fb85fb691a6afb8d1a44b8
:1013d400fb695b689a4207d9fb695b689ab2fb694f
:1013e4001b6a9bb2d31afb85fb691a68fb691b6aeb
:1013f400d0187b685b6d1946fb8d1a460bf09efa7c
:10140400fb691a6afb8d1a44fb691a62fb691a6a42
:10141400fb695b689a420dd27b6a9b88fa8d9a427b
:1014240008d3bb6a402283f80421bb6a012283f8f3
:10143400072128e0fb691a6afb695b689a4203d3b7
:10144400fb6900221a7202e0fb6901221a727b68ae
:10145400072283f82520bb6a012283f80721bb6a8f
:10146400402283f80421fb699a697b6a1a60fb694c
:101474001a6afb695a60fb69db68002b03d0fb69bd
:10148400db68f8699847012387f82d30a2e1bb6a2d
:101494001b8c9bb21a4697f82d3022fa03f303f003
:1014a4000103002b00f0908197f82d30ba6a5b019c
:1014b400134403f209131b78dbb23b6197f82d3018
:1014c400ba6a08335b01134407331b78dbb2fb6051
:1014d4003b693b62fb6803f00803082b2cd13b6a91
:1014e40003f00803002b27d097f82d307a685b01ae
:1014f40013446e331b78dbb203f00203022b1bd1bf
:1015040097f82d307a685b0113446e331b78dab296
:1015140097f82d3022f00202d1b27a685b011344ad
:101524006e330a461a7097f82d30ba6a08335b0195
:101534001344073308221a703b693b62fb6803f0cb
:101544000203022b40f041813b6a03f00203002bab
:1015540000f03b8197f82d207b68123253f822303b
:101564007b627b6a08337b627b6a1b68002b00f01a
:101574002c817b6a1b68fb61fb691b6a002b40f0b2
:10158400bb80fb691b6903f08003002b2cd0fb6933
:101594001b6923f08002fb691a6197f82d307a6881
:1015a40003335b01134408331b6897f82d2023f49d
:1015b4007f5323f03f037968033252010a4408320f
:1015c400136097f82d30ba6a08335b01134407336c
:1015d4000a221a7097f82d30ba6a08335b01134453
:1015e400053380221a70f0e0fb6900221a72fb694d
:1015f4009a697b6a1a60fb69db68002b03d0fb697c
:10160400db68f86998477b6a1b68002b12d197f84e
:101614002d30ba6a5b01134403f584730a221a70ed
:1016240097f82d30ba6a08335b01134407330a2252
:101634001a70cae07b6a1b68fb61fb691b6a7a6ae1
:101644009288934203d8fb691b6afb8502e07b6a9c
:101654009b88fb85fb691a68fb695968fb691b6aef
:10166400cb1a1a4497f82d3011467a6803335b017c
:10167400134404331960fb691a6afb8dd21afb699f
:101684001a6297f82d307a6803335b0113440833e8
:101694001b6897f82d2023f47f5323f03f037968c8
:1016a400033252010a440832136097f82d307a68e5
:1016b40003335b01134408331968fb8dc3f30d0234
:1016c40097f82d300a43796803335b010b440833e0
:1016d4001a6097f82d30ba6a08335b011344073354
:1016e4000a221a7097f82d30ba6a08335b01134442
:1016f400053380221a7068e0fb691b6a7a6a928853
:10170400934203d8fb691b6afb8502e07b6a9b88d2
:10171400fb85fb691a68fb695968fb691b6acb1a6c
:101724001a4497f82d3011467a6803335b01134449
:1017340004331960fb691a6afb8dd21afb691a62b9
:1017440097f82d307a6803335b01134408331b6820
:1017540097f82d2023f47f5323f03f037968033255
:1017640052010a440832136097f82d307a68033323
:101774005b01134408331968fb8dc3f30d0297f81a
:101784002d300a43796803335b010b4408331a6034
:1017940097f82d30ba6a08335b01134407330a22e1
:1017a4001a7097f82d30ba6a5b01134403f20913d7
:1017b40002221a7097f82d30ba6a08335b01134479
:1017c400053380221a7000e000bf97f82d300133f2
:1017d40087f82d3097f82d30022b7ff658ae012371
:1017e40087f82d300ce1bb6a1b8c9bb21a4697f824
:1017f4002d3022fa03f303f00103002b00f0fa80ea
:1018040097f82d30ba6a5b01134403f209131b786d
:10181400dbb23b6197f82d30ba6a08335b0113449d
:1018240007331b78dbb2fb60fb6803f00403042b73
:1018340027d197f82d307a685b0113445e331b7807
:10184400dbb203f00203022b12d197f82d307a6831
:101854005b0113445e331b78dab297f82d3022f023
:101864000202d1b27a685b0113445e330a461a70ed
:1018740097f82d30ba6a08335b0113440733042206
:101884001a703b693b62fb6803f00103012b40f0d3
:10189400b2803b6a03f00103002b00f0ac8097f8a0
:1018a4002d207b68123253f822307b627b6a1b68de
:1018b400002b00f0a0807b6a1b68fb6197f82d3039
:1018c4007a685b01134458331b689bb2c3f30d035e
:1018d400fb85fb691a6afb8d1a44fb691a62fb6972
:1018e4001a6afb695b689a4224d27b6a9b88fa8de8
:1018f4009a421fd3fb691a68fb691b6a1a4497f85a
:101904002d3011467a685b0113445433196097f8fb
:101914002d30ba6a08335b011344073305221a7069
:1019240097f82d30ba6a08335b011344043340221c
:101934001a7060e0fb691a6afb695b689a4203d318
:10194400fb6900221a7207e07b6a9b88fa8d9a422f
:1019540002d2fb6901221a72fb699a697b6a1a60d6
:10196400fb691a6afb695a60fb69db68002b03d0c8
:10197400fb69db68f86998477b6a1b68002b26d0f3
:101984007b6a1b681a6897f82d3011467a685b01e8
:1019940013445433196097f82d30ba6a08335b0145
:1019a4001344073305221a7097f82d30ba6a5b0185
:1019b400134403f2091305221a7097f82d30ba6afa
:1019c40008335b011344043340221a7013e097f880
:1019d4002d30ba6a5b01134403f5847305221a702f
:1019e40097f82d30ba6a08335b0113440733052294
:1019f4001a7000e000bf97f82d30013387f82d30be
:101a040097f82d30022b7ff6eeae00bf3037bd467f
:041a140080bd00bfd2
:020000040000fa
:101a18000d0a3d3d3d2049324320446576696365a2
:101a2800205363616e6e6572202853796e63687205
:101a38006f6e6f7573204d6f646529203d3d3d0db8
:101a48000a0000bf5363616e6e696e6720493243b6
:101a58002062757320666f722064657669636573aa
:101a68002e2e2e0d0a0000bf2020202020302020fe
:101a780031202032202033202034202035202036e9
:101a88002020372020382020392020612020622083
:101a980020632020642020652020660d0a0000bff6
:101aa8004661696c656420746f206f70656e2049ab
:101ab800324320647269766572210d0a000000bf06
:101ac8004661696c656420746f20636f6e66696730
:101ad80075726520493243210d0a0000253032789d
:101ae8003a20000025303278200000bf28434f44b8
:101af80045432920000000bf2d2d20000d0a0000bd
:101b08005363616e20636f6d706c6574652e20463b
:101b18006f756e6420256420646576696365287333
:101b2800292e0d0a000000bf4e6f20493243206461
:101b380065766963657320666f756e642e204368e9
:101b480065636b20636f6e6e656374696f6e732077
:101b5800616e642070756c6c2d7570207265736988
:101b680073746f72732e0d0a000000bf3d3d3d2057
:101b7800493243205363616e6e657220436f6d7006
:101b88006c657465203d3d3d0d0a0d0a000000bfdf
:101b98000d0a3d3d3d20434f44454320446961675c
:101ba8006e6f737469632054657374203d3d3d0df9
:101bb8000a0000bf312e2054657374696e67206275
:101bc8006173696320636f6d6d756e6963617469b4
:101bd8006f6e2e2e2e0d0a0020202042617369633d
:101be80020726561643a2053554343455353202d71
:101bf800205265672030783030203d2030782530fd
:101c080032580d0a000000bf20202042617369632a
:101c180020726561643a204641494c45440d0a00ea
:101c2800322e2054657374696e67206d756c746903
:101c3800706c65207265676973746572207265617e
:101c480064732e2e2e0d0a00202020526567203046
:101c58007825303258203d203078253032580d0a0a
:101c6800000000bf202020526567203078253032e0
:101c780058203d2052454144204641494c45440d99
:101c88000a0000bf332e2057726974652f526561b0
:101c98006420746573742077697468206d756c743a
:101ca80069706c652076616c7565732e2e2e0d0a31
:101cb800000000bf2020204f726967696e616c20a8
:101cc80076616c75653a203078253032580d0a00f7
:101cd8002020205772697465203078253032583ab0
:101ce800204641494c45440d0a0000bf202020579a
:101cf800726974652f5265616420307825303258d6
:101d08003a205355434345535320efbfbd3f3f0d42
:101d18000a0000bf20202057726974652f52656140
:101d280064203078253032583a204d49534d41547b
:101d380043482028676f742030782530325829208e
:101d4800efbfbd3f3f0d0a00202020577269746520
:101d5800203078253032582c20526561643a20466c
:101d680041494c454420efbfbd3f3f0d0a0000bf2d
:101d78000d0a3d3d3d20446961676e6f7374696368
:101d88002053756d6d617279203d3d3d0d0a00004f
:101d98005265676973746572207265616473207334
:101da80075636365737366756c3a2025642f380d07
:101db8000a0000bf57726974652f52656164206319
:101dc80079636c6573207375636365737366756c8b
:101dd8003a2025642f25640d0a0000bf4449414775
:101de8004e4f5349533a204e6f20636f6d6d756e99
:101df80069636174696f6e202d20436865636b2089
:101e080049324320636f6e6e656374696f6e732029
:101e1800616e6420616464726573730d0a0000bfab
:101e2800444941474e4f5349533a20526561642013
:101e3800776f726b732c20577269746520666169bd
:101e48006c73202d20436865636b20777269746515
:101e580020656e61626c652f70726f74656374695a
:101e68006f6e0d0a000000bf444941474e4f534969
:101e7800533a205061727469616c20636f6d6d759f
:101e88006e69636174696f6e202d20506f7373697a
:101e9800626c652074696d696e67206f7220736962
:101ea800676e616c20696e74656772697479206900
:101eb80073737565730d0a00444941474e4f534982
:101ec800533a20436f6d6d756e69636174696f6e07
:101ed80020697320776f726b696e6720636f727207
:101ee8006563746c792120efbfbd3f3f0d0a000088
:101ef8003d3d3d20446961676e6f7374696320548a
:101f080065737420436f6d706c657465203d3d3d4d
:101f18000d0a0d0a000000bf0055aaff33cc00bf10
:101f28000d0a3d3d3d20434f44454320546573749d
:101f38002053746172746564203d3d3d0d0a0000b4
:101f480054657374696e672064656c617920737970
:101f58007374656d202832207365636f6e64206426
:101f6800656c6179292e2e2e0d0a000044656c617e
:101f780079207465737420636f6d706c6574656423
:101f8800210d0a00496e697469616c697a696e6726
:101f980020434f4445432e2e2e0d0a00434f4445ff
:101fa8004320696e697469616c697a656420737528
:101fb800636365737366756c6c79210d0a0000bfe5
:101fc80054657374696e67207265676973746572a6
:101fd8002077726974652f726561642e2e2e0d0a42
:101fe800000000bf577269746520746f2053616ddb
:101ff800706c6520526174652052656769737465f9
:10200800723a20535543434553530d0a000000bf0d
:10201800526561642066726f6d2053616d706c65e6
:1020280020526174652052656769737465723a203d
:102038003078253032580d0a000000bf52656164bf
:102048002066726f6d2053616d706c6520526174eb
:10205800652052656769737465723a204641494c38
:1020680045440d0a000000bf577269746520746ffb
:102078002053616d706c65205261746520526567ec
:1020880069737465723a204641494c45440d0a000b
:1020980054657374696e67206761696e20636f6e3b
:1020a80066696775726174696f6e2e2e2e0d0a004f
:1020b8004761696e20636f6e6669677572617469de
:1020c8006f6e3a20535543434553530d0a0000bfe2
:1020d8004761696e20636f6e6669677572617469be
:1020e8006f6e3a204641494c45440d0a000000bf36
:1020f80054657374696e67206e6f6e2d626c6f63c2
:102108006b696e672064656c61792028332073657c
:10211800636f6e6473292e2e2e0d0a0052656d6151
:10212800696e696e673a202564206d730d0a000098
:102138004e6f6e2d626c6f636b696e672064656ca1
:102148006179207465737420636f6d706c65746554
:1021580064210d0a000000bf434f44454320696ec7
:10216800697469616c697a6174696f6e2046414966
:102178004c454421204572726f7220636f64653a42
:102188002025640d0a0000bf3d3d3d20434f4445d6
:1021980043205465737420436f6d706c6574656477
:1021a800203d3d3d0d0a0d0a000000bf414443207b
:0c21b80056616c75653a2025640d0a0024
:020000040000fa
:1021c40080b592b000aff8600b467a60fb720023d2
:1021d400a7f84630002387f84530002387f83f30be
:1021e400002387f83e30002387f83d30002387f82a
:1021f4003c30fb7a03f00f0387f83b3097f90b3040
:10220400dbb2db09dbb287f83a307b687b63fb68bf
:10221400b3f1ff3f02d0fb68002b0fd10af000fca2
:102224000346022b06d90af0effb0346a9491846d8
:1022340008f0bafd832387f8453052e37b6b93f9aa
:102244000830022b0fdd0af0ebfb0346022b06d904
:102254000af0dafb0346a049184608f0a5fd8523d9
:1022640087f845303de397f83b30022b0fd90af04d
:10227400d7fb0346022b06d90af0c6fb034697494f
:10228400184608f091fd842387f8453029e3fb685c
:102294003b633b6b9b6afb6297f83b203b6b1232c0
:1022a40053f82230bb6297f83a30db00ba6a134421
:1022b400bb62bb6adb7903f00103002b03d18a23e1
:1022c40087f845300de37b6b5b68ba6a9288b3fb91
:1022d400f2f102fb01f29b1a7b627b6a002b07d0ae
:1022e40097f83a30002b03d1832387f84530f8e27e
:1022f4007b6a002b13d197f83a30002b0fd07b6bfd
:102304001b6903f00103002b09d07b6b5b68002b76
:1023140005d07b6b1b6943f080027b6b1a613b6bbe
:10232400db7883f00103dbb2002b45d03b6b123327
:10233400fb614ff0ff33bb61fb691b78012b04d1b8
:10234400fb6900221a70012300e00023012b24d131
:102354003b6bb3f90a30184609f04cfc034687f886
:102364003f303b6bb3f90c30184609f043fc03468d
:1023740087f83e303b6bb3f90e30184609f03afc4f
:10238400034687f83d303b6bb3f91030184609f02b
:1023940031fc034687f83c300ee00af041fb03466b
:1023a400022b06d90af030fb03464d49184608f0c3
:1023b400fbfc812387f8453097f94530002b40f02a
:1023c40090827b6b00229a617b6b03221a7297f8ce
:1023d4003a30012b04d17b6b5a687b6b1a6202e0a2
:1023e4007b6b00221a62bb6a1b68002b40f02882b8
:1023f4007b6b04221a727b6b0022da61bb6a7a6bf4
:102404001a6097f83b30002b40f0848197f83a30fb
:10241400002b40f018813b6b93f82530062b00f21b
:10242400218201a252f823f0692800004924000007
:1024340069280000e924000009260000692800003a
:10244400692800007b6b18683b6b5b6d082219469a
:102454000af074fafb6a402283f80421fb6a102212
:1024640083f80721fb6a102283f809217b6b1b6820
:1024740006331b787b847b6b1b681b785bb2dbb2f7
:10248400db09dbb287f821307b8c002b04d13b6b5a
:10249400072283f825200ce097f82130012b04d182
:1024a4003b6b062283f8252003e03b6b022283f872
:1024b40025207b6b9a69bb6a1a607b6b02221a72b5
:1024c4007b6bdb68002b00f0cf817b6bdb68786b68
:1024d4009847c9e1340a0000840a0000e40a0000b5
:1024e400440b00003b6b9b6d9bb2c3f30d03a7f839
:1024f40046307b6b1a6ab7f846301a447b6b5b68cc
:102504009a4208d97b6b5b689ab27b6b1b6a9bb25d
:10251400d31aa7f846307b6b1a687b6b1b6ad018fa
:102524003b6b5b6d1946b7f846301a460af006fa5b
:102534007b6b1a6ab7f846301a447b6b1a627b6b62
:102544001a6a7b6b5b689a4224d37b6b00221a72f3
:102554003b6b082283f82520fb6a012283f80721bc
:10256400fb6a012283f80921fb6a402283f80421d3
:102574007b6b1a6a7b6b5a607b6b9a69bb6a1a60c5
:102584007b6bdb68002b00f071817b6bdb68786b05
:1025940098476be1bb6a9b88b7f846209a4224d2dd
:1025a4007b6b01221a723b6b082283f82520fb6a9d
:1025b400012283f80721fb6a012283f80921fb6abf
:1025c400402283f804217b6b1a6a7b6b5a607b6b15
:1025d4009a69bb6a1a607b6bdb68002b00f046814a
:1025e4007b6bdb68786b984740e1fb6a012283f8d8
:1025f4000721fb6a012283f80921fb6a402283f840
:10260400042133e13b6b002283f825207b6b0022fd
:102614001a72fb6a012283f80721fb6a012283f8fc
:102624000921fb6a402283f804217b6b9a69bb6a07
:102634001a607b6bdb68002b00f01a817b6bdb6814
:10264400786b984714e13b6b93f82530062b02d046
:10265400072b46d00de17b6b1b6aba6a92889342c2
:1026640004d27b6b1b6aa7f8463003e0bb6a9b88e5
:10267400a7f84630b7f84630002b09d03b6b5b6ea9
:1026840018467b6b1b68b7f8462019460af056f9c2
:102694007b6b1a6ab7f84630d21a7b6b1a623b6bb3
:1026a400092283f825203b6b9b6e23f47f5323f090
:1026b4003f033a6b93663b6b9a6eb7f84630c3f3ad
:1026c4000d031a433b6b9a66fb6a022283f80721c7
:1026d400fb6a022283f80921fb6a802283f8052120
:1026e400c7e03b6b082283f825203b6b9b6e23f4e9
:1026f4007f5323f03f033a6b9366fb6a022283f80d
:102704000721fb6a022283f80921fb6a802283f8ed
:102714000521aee097f83a30012b6bd17b6b1b6a35
:10272400ba6a9288934204d87b6b1b6aa7f8463036
:1027340003e0bb6a9b88a7f846307b6b1a687b6b07
:1027440059687b6b1b6acb1a1a4497f83b301146c5
:102754003a6b03335b011344043319607b6b1a6acd
:10276400b7f84630d21a7b6b1a6297f83b303a6b53
:1027740003335b01134408331b6897f83b2023f4ad
:102784007f5323f03f03396b033252010a4408326a
:10279400136097f83b303a6b03335b0113440833ff
:1027a4001968b7f84630c3f30d0297f83b300a4373
:1027b400396b03335b010b4408331a6097f83b30e1
:1027c400fa6a08335b01134407330a221a7097f834
:1027d4003b30fa6a5b01134403f209130a221a70ac
:1027e40097f83b30fa6a08335b01134405338022bf
:1027f4001a703ee07b6b1a6897f83b3011463a6bcf
:102804005b0113445433196097f83b30fa6a083378
:102814005b011344073305221a7097f83b30fa6ab8
:102824005b01134403f2091305221a7097f83b3035
:10283400fa6a08335b011344043340221a7018e027
:10284400bb6a1b683b6402e03b6c9b693b643b6c6a
:102854009b69002bf8d13b6c7a6b9a617b6b3a6c69
:10286400da6106e000bf04e000bf02e000bf00e060
:1028740000bf3b6bdb7883f00103dbb2002b30d06d
:1028840097f83f30002b05d03b6bb3f90a3018465c
:1028940009f0f2fa97f83e30002b05d03b6bb3f900
:1028a4000c30184609f0e8fa97f83d30002b05d0b3
:1028b4003b6bb3f90e30184609f0defa97f83c305a
:1028c400002b05d03b6bb3f91030184609f0d4fa4d
:1028d4003b6b12337b617b69002b02d07b69012245
:1028e4001a7097f9453018464837bd4680bd00bf79
:020000040000fa
:1028f4000d0a4452562055534220555342465356ce
:10290400313a20496e76616c696420447269766557
:1029140072204d6f64756c6520496e64657820691a
:102924006e204452565f555342465356315f496eaa
:10293400697469616c697a6528292e000d0a44520c
:10294400562055534220555342465356313a20445b
:10295400726976657220697320616c72656164794d
:1029640020696e697469616c697a656420696e2096
:102974004452565f555342465356315f496e69740b
:1029840069616c697a6528292e0000bf0d0a4452da
:10299400562055534220555342465356313a204d02
:1029a4007574657820637265617465206661696c0d
:1029b400656420696e204452565f5553424653560f
:1029c400315f496e697469616c697a6528292e00e2
:1029d4000d0a4452562055534220555342465356ed
:1029e400313a20447269766572206e6f742079657d
:1029f4007420696e697469616c697a656420696eb2
:102a0400204452565f555342465356315f546173c6
:102a14006b7328292e0000bf0d0a555342205553cd
:102a24004246535631204472697665723a20496ea3
:102a340076616c6964206f626a65637420696e20d4
:102a44004452565f555342465356315f4465696e4e
:102a5400697469616c697a65282900000d0a555307
:102a6400422055534246535631204472697665726a
:102a74003a20447269766572206e6f7420696e69bb
:102a84007469616c697a656420696e204452565f8a
:102a9400555342465356315f4465696e69746961a2
:102aa4006c697a65282900000d0a55534220555354
:102ab4004246535631204472697665723a20426127
:102ac400642044726976657220496e646578206971
:102ad4006e204452565f555342465356315f4f70f1
:102ae400656e28292e0000bf0d0a55534220555308
:102af4004246535631204472697665723a204472d4
:102b04006976657220737461747573206e6f7420b6
:102b1400726561647920696e204452565f55534250
:102b2400465356315f4f70656e28292e000000bf52
:102b34000d0a555342205553424653563120447290
:102b4400697665723a20556e737570706f7274652c
:102b54006420494f20496e74656e7420696e204468
:102b640052565f555342465356315f4f70656e2837
:102b7400292e00000d0a5553422055534246535600
:102b840031204472697665723a20447269766572be
:102b94002063616e206265206f70656e6564206fce
:102ba4006e6c79206f6e63652e204d756c74697040
:102bb4006c652063616c6c7320746f204452565fa3
:102bc400555342465356315f4f70656e28292e0087
:102bd4000d0a5553422055534246535631204472f0
:102be400697665723a2053797374656d204d6f640c
:102bf400756c65204f626a65637420697320696e21
:102c040076616c696420696e204452565f55534264
:102c1400465356315f53746174757328292e00002e
:102c24000d0a55534220555342465356312044729f
:102c3400697665723a20496e76616c6964206472c3
:102c4400697665722068616e646c6520696e2044e3
:102c540052565f555342465356315f436c6f73650a
:102c640028292e000d0a55534220555342465356e7
:102c740031204472697665723a20447269766572cd
:102c84002068616e646c65206e6f74206f70656e71
:102c9400656420696e204452565f5553424653562c
:102ca400315f436c6f736528292e00000d0a55535c
:102cb4004220555342465356312044726976657218
:102cc4003a20496e76616c6964206f626a65637448
:102cd40020696e204452565f555342465356315f25
:102ce4005461736b735f4953522829000d0a55537d
:102cf40042205553424653563120447269766572d8
:102d04003a20496e76616c69642053797374656df9
:102d14002053746174757320696e204452565f5554
:102d24005342465356315f5461736b735f49535238
:102d3400282900000d0a5553424653563120447247
:102d4400697665723a2057686174206d6f646520f6
:102d540061726520796f7520747279696e673f00be
:102d64000d0a55534220555342465356312044725e
:102d7400697665723a20496e76616c696420636c89
:102d840069656e742068616e646c6520696e2044a8
:102d940052565f555342465356315f436c69656ed4
:102da400744576656e7443616c6c4261636b536504
:082db4007428292e000000bf65
:020000040000fa
:042dbc00020103000d
:020000040000fa
:102dc0002de9f04f2ded028bd2e9008997b0cde9c6
:102dd0000c138b6808930b690f90d1e900b614931c
:102de000cd68002200234046494609f06bf940b9fe
:102df0001bf0040f32d11bf00803059330d02023c1
:102e000003e089f0004399462d232b70089b03f1c2
:102e1000ff3a012305934c4929f0004300208b42df
:102e200008bf80451fd10d9b413b192b059b94bfcb
:102e3000464947492b44184609f0c8fe284609f080
:102e4000fdfdcdf800b00246089b0f98294607f01b
:102e5000d7fa17b0bdec028bbde8f08f2b23d4e777
:102e6000ddf820a0d7e7994208bf404509d20d9b65
:102e7000413b192b059b94bf364937492b441846d3
:102e8000dae7002200234046494609f0eaf99fedbf
:102e90002c7b8ded027b48b300240d9809f06ffe6a
:102ea000002ec3b20993c0f2d781672b5ad1002eee
:102eb00008bf0126231d02dbb442c0f2c68165278c
:102ec00061e09ded067b8ded027b01340022234bfa
:102ed000dde9020104f0e6ff42464b46cde906017a
:102ee00009f0d4f80028ecd000271fe00446ede7f5
:102ef00014f5967f11da87b90022194b40464946ee
:102f000004f0d0ff002280468946154bdde902011e
:102f100004f0c8ffcde902010127dde9020100222a
:102f20000e4b02f0f9fecde90201013cdde902237e
:102f30004046494609f0c6f80028d9d1ade700bfa0
:102f4000000000000000f03f0000f07f28cb0000f0
:102f50002ccb000030cb000034cb0000000024401c
:102f600000005043099f662f06f101060bd1002c8b
:102f700004da9fedbd7b8ded027b0024099b672b5e
:102f800018bf361966279ded027bcde906898dedc8
:102f90000a7b00230e93dde90a23dde9060102f036
:102fa000bbfe41ec100b06f043f951ec100bb0eef8
:102fb000408af0ee608a08f025fdb0ee480af0ee97
:102fc000680a069b1093079b159083f000431193aa
:102fd0009ded0a1b9ded102b09f036fb53ec102bd9
:102fe00083f000430793dde90a01a34b8ded060a48
:102ff000002202f091fe0e9b01339e42cde90a01b0
:103000000e93c8d100229d4b04f04cffcde90a017c
:1030100002460b46dde9060109f054f8002840f0ad
:103020008180dde90a23dde9060109f01af910b112
:10303000159bda0776d5dde90a234046494602f0ba
:1030400007fa0022cde906018b4bdde9020104f00d
:1030500029ffdde90623cde90a0108f0a5ff0028d4
:1030600065d0662f04f1010465d10136a146a9ebb4
:1030700006034ff00008059e1093cdf80880109bc2
:10308000994540f08180029b002b00f0c880a81970
:103090000022652f027029d1149b1499013b9442a0
:1030a000ea54c1f1030ebcbf644201220a21002c84
:1030b00040f0bc800eeb030cbcf1000f00f3b680b7
:1030c000002a03f1ff3114bf2d222b226a540d9ade
:1030d000023b413a192a05eb030198bf45279e425e
:1030e0000f70aaf1020a01da09f070fd0bf0030378
:1030f000022b7ff4a3aebaf1000f7ff79fae2846f4
:1031000009f09cfc05eb0a03059a824240f3998082
:10311000059b2b4418465246302109f0cffc002372
:1031200008938be69fed527b8ded0a7b83e79ded47
:10313000027b8ded0a7b652f14bfa1464ff000097d
:1031400095e7029a52b9b9f1000f07da0e992e22cb
:103150006a54012201360af1ff3a029205eb080196
:10316000aa193144302001e002f8010b9142fbd151
:1031700008eb06023033aaeb080808f1ff3a561ca8
:10318000ab544ff0000828e00c9b0e961b69053be2
:10319000b3427ff678afdde90a23dde9060102f0ec
:1031a000bbfd41ec100b06f043f851ec100bb0eef8
:1031b000408af0ee608a08f025fc0bf01002092826
:1031c0000346a8bf09230243bbd1099a672ab8d195
:1031d000b9f1000fc2da08f10108069b1293079bb0
:1031e000b0ee480af0ee680a83f0004313939dedb9
:1031f0000a1b9ded122b09f027fa53ec102b83f0dc
:1032000000430793dde90a0100221b4b8ded060afe
:1032100002f082fd09f1ff39cde90a012fe71bf029
:10322000100f1ebf2e23ab55013630e7b4fbf1fc67
:10323000013b01fb1c443034ec540af1ff3a644674
:1032400035e72a5c1a5401385ee7002cbff69aaec7
:10325000662788e606262de6099b672bfad01f46cf
:10326000062680e6aff30080000000000000f03f7b
:103270000000000000000000000024400000144096
:020000040000fa
:103280002de9f04f95b0cde912030b68089392ed4c
:10329000007b4b680a938b6809930b690d93cc688c
:1032a0000022002351ec170b8ded047b08f00aff80
:1032b00040b9089b580734d4089b13f0080732d054
:1032c000202306e0dde9042181f00043cde9042359
:1032d0002d232370099b01275a1edde90403dff823
:1032e000f8b223f000414ff0000a594508bf50459d
:1032f0001bd1139b413b192b04eb070094bfb04932
:10330000b04909f063fcaf4809f098fb089b0093b3
:103310000246099b1298214607f072f815b0bde8e5
:10332000f08f2b23d5e7099ad7e7139b8b45a3f1a1
:10333000410308bf82450b9309d2192b04eb070008
:1033400094bfa149a14909f041fca048dce7302124
:10335000e1550b997b1c1a2934bf58217821e1547f
:10336000931e079300220023dde90401023708f0d1
:1033700078ff002800f07b819fed8f7b8ded027b35
:1033800000250a9bdde90289002bdde904abb8bf0b
:1033900018230e93002642464b465046594602f0eb
:1033a000bbfc41ec100b05f043ff42464b4651ec91
:1033b000100b8ded100b04f075fd02460b465046c8
:1033c000594609f011fc824b82468b4640464946dd
:1033d000002204f067fd731c0c930a9b002b8046af
:1033e000894606da002200235046594608f039ff84
:1033f00028b90e9bb34200f3408101330c930022a5
:10340000744b4046494604f04dfd804689460246cd
:103410000b465046594608f055fe002840f02f81d3
:1034200042464b465046594608f01bff30b1dde995
:10343000100108f0e7fac10740f1218142464b46ee
:10344000dde9040102f004f8cde90401dde904211d
:1034500021f00043604900208b4208bf82423ff4c4
:1034600048af4ff000083e46c246c1460d9b053ba3
:10347000b342b34633d9dde90223dde9040102f0aa
:103480004bfc41ec100b05f0d3fe51ec100b8ded15
:103490000e0b08f0b7fa002840f0f680b9f1000fe3
:1034a00000f0f28008f10108dde90223dde90e01f8
:1034b00004f0f8fc02460b46dde9040109f094fb38
:1034c000434bcde904010022dde9020104f0eafcee
:1034d0000c9b09f101094b45cde90201c6d1baf1b6
:1034e000000f1ed1b8f1000f00f015810a9b002bd0
:1034f00040f31181089bda0700f10d81a3192e22f8
:103500001a7008eb06022244302100bf03f8011fa5
:103510009a42fbd1079b46446fea080843440136b0
:1035200007930d9b0d990022a019013b9542027053
:10353000b8bf6d42e254c1f1020eb8bf01224ff094
:103540000a08002d40f0d7800eeb030cbcf1010ff0
:1035500000f0d180002a03f1ff3114bf2d222b226d
:1035600062540b9a023b1a2a04eb030134bf502227
:1035700070229e420a7001da09f028fb089b03f0d2
:103580000303022b14d1079ba3f10208b8f1000f2b
:103590000edd204609f052fa04eb0803b84280f22f
:1035a000b68042463021e01909f088fa00230993d9
:1035b0002046a9e6aff30080000000000000f03fc5
:1035c00018cb00001ccb000020cb000024cb000057
:1035d0000000b03f000020400000f07fcde90289ec
:1035e0000135dde902231046194601f031ff80461e
:1035f000894602460b46dde9040108f063fd002818
:10360000ecd0dff82cb1dff82c914ff0000a4ff02e
:103610000008dde90223dde9040108f053fd00287c
:103620003ff4afae52465b46dde9020104f03afcde
:103630000022002308f015fe78b142464b46dde932
:10364000020104f02ffc4246cde902014b46dde9c0
:10365000040104f027fccde90401dde90201524632
:103660005b4604f01ffc013dcde90201d1e79fed6f
:103670002e7b05468ded027bb3e70c9e8be64ff06b
:1036800000084ff00009d9e6baf1000f0bd1b9f1eb
:10369000000f08d02e2304f80b30079b013b0136a6
:1036a00007934ff0010a04eb0803a21933443021b9
:1036b00002e000bf02f8011b9a42fbd1079b06eb18
:1036c000080ba3eb08080b9b0928d4bf30305730f8
:1036d000192b06d840f02003613b192b01d809f0c3
:1036e00055fa08f1ff330bf1010604f80b000793bc
:1036f0004ff00008d8e60799b5fbf8fc013b08fb42
:103700001c5530350139e5540791654619e7225caf
:103710001a54013842e7089bdb067ff502af2e23df
:10372000a3550136fde600bf000000000000f03f99
:083730000000e03f00005043df
:020000040000fa
:103738000d0a55534220446576696365204c6179ca
:1037480065723a20496e76616c696420696e73749b
:10375800616e6365496e6465782076616c75650095
:103768000d0a55534220446576696365204c61799a
:1037780065723a20496e697469616c697a61746925
:103788006f6e2064617461206973204e554c4c0043
:103798000d0a55534220446576696365204c61796a
:1037a80065723a20555342204d6173746572204406
:1037b800657363726970746f72207461626c6520de
:1037c8006973204e554c4c000d0a555342204465f0
:1037d80076696365204c617965723a20496e766135
:1037e8006c69642068616e646c6500000d0a55534d
:1037f8004220446576696365204c617965723a2098
:10380800496e76616c69642053797374656d204dd7
:103818006f64756c65204f626a656374000000bf51
:103828000d0a55534220446576696365204c6179d9
:1038380065723a2053797374656d204d6f64756ca9
:1038480065204f626a65637420697320696e7661ca
:103858006c6964000d0a55534220446576696365b6
:10386800204c617965723a20696e7374616e636584
:10387800496e64657820697320696e76616c696445
:10388800000000bf0d0a5553422044657669636500
:10389800204c617965723a20446576696365204ced
:1038a80061796572206973206e6f74207265616436
:1038b8007920746f206265206f70656e6564000002
:1038c8000d0a55534220446576696365204c617939
:1038d80065723a204e6f206672656520636c696573
:1038e8006e74206f626a6563747300000d0a555325
:1038f8004220446576696365204c617965723a2097
:10390800496e76616c696420636c69656e742068c1
:10391800616e646c650000bf0d0a55534220446512
:1039280076696365204c617965723a20496e7661e3
:103938006c69642048616e646c6500000d0a55531b
:103948004220446576696365204c617965723a2046
:10395800496e76616c696420436c69656e742048b1
:10396800616e646c650000bf0d0a555342204465c2
:1039780076696365204c617965723a20496e766193
:103988006c69642075736244657669636548616e25
:10399800646c65000d0a5553422044657669636579
:1039a800204c6179657220436c69656e74204861aa
:1039b8006e646c6520697320696e76616c69640059
:1039c8000d0a55534220446576696365204c617938
:1039d80065723a20436f6e74726f6c207472616ef8
:1039e800736665722048616e646c65722069732025
:1039f8004e554c4c000000bf0d0a555342204465fb
:103a080076696365204c617965723a20556e6b6ef4
:103a18006f776e20436f6e74726f6c205472616e94
:103a2800736665722072656365697665642066727f
:103a38006f6d20486f7374000d0a5553422044651a
:103a480076696365204c617965723a2048696768d0
:103a580020737065656420646576696365206465b4
:103a68007363726970746f72206973204e554c4c81
:103a7800000000bf0d0a555342204465766963650e
:103a8800204c617965723a2046756c6c2f4c6f77c3
:103a98002073706565642064657669636520646574
:103aa8007363726970746f72206973204e554c4c41
:103ab800000000bf0d0a55534220446576696365ce
:103ac800204c617965723a20496e76616c69642090
:103ad800706f696e74657220746f20636f6e6669ab
:103ae8006775726174696f6e20646573637269705b
:103af800746f72000d0a55534220446576696365f8
:103b0800204c617965723a204d757465782043724e
:103b180065617465204661696c6564000d0a5553da
:103b28004220446576696365204c617965723a2064
:103b38004d757465782044656c65746520466169c7
:043b48006c65640044
:020000040000fa
:103b4c0080b58cb000af78600b46fb70002387f813
:103b5c002e30002387f82d30002387f82c300023db
:103b6c0087f82b30002387f82a30fb7803f00f03fb
:103b7c0087f8293097f90330dbb2db09dbb287f821
:103b8c00283097f82930022b12d9fb78102b0fd044
:103b9c0008f042ff0346022b06d908f031ff03461a
:103bac008a49184607f0fcf8842387f82e3086e102
:103bbc007b68b3f1ff3f0fd108f02eff0346022bb9
:103bcc0006d908f01dff03468149184607f0e8f8ae
:103bdc00832387f82e3072e17b687b627b6a9b6a59
:103bec003b627b6adb7883f00103dbb2002b45d0b0
:103bfc007b6a12337b614ff0ff333b617b691b782f
:103c0c00012b04d17b6900221a70012300e00023f0
:103c1c00012b24d17b6ab3f90a30184607f0e6ff72
:103c2c00034687f82d307b6ab3f90c30184607f041
:103c3c00ddff034687f82c307b6ab3f90e3018464b
:103c4c0007f0d4ff034687f82b307b6ab3f91030aa
:103c5c00184607f0cbff034687f82a300ee008f031
:103c6c00dbfe0346022b06d908f0cafe034659496f
:103c7c00184607f095f8812387f82e3097f92e30e7
:103c8c00002b40f01c81fb78102b4bd13b6a10228f
:103c9c0083f808213b6a102283f80721002387f858
:103cac002f303ae097f82f303a6a08335b0113440f
:103cbc0000221a7097f82f303a6a5b01134403f50f
:103ccc0084737f221a7097f82f303a6a08335b019d
:103cdc00134407337f221a7097f82f207b6a123215
:103cec0053f82230fb61fb69db7923f00103bb61e4
:103cfc00bb69dab2fb69da71fb690833fb61fb69fa
:103d0c00db7923f00103bb61bb69dab2fb69da71c1
:103d1c0097f82f30013387f82f3097f82f30022b7c
:103d2c00c0d994e097f82930002b24d13b6a7f222c
:103d3c0083f808213b6a7f2283f807213b6a002223
:103d4c0083f800217b6a9b6cfb61fb69db7923f0b8
:103d5c000103bb61bb69dab2fb69da71fb69083339
:103d6c00fb61fb69db7923f00103bb61bb69dab250
:103d7c00fb69da716be097f82830002b2cd197f89f
:103d8c0029303a6a08335b0113441b78dab297f88e
:103d9c00293022f00702d1b23a6a08335b0113448e
:103dac000a461a7097f829303a6a08335b011344b3
:103dbc00073305221a7097f829303a6a5b011344cd
:103dcc0003f5847305221a702be000bf2006000057
:103ddc007c060000dc06000097f829303a6a0833ac
:103dec005b0113441b78dab297f8293022f0700289
:103dfc00d1b23a6a08335b0113440a461a7097f839
:103e0c0029303a6a08335b01134407330a221a70cb
:103e1c0097f829303a6a5b01134403f584730a223c
:103e2c001a7097f829207b6a123253f82230fb6102
:103e3c0097f82830db00fa691344fb61fb69db79e6
:103e4c0023f00103bb61bb69dab2fb69da717b6aef
:103e5c00db7883f00103dbb2002b30d097f82d30e8
:103e6c00002b05d07b6ab3f90a30184608f000f82d
:103e7c0097f82c30002b05d07b6ab3f90c30184620
:103e8c0007f0f6ff97f82b30002b05d07b6ab3f9bf
:103e9c000e30184607f0ecff97f82a30002b05d0af
:103eac007b6ab3f91030184607f0e2ff7b6a1233d5
:103ebc00fb60fb68002b02d0fb6801221a7097f99b
:0c3ecc002e3018463037bd4680bd00bfc8
:020000040000fa
:103ed8002de9f041aeb00646154605910027059933
:103ee8000b78002b00f0fa8000244ff0ff33cde967
:103ef80009430eab0c9380230b940d930b5d0bb110
:103f0800252b26d134b12246304608f03dfc059bce
:103f180023440593059b1a78252a40f0d78003f19e
:103f28000108cdf81480059803782b2b1ad025d8d2
:103f3800202b1bd0232b1dd02a2b27d007f0f0fdd8
:103f48000b90059b1a78303a092a2ed8013305932d
:103f5800f7e70134d2e7099b43f0010301300993e5
:103f68000590e0e7099b43f00403f7e7099b43f05a
:103f78000803f3e7099b43f01003efe72d2bead082
:103f8800302bd9d1099b43f00203e7e72b681a1db0
:103f98001b682a600130002b05900b9305da099afb
:103fa8005b4282f0010209920b93099bda0744bf36
:103fb80023f002030993059b1a782e2a0dd10022bb
:103fc800581c0a9205905a782a2a25d1023305935b
:103fd8002b681a1d1b682a600a9305a807f0c2ff00
:103fe800059b0390187808f0c6fd6928039979d0d5
:103ff80032dc632800f0cb8019dc252800f0d9805a
:10400800612853d000234ff0ff32cdf81480099374
:104018000b930a920093d4e007f082fd0a90059b67
:104028001a78303a092ad8d801330593f7e7642873
:1040380058d06728e6dc2a4606a808f02cfb00289a
:1040480000f0a180059b5a1c05921b7806aa09a9b5
:104058003046fef7b1fe38e0702873d015dc6e28c4
:1040680000f08c806f28cdd12b46002206a805f0e1
:1040780029fc002800f08780059b06aa013309a9be
:104088003046059306f0d6fc1fe075283ad078280c
:1040980048d07328b6d1802975d1059b2a68013389
:1040a8000593131d2b60126800237de02a4606a89d
:1040b80008f0f1fa002866d0059b5a1c05921b7877
:1040c80006aa09a93046fff7d7f804443c44a7429a
:1040d8007add3e4b4f221a604ff0ff3738462eb03c
:1040e800bde8f0812b46012206a805f0ebfb00286d
:1040f80049d0059b06aa013309a93046059305f066
:1041080037fce2e72b46002206a805f0dbfb002877
:1041180039d0059b06aa013309a93046059307f053
:1041280084fad2e72b46002206a805f0cbfb50b351
:10413800059b5a1c05921b7806aa09a9304603f06c
:10414800d9ffc2e72b460022f02106a805f0bafbea
:10415800c8b1059b01330593dde9062313430bd151
:104168001b4808f067fc099b009319490b9b024602
:10417800304606f041f9a8e77823dde72b463a19df
:1041880006a806f0b5fa059b013305939ee780293a
:10419800f9d1059b013305932b681a1d1b682a600a
:1041a8008df8183006aa012309a9304607f0e6f968
:1041b8008be78029e7d1059b01330593099b009381
:1041c8000b9b04490122d3e7274688e6300d0020df
:0841d800e0cb0000e6cb000083
:020000040000fa
:1041e00080b588b000af7860084611461a4603468d
:1041f000fb700b46bb7013463b800823fb830023f8
:104200007b7700233b77fb7803f00f03fb7697f96e
:104210000330dbb2db09dbb2bb76fb7e022b0ed9af
:1042200008f000fc0346022b06d908f0effb03461a
:10423000a049184606f0bafd84233b7734e13b8859
:10424000072b03d93b88b3f5806f02d984233b77d2
:104250002ae17b68b3f1ff3f0ed108f0e3fb034690
:10426000022b06d908f0d2fb03469349184606f004
:104270009dfd83233b7717e17b687b617b699b6aac
:104280003b6105e07b7f01337b77fb8b5b00fb832e
:10429000fa8b3b889a42f5d3fa7e7b69123253f847
:1042a0002230fb60bb78002b4fd13b88002219469f
:1042b000f86807f0e5fcfb680833fb603b880022e8
:1042c0001946f86807f0dcfc3b69002283f80021fe
:1042d0003b69112283f800217b699b6d23f0e0424a
:1042e0007b699a657b699b6e23f0e0427b699a66e5
:1042f0007b699a6d7b7f1b0703f0e0431a437b6960
:104300009a657b699a6e7b7f1b0703f0e0431a4333
:104310007b699a667b695b691a467b695a657b692a
:104320009b691a467b695a667b699b6d23f0004244
:104330007b699a657b699b6e23f000427b699a6674
:104340003b69132283f80921aee0bb7edb00fa68eb
:104350001344fb60ba783b881946f86807f090fc74
:10436000bb7e012b2ed1fb7e3a6908335b011344df
:104370001b78dab2fb7e22f07002d1b23a690833c0
:104380005b0113440a461a70fb7e3a6908335b01ed
:1043900013441b78d9b2bb78484a5b0013445a785f
:1043a000fb7e0a43d1b23a6908335b0113440a46e3
:1043b0001a70fb7e3a6908335b0113440433802290
:1043c0001a702ce0fb7e3a6908335b0113441b78ba
:1043d000dab2fb7e22f00702d1b23a6908335b0100
:1043e00013440a461a70fb7e3a6908335b01134492
:1043f0001b78d9b2bb78314a12f81320fb7e0a43ee
:10440000d1b23a6908335b0113440a461a70fb7e45
:104410003a6908335b011344053340221a70f97e70
:10442000bb7e7a6949000b4405331b0113440833f2
:104430001a68f87ebb7e22f0e042796940000344ae
:1044400005331b010b4408331a60f97ebb7e7a6981
:1044500049000b4405331b011344083319687b7f63
:104460001b0703f0e042f87ebb7e0a4379694000f7
:10447000034405331b010b4408331a60f97ebb7eed
:104480007a6949000b4405331b01134408331a6849
:10449000f87ebb7e22f00042796940000344053378
:1044a0001b010b4408331a6097f91c30184620375b
:1044b000bd4680bd64050000c0050000d8cb0000eb
:020000040000fa
:1044c00080b58cb000af78600b46fb70002387f896
:1044d0002f30002387f82e30002387f82d3000235b
:1044e00087f82c30002387f82b30fb7803f00f037c
:1044f00087f82a3097f90330dbb2db09dbb287f8a3
:10450000293097f82a30022b0fd908f08bfa03468e
:10451000022b06d908f07afa03469949184606f0a4
:1045200045fc842387f82f3024e17b68b3f1ff3ffb
:104530000fd108f077fa0346022b06d908f066fa85
:1045400003469049184606f031fc832387f82f3044
:1045500010e17b687b627b6a9b6a3b6297f82a204a
:104560007b6a123253f82230fb617b6adb7883f07e
:104570000103dbb2002b45d07b6a12337b614ff025
:10458000ff333b617b691b78012b04d17b690022df
:104590001a70012300e00023012b24d17b6ab3f9b8
:1045a0000a30184607f028fb034687f82e307b6a4e
:1045b000b3f90c30184607f01ffb034687f82d307f
:1045c0007b6ab3f90e30184607f016fb034687f8ee
:1045d0002c307b6ab3f91030184607f00dfb034608
:1045e00087f82b300ee008f01dfa0346022b06d99f
:1045f00008f00cfa03466449184606f0d7fb8123fd
:1046000087f82f3097f92f30002b40f0b38097f8c0
:104610002a30002b27d13b6af72283f804213b6a1a
:104620007f2283f80721fb69db7923f00203bb615a
:10463000bb69dab2fb69da716ff00301f86906f061
:10464000cdfffb690833fb61fb69db7923f00203d3
:10465000bb61bb69dab2fb69da716ff00301f8691b
:1046600006f0bcff4ee097f82930db00fa691344ee
:10467000fb61fb69db7923f00203bb61bb69dab242
:10468000fb69da716ff00301f86906f0a7ff97f88c
:104690002930012b1bd197f82a303a6a08335b0185
:1046a0001344043320221a7097f82a303a6a0833e8
:1046b0005b011344073340221a7097f82a303a6a94
:1046c00008335b011344043302221a701ae097f88e
:1046d0002a303a6a08335b011344043310221a70fb
:1046e00097f82a303a6a08335b01134407332022d3
:1046f0001a7097f82a303a6a08335b01134404337e
:1047000001221a707b6adb7883f00103dbb2002b95
:1047100030d097f82e30002b05d07b6ab3f90a30e1
:10472000184607f0abfb97f82d30002b05d07b6abd
:10473000b3f90c30184607f0a1fb97f82c30002b8a
:1047400005d07b6ab3f90e30184607f097fb97f84f
:104750002b30002b05d07b6ab3f91030184607f0d8
:104760008dfb7b6a1233fb60fb68002b02d0fb6879
:1047700001221a7097f92f3018463037bd4680bd98
:0c4780000c0900006c090000b4080000e7
:020000040000fa
:10478c002de9f04f099f154604468e461e46002b18
:10479c0040f0cc808a42b2fa82fc4cd9bcf1000fba
:1047ac000bd0ccf1200801fa0cfe20fa08f802fa22
:1047bc000cf548ea0e0e00fa0cf44fea15491ffaf4
:1047cc0085f8befbf9fa210c09fb1ae30afb08fb7e
:1047dc0041ea03439b452ad9eb180af1ff3004d276
:1047ec009b4502d9aaf102002b44a3eb0b03a4b204
:1047fc00b3fbf9f209fb123302fb08f844ea034459
:10480c00a04516d92c1902f1ff3303d2a04501d9ca
:10481c00931e2c44a4eb080443ea004027b124fa6d
:10482c000cf400233c607b603146bde8f08f5046b1
:10483c00dbe71346eee702b9ffdebcf1000f2ed129
:10484c008b1a01264fea154eaab2b3fbfef8210cc7
:10485c000efb183308fb02f941ea0343994561d971
:10486c00eb1808f1ff3004d2994502d9a8f10200e7
:10487c002b44a3eb0903a4b2b3fbfef10efb1133e3
:10488c004a4344ea0344a2424ed92c1901f1ff33a6
:10489c0003d2a24201d98b1e2c44a41abce7ccf142
:1048ac00200e02fa0cf521fa0ef901fa0cf320fa9b
:1048bc000efe4eea03034fea154800fa0cf4b9fb5e
:1048cc00f8f11ffa85fe08fb1192180c01fb0ef68d
:1048dc0040ea0242964221d9aa1801f1ff3003d2d4
:1048ec00964201d9881e2a44921b9bb2b2fbf8f95e
:1048fc0008fb192209fb0efe43ea02439e450fd921
:10490c00eb1809f1ff3604d29e4502d9a9f1020633
:10491c002b44a3eb0e0346ea004693e70846e3e775
:10492c004e46f6e74046a4e70b46b6e78b4206d95f
:10493c00002f7ed00026c7e90001304674e7b3fa99
:10494c0083fcbcf1000f0fd18b4201d3824209d8fa
:10495c00841a61eb030e0120002f6dd0c7e9004ec5
:10496c00002661e76046f7e7ccf1200e03fa0cf362
:10497c0022fa0ef521fa0ef41d4301fa0cf320fa7b
:10498c000ef10b434fea154a00fa0cf6b4fbfaf998
:10499c001ffa85f80afb19401c0c09fb08f144eac4
:1049ac000044a14202fa0cf23fd92c1909f1ff3054
:1049bc0004d2a14202d9a9f102002c44641a9bb280
:1049cc00b4fbfaf90afb194409fb08f843ea044161
:1049dc0088452cd9691809f1ff3304d2884502d9ce
:1049ec00a9f10203294443ea0040a1eb0801a0fb12
:1049fc0002894945c2464c4602d306d1464504d2eb
:104a0c00b8eb020a69eb05040138afb1b6eb0a0347
:104a1c0061eb040606fa0efe23fa0cf34eea0303ce
:104a2c0026fa0cf6c7e900369ae74846c6e74b4625
:0c4a3c00d9e73e463846f7e63e46f5e670
:020000040000fa
:104a480080b58ab000af03463960fb800023bb61a4
:104a580000237b614ff0ff337b62fb88002b0dd076
:104a680007f0dcff0346022b40f2378107f0caff4c
:104a780003469c49184606f095f92ee1fb889a4aa8
:104a88004ff49c7101fb03f313441b78002b0dd0ea
:104a980007f0c4ff0346022b40f21f8107f0b2ff64
:104aa80003469249184606f07df916e13b687b619a
:104ab800fb884ff49c7202fb03f38b4a1344bb61df
:104ac800bb6912333b613b69002b01d1002303e032
:104ad8003b6901221a700123012b40f0f280bb6967
:104ae80001221a70bb69012283f824207b695a6865
:104af800bb699a627b69da7cbb695a72bb6900221e
:104b08005a70bb690022da63bb6900221a717b699b
:104b1800b3f90a20bb695a817b69b3f90c20bb69d8
:104b28009a817b69b3f90e20bb69da817b69b3f995
:104b38001020bb691a82bb690022da70bb699b6ac4
:104b480001221a7000bfbb699b6a9b78dbb203f035
:104b58000103002bf7d1bb699b6a0a22da70644b08
:104b68001b68fb60fb689bb203f01f03fb83fb8b96
:104b78001f2b01d10523fb83bb699b6a1b8d9bb24d
:104b88001ab2fb8b9b011bb203f4f8631bb21343ed
:104b98001ab2bb699b6a92b21a85fb685b099bb221
:104ba80003f01f03fb83fb8b1f2b01d11d23fb830a
:104bb800bb699b6a1b8d9bb21ab2b7f91e3003f012
:104bc8001f031bb213431ab2bb699b6a92b21a85c0
:104bd800fb689b0a9bb203f00703fb83fb8b072b45
:104be80001d10323fb83bb699b6a1b8d9bb21ab25d
:104bf800fb8b1b031bb203f4e0431bb213431ab233
:104c0800bb699b6a92b21a857b691b7a002b09d013
:104c1800bb699b6a1b78dab2bb699b6a42f00402e3
:104c2800d2b21a70bb695b7a022b30d0bb695b7a4f
:104c3800012b2cd1bb6903f15402bb699b6a5a62f0
:104c4800bb69002283f840207b695a6abb695a64b1
:104c5800bb699b6a1b899bb23b623b6a23f00c03ce
:104c68003b627b699b7c022b07d07b699b7c032b77
:104c780003d13b6a43f004033b62bb699b6a3a6a0f
:104c880092b21a81fb881946b86905f0b5ffbb696d
:104c98009b6a1b78dab2bb699b6a42f00202d2b205
:104ca8001a7000bfbb699b6a9b78dbb203f00203f2
:104cb800022bf7d0bb69022283f82420fb887b6291
:104cc8000be007f0abfe0346022b06d907f09afe6d
:104cd80003460849184606f065f87b6a18462837df
:104ce800bd4680bdf42800000004002040290000d3
:084cf8008400800090290000f7
:020000040000fa
:104d000080b58cb000af78600b46fb70002387f84d
:104d10002f30002387f82e30002387f82d30002312
:104d200087f82c30002387f82b30fb7803f00f0333
:104d300087f82a3097f90330dbb2db09dbb287f85a
:104d4000293097f82a30022b0fd907f06bfe034663
:104d5000022b06d907f05afe03468949184606f089
:104d600025f8842387f82f3003e17b68b3f1ff3ff8
:104d70000fd107f057fe0346022b06d907f046fe77
:104d800003468049184606f011f8832387f82f3030
:104d9000efe07b687b627b6a9b6a3b6297f82a2024
:104da0007b6a123253f82230fb617b6adb7883f036
:104db0000103dbb2002b45d07b6a12337b614ff0dd
:104dc000ff333b617b691b78012b04d17b69002297
:104dd0001a70012300e00023012b24d17b6ab3f970
:104de0000a30184606f008ff034687f82e307b6a23
:104df000b3f90c30184606f0fffe034687f82d3055
:104e00007b6ab3f90e30184606f0f6fe034687f8c3
:104e10002c307b6ab3f91030184606f0edfe0346dd
:104e200087f82b300ee007f0fdfd0346022b06d974
:104e300007f0ecfd03465449184605f0b7ff8123ff
:104e400087f82f3097f92f30002b40f0928097f899
:104e50002a30002b29d13b6a202283f805213b6aa6
:104e6000102283f805216ff00201f86906f0b6fb05
:104e7000fb69db7943f00203dbb2bb61bb69dab2e9
:104e8000fb69da71fb690833fb616ff00201f869b5
:104e900006f0a4fbfb69db7943f00203dbb2bb61e4
:104ea000bb69dab2fb69da712be097f82930012b84
:104eb00009d197f82a303a6a08335b011344053365
:104ec00020221a7008e097f82a303a6a08335b010a
:104ed0001344053310221a7097f82930db00fa6961
:104ee0001344fb616ff00201f86906f077fbfb6980
:104ef000db7943f00203dbb2bb61bb69dab2fb6969
:104f0000da717b6adb7883f00103dbb2002b30d0ef
:104f100097f82e30002b05d07b6ab3f90a3018467b
:104f200006f0acff97f82d30002b05d07b6ab3f963
:104f30000c30184606f0a2ff97f82c30002b05d055
:104f40007b6ab3f90e30184606f098ff97f82b30bd
:104f5000002b05d07b6ab3f91030184606f08eff9f
:104f60007b6a1233fb60fb68002b02d0fb680122d6
:104f70001a7097f92f3018463037bd4680bd00bff4
:0c4f8000f807000054080000b40800000e
:020000040000fa
:104f8c0080b588b000af844a3b1d92e803001860de
:104f9c00043319800623fb600023fb617f4900204a
:104fac0003f06afe7e49002003f066fe07f10a0357
:104fbc001946022005f0a0fa0346fb72fb7a002b7f
:104fcc0006d1bb7a1a467749002003f055fe03e060
:104fdc007549002003f050fe7449002003f04cfe8c
:104fec000023fb7621e007f10a02fb7e11461846ee
:104ffc0005f082fa0346fb72fb7a002b09d1fa7e8c
:10500c00bb7a6b49002003f037fefb690133fb616f
:10501c0005e0fb7e1a466749002003f02dfe0a20ae
:10502c0005f0aafafb7e0133fb76fb7e072bdad95f
:10503c006149002003f020fefb1c1946022005f0fc
:10504c005bfa0346fb72fb7a002b05d1fb781a4600
:10505c005a49002003f010fe00237b6100233b61c2
:10506c004fe03a1d3b6913441b781946022005f0aa
:10507c00fffa0346fb72fb7a002b09d03a1d3b6901
:10508c0013441b781a464e49002003f0f5fd35e019
:10509c00052005f071fa07f10a031946022005f004
:1050ac002bfa0346fb72fb7a002b1ed13a1d3b698f
:1050bc0013441a78bb7a9a420cd13a1d3b691344bb
:1050cc001b781a463f49002003f0d6fd7b6901335b
:1050dc007b6113e03a1d3b6913441b781a46bb7a7b
:1050ec003949002003f0c8fd08e03a1d3b69134420
:1050fc001b781a463549002003f0befd3b6901338d
:10510c003b613a69fb689a42abdbfb78194602209b
:10511c0005f0aefa2e49002003f0aefdfa692d49d8
:10512c00002003f0a9fdfb687a692b49002003f0ed
:10513c00a3fdfb69002b07d17b69002b04d1274908
:10514c00002003f099fd1ee0fb69002b07dd7b6955
:10515c00002b04d12249002003f08efd13e07b6963
:10516c00002b08dd7a69fb689a4204da1d4900209d
:10517c0003f082fd07e07a69fb689a4203d11a4971
:10518c00002003f079fd1949002003f075fd00bfe4
:10519c002037bd4680bd00bf201f0000981b0000bb
:1051ac00bc1b0000e01b0000101c0000281c0000b1
:1051bc00501c00006c1c00008c1c0000bc1c00006f
:1051cc00d81c0000f41c00001c1d0000501d000029
:1051dc00781d0000981d0000bc1d0000e41d00009f
:1051ec00281e0000701e0000c01e0000f81e0000eb
:020000040000fa
:1051fc0080b586b000af7860396000233b61002336
:10520c00fb820023bb6001237b757b68db68fb6042
:10521c003b685b78062b40f0b7803b68db78013b42
:10522c000e2b00f2e28001a252f823f0755200001e
:10523c00d752000081530000f7530000f7530000d1
:10524c00515300002f530000f7530000f753000098
:10525c00f7530000f7530000f7530000f75300001a
:10526c00f7530000f75300007b681b7803f00e0324
:10527c00dbb2022b13d1fb68db68002b0bd107f0e0
:10528c00cbfb0346022b06d907f0bafb03466a494f
:10529c00184605f085fdfb68db68bb6012e0fb6817
:1052ac001b68002b0bd107f0b7fb0346022b06d96a
:1052bc0007f0a6fb03466149184605f071fdfb6833
:1052cc001b68bb601223fb8294e03b689a787b6876
:1052dc0093f8ae309a4280f08a807b68d3f8b02085
:1052ec003b689b789b0013441b683b613b69002b1c
:1052fc0008d03b69bb603b699a78db781b0213438f
:10530c00fb8274e007f088fb0346022b06d907f0fa
:10531c0077fb03464a49184605f042fd0023bb6063
:10532c0065e07b681b7803f07003dbb2102b06d1b1
:10533c0000237b753968786803f040fe5ae001233e
:10534c007b7557e07b681b7803f07003dbb2102b86
:10535c004fd17b681b7803f00e03dbb2022b03d119
:10536c00fb681b6abb6002e0fb685b6abb600a23dc
:10537c00fb823ee007f108031a463968f86803f02f
:10538c0010fc0346fb8235e03b685b78082b05d1ab
:10539c007b68ad33bb600123fb822be03b685b7801
:1053ac00002b27d17b680022a3f8bc207b681b78dc
:1053bc00c3f30003d9b27a6892f8bc3061f30003ee
:1053cc0082f8bc307b6893f8c03003f00103d9b28b
:1053dc007a6892f8bc3061f3410382f8bc307b6888
:1053ec00bc33bb600223fb8204e000bf02e000bfc1
:1053fc0000e000bf7b7d002b1ad0bb68002b05d1d1
:10540c007b680121184604f09ffe11e03b68db88a5
:10541c009bb2fa8a9a4205d93b689a79db791b02ce
:10542c001343fb827b68b968fa8a184604f0b4fd12
:10543c0000bf1837bd4680bd403a00007c3a0000e2
:04544c00bc3a000066
:020000040000fa
:1054500030b591ea030f00f18280841a71eb030cde
:1054600005d2121953eb0c03001b71eb0c0140f237
:10547000000ccff6e07c1cea430f52d0bceb410f8e
:105480005fd90c0da4eb135e5ff0010c6cf31f51a0
:105490006cf31f53def1200c2ad303fa0cf54019ec
:1054a00041f1000122fa0ef5401923fa0ef5694187
:1054b00012fa0cf2cd0208d349085fea30005fea25
:1054c000320228bf42f001020134013c5fea500c75
:1054d00072f1004250f1000051eb04514ff40013ff
:1054e00013eb410f38bf30bd6ff31301002030bd07
:1054f000bef1200ebef1200f1ed223fa0ef5401988
:1055000041f10001cef1200c124218bf012203fa32
:105510000cf52a43cee711ea5c0f04bf00200021fe
:1055200030bd1cea410f04bf01f00041002030bd36
:1055300001f00041002030bd21f4801101eb045145
:1055400030bd004218bf41f00101bceb410f08bf64
:1055500030bd4ff0fe4141f47801002030bd83f0b2
:105560000043841a71eb030e07d28ef0004e001b2d
:1055700071eb0e01121953eb0e0340f2000ccff643
:10558000e07c1cea430fc6d0bceb410f72d90c0d76
:10559000a4eb135ec90241ea5051c00241f0004140
:1055a000db0243ea5253d20243f00043def1200c07
:1055b00041d312fa0cf522fa0ef203fa0cf542ea84
:1055c000050218bf42f0010223fa0ef3801a994136
:1055d000e30ac4f30a0411f0404f03d418d0013c8d
:1055e00040004941013c23d44205c00a40ea4150f1
:1055f000c90a51eac3715fea500c72f1004250f1de
:10560000000051eb045130bd01002fd00020203ca0
:105610000029f9d0b1fa81fcdcf1200e11fa0cf16d
:1056200030fa0ef510fa0cf02943a4eb0c04d9e77c
:105630000020d90730bdaef1200ebef1200f0dd2f3
:10564000cef1200c03fa0cf533fa0ef32a4318bfff
:1056500043f00103c01a61f10001b9e721f00041f4
:10566000c00a40ea4150c90a01eb045130bd002094
:10567000002130bd004218bf41f00101bceb410fd9
:0e5680007ff467afbceb430f3ff463af30bd68
:020000040000fa
:02568e00704763
:020000040000fa
:1056900080b584b000af8b4b9b7ddbb2002b00f05c
:1056a0000d81894b9b6afb60864b5b8b9bb203f041
:1056b0000203022b08d1844bff2283f82020824b67
:1056c000022283f82120b5e07e4b5b8b9bb203f076
:1056d0000103012b08d17c4bff2283f820207a4b59
:1056e000022283f82120a5e0764b5b8b9bb203f06e
:1056f0000403042b08d1744bff2283f82020724b43
:10570000012283f8212095e06f4b93f820305bb2a3
:10571000042b00f28e8001a252f823f033580000cf
:105720003358000031570000db5700005957000084
:10573000654b1b69002b07d0634b9b889bb20021f4
:10574000184605f0cbff75e05f4b9b889bb20121ab
:10575000184605f0c3ff6de05b4b9b69bb605a4b7d
:105760001b69ba689a4225d1574b5b69002b11d04f
:10577000554b9b889bb25b00524a43f00103536236
:1057800000bf504bdb69002bfbd14f4b032283f84a
:1057900020204fe04b4b5b684a4a43f44033536050
:1057a00000bf484bdb69002bfbd1474b062283f837
:1057b00020203fe0444b9a68bb6813441a78414b61
:1057c0009a62bb680133bb6000bf3e4bdb69002bb4
:1057d000fbd13d4abb6893612ce03b4bdb697b60ae
:1057e000394b5b69013b7a689a420ed1354b5b6855
:1057f000344a43f4e023536000bf324bdb69002b93
:10580000fbd1314b062283f8202000bf2d4bdb69f2
:10581000002bfbd12b4b996a2b4bda687b68134426
:10582000cab21a707b6801337b60274a7b68d361f8
:1058300000e000bf244b93f820305bb2b3f1ff3f90
:105840001ad1214b002283f820201e4b5b681d4a91
:1058500043f44033536000bf1a4bdb69002bfbd18c
:10586000184b83221a76184b5b6a002b26d0164bf6
:105870005b6af868984721e0134b93f820305bb2dd
:10588000062b1bd1104b002283f820200e4b002248
:1058900083f821200b4b83221a7600bf094b5b8bc8
:1058a0009bb203f03003102bf8d1074b5b6a002b3f
:1058b00004d0054b5b6af868984700bf00bf1037fb
:0c58c000bd4680bd00340040340c0020c8
:020000040000fa
:1058cc0090b591b002aff8607a603b600b467b817b
:1058dc0000233b630023fb62002387f8373000234f
:1058ec0087f83630f86804f00dfb38633b6b002bff
:1058fc0002d197f83730f5e097f85030012b08d1ea
:10590c00fb6c002b02d0bb6c002b23d197f83730eb
:10591c00e8e097f85030022b03d097f85030082b62
:10592c0008d13b68002b02d07b68002b11d197f873
:10593c003730d7e03b68002b08d07b68002b05d0b4
:10594c00fb6c002b02d0bb6c002b03d197f83730cb
:10595c00c8e000bf3b6b1b68fb62fb6a2933bb6270
:10596c004ff0ff337b62bb6a1b78012b04d1bb6aff
:10597c0000221a70012300e00023012b40f0b080bc
:10598c003b6b00225a713a6bfb6a5a62fb6a9a694a
:10599c003b6bdb689a420bd0fb6a1b695b693a6b09
:1059ac000c320021104698473b6bda68fb6a9a610f
:1059bc0097f85030022b11d0042b1dd0012b2cd179
:1059cc00fb6a1b691b687889fa6cb96c98470346ab
:1059dc00002b24d0012387f8363020e0fb6a1b69aa
:1059ec005b6878893a68796898470346002b18d029
:1059fc00012387f8363014e0fb6a1b699c687889b0
:105a0c00fb6c0093bb6c3a687968a0470346002b8b
:105a1c0009d0012387f8363005e000bf04e000bf51
