:020000040000fa
:10000000f0ff03206d0300005b0800005d080000a6
:10001000610800006308000065080000000000009f
:10002000000000000000000000000000590800006f
:100030005f08000000000000590800005908000097
:10004000590800005908000059080000590800002c
:10005000590800005908000059080000590800001c
:10006000590800005908000059080000590800000c
:1000700059080000590800005908000059080000fc
:1000800059080000590800005908000059080000ec
:1000900059080000590800005908000059080000dc
:1000a00059080000590800005908000059080000cc
:1000b00059080000590800005908000059080000bc
:1000c00059080000590800005908000059080000ac
:1000d000590800005908000059080000590800009c
:1000e000590800005908000000000000000000004e
:1000f00000000000590800005908000059080000dd
:10010000590800005908000059080000590800006b
:10011000590800005908000059080000590800005b
:10012000590800005908000059080000590800004b
:10013000590800005908000059080000590800003b
:10014000590800005908000059080000590800002b
:1001500059080000590800000000000000000000dd
:10016000000000000000000000000000000000008f
:10017000000000000000000000000000000000007f
:1001800059080000590800005908000059080000eb
:10019000000000005908000059080000590800003c
:1001a00059080000590800005908000059080000cb
:1001b00059080000590800005908000059080000bb
:1001c00059080000590800005908000059080000ab
:1001d000590800005908000059080000590800009b
:1001e00059080000590800005908000021070000c4
:1001f000590800005908000059080000590800007b
:10020000590800000000000000000000590800002c
:10021000590800005908000059080000590800005a
:10022000590800005908000059080000590800004a
:10023000590800005908000059080000590800003a
:10024000590800005908000059080000590800002a
:10025000590800005908000059080000590800001a
:020000040000fa
:10026000f8b500bff8bc08bc9e4670479906000070
:10027000f8b500bff8bc08bc9e4670477506000084
:020000040000fa
:10028000334b00221a7403f50063324a9a621a460d
:10029000536813f0100ffbd12f4b4222c3f8842078
:1002a0001a4600bfd2f8843013f0400ffad02b4b1f
:1002b00000229a6377225a631a46d36b13f0040f15
:1002c000fbd1264b022283f830201a46d36b13f061
:1002d000020ffbd1214a136c03f00303032bfad165
:1002e0001f4b01225a711a46d37813f0010ffbd02d
:1002f000194b1c4a1a621a46536813f0040ffbd1bb
:10030000154b194a5a621a46536813f0080ffbd16d
:10031000114b4122c3f8a4201a4600bfd2f8a430e2
:1003200013f0400ffad00c4b4122c3f824211a4697
:10033000d2f8243113f0400ffad0094b6ff07f420e
:100340001a6144f2ff725a614ff480721a62704768
:100350000014004006013000001c00400010004066
:0c03600000080040070101000701020036
:020000040000fa
:10036c0008b51a4b98471a4b9847eff3108172b6a1
:10037c00184ad2f8883043f47003c2f88830bff3bf
:10038c004f8fbff36f8f01b962b6134a936823f096
:10039c00010393601346da6812f0010ffbd10e4b88
:1003ac0024225a6001229a6000f07ef90b4b23f054
:1003bc007f03084a93600a4b984700f017f8094be3
:1003cc009847094b984700f0dbf8fee71f08000040
:1003dc001f08000000ed00e000600041000000007c
:0c03ec00dd0400001f0800001f080000d6
:020000040000fa
:1003f8001f4b00225a601022da601a6922f00102ab
:100408001a611122da601a6922f001021a611222b5
:10041800da601a6922f001021a611322da601a6995
:1004280022f001021a611422da601a6922f001022c
:100438001a611522da601a6922f001021a6116227d
:10044800da601a6922f001021a611722da601a6961
:1004580022f001021a6107494a6a42f480324a626c
:1004680005225a60bff34f8fbff36f8f704700bfed
:0804780090ed00e000ed00e052
:020000040000fa
:10048000154b01221a801a46136b13f0010ffbd192
:100490004ff080131b689a0c02f07002d90a01f425
:1004a000e0610a43c3f302431a430b4ba3f848200d
:1004b0004ff4a0621a808022da7283221a7241f607
:1004c00009029a800222da80072283f82e201a4637
:0c04d000136b002bfcd170470020004390
:020000040000fa
:1004dc000e4a38b5002313600d4a0e4c13600e4ab9
:1004ec000e4d13600e4a13600e4a13600e4a53628f
:1004fc0013610123936000f0b1f900f0aff9ac4245
:10050c0000d338bd54f8043b9847f8e77800002036
:10051c000c0000206c02000008000020700200009b
:0c052c000000002004000020100000204f
:020000040000fa
:10053800124bda6822f4e0621204120c42f0bf6235
:1005480042f40032da60bff35f8f62b60c4ae021f2
:1005580082f86b134ff40061d1605a6a42f480222a
:100568005a625a6942f010025a615a6a42f40032d9
:100578005a625a6a42f480325a62704700ed00e0cb
:0405880000e100e0ae
:020000040000fa
:10058c0080b5002000f0eef800f00cf900210d48c9
:10059c0000f054f900f01ef90b4c0c4f00260c4dda
:1005ac0000f00cf900f0ccf80028fbd02378002bdd
:1005bc00f6d000f03df9388026704ff48073c5f802
:1005cc009c30ede7310800007e0000207c0000200c
:0405dc00008000415a
:020000040000fa
:1005e000500000201c000000000000007c000020e3
:1005f00003000000000000006c0000200c00000060
:10060000000000000000002050000000000000007a
:10061000780000200400000000000000000000003e
:100620000000000066666666666666666666666602
:020000040000fa
:100630000e4b01221a601a46136913f0010ffbd109
:100640000a4b4ff4e2621a6003221a7347f26f22d8
:100650009a8333229a72064a0021116001225a724b
:100660001a461369002bfcd1704700bf00380040c8
:040670006c000020fa
:020000040000fa
:1006740010b5054c227832b9044b13b10448aff3da
:1006840000800123237010bd5000002000000000f2
:100694000000000008b5034b1bb103490348aff346
:1006a400008008bd0000000054000020000000008d
:020000040000fa
:1006b40070b50b480b4d4ff6ff76016821b94368be
:1006c40013b900f0cef870bd83684268334000f17e
:1006d4000c0455f823302046984704eb8000ece7df
:0806e400e0050000f80700002a
:020000040000fa
:1006ec000b4b10211960002283f8442083f8322030
:1006fc004ff44070c3f88000012083f8c70083f8e2
:10070c00c82083f8c92083f8b31083f8b42070474d
:04071c000080004118
:020000040000fa
:1007200008b5084b5b7a63b1064b987ac0b23322a6
:100730009a72054b1b6823b118b1034b59681b68ab
:0c074000984708bd003800406c00002005
:020000040000fa
:10074c00074b93f82e3003f00103002b14bf01204c
:10075c00002003d0024b012283f82e20704700bfeb
:04076c000020004326
:020000040000fa
:1007700008b500f055f8fff7b9fffff781fd00f06d
:1007800016f8fff77dfefff753fffff7d5fe08bd14
:020000040000fa
:1007900010b50023934206d113f0030018bf0120c7
:0e07a00000eb930010bdc45ccc540133f2e7b3
:020000040000fa
:0207ae00704792
:020000040000fa
:1007b000044a138843f002031380136b13f0020ff3
:0807c000fbd17047002000434b
:020000040000fa
:1007c800044a137d43f002031375136b13f4006f8f
:0807d800fbd170470020004333
:020000040000fa
:1007e000044a136843f002031360136913f0020f05
:0807f000fbd170470038004006
:020000040000fa
:1007f8000d0800009107000055080000550800008a
:04080800550800008f
:020000040000fa
:10080c000a440023914201d10020704701f8013bba
:02081c00f8e7fb
:020000040000fa
:02081e00704721
:020000040000fa
:10082000024b40f204521a80704700bf0040004162
:020000040000fa
:0c083000014b01221a7070477e0000206e
:020000040000fa
:0c083c00014bb3f840007047002000435f
:020000040000fa
:0c084800014b1860596070476c000020e4
:020000040000fa
:0408540000207047c9
:020000040000fa
:02085800fee7b9
:020000040000fa
:02085a00fee7b7
:020000040000fa
:02085c00fee7b5
:020000040000fa
:02085e00fee7b3
:020000040000fa
:02086000fee7b1
:020000040000fa
:02086200fee7af
:020000040000fa
:02086400fee7ad
:020000040000fa
:020866007047d9
:020000040000fa
:020868007047d7
:020000040000fa
:0200000400807a
:044000003912003c35
:020000040000fa
:0200000400807a
:044004008000a82a66
:020000040000fa
:0200000400807a
:04400800ffffffffb8
:00000001FF
