:020000040000fa
:10000000f0ff03201d270000f7290000372b000018
:10001000cf2d000097310000673200000000000083
:10002000000000000000000000000000fd3400009f
:100030007b2c000000000000fd340000fd340000b7
:10004000fd340000fd340000fd340000fd340000ec
:10005000fd340000fd340000fd340000fd340000dc
:10006000fd340000fd340000fd340000fd340000cc
:10007000fd340000fd340000fd340000fd340000bc
:10008000fd340000fd340000fd340000fd340000ac
:10009000fd340000fd340000fd340000fd3400009c
:1000a000fd340000fd340000fd340000fd3400008c
:1000b000fd340000fd340000fd340000fd3400007c
:1000c000fd340000fd340000fd340000fd3400006c
:1000d000fd340000fd340000fd340000fd3400005c
:1000e000fd340000fd3400000000000000000000ae
:1000f00000000000fd340000fd340000fd3400006d
:10010000fd340000fd340000fd340000fd3400002b
:10011000fd340000fd340000fd340000fd3400001b
:10012000fd340000fd340000fd340000fd3400000b
:10013000fd340000fd340000fd340000fd340000fb
:10014000fd340000fd340000fd340000fd340000eb
:10015000fd340000fd34000000000000000000003d
:10016000000000000000000000000000000000008f
:10017000000000000000000000000000000000007f
:10018000053400001534000025340000353400002b
:1001900000000000fd340000fd340000fd340000cc
:1001a000fd340000fd340000fd340000fd3400008b
:1001b000fd340000fd340000fd340000fd3400007b
:1001c000fd340000fd340000fd340000fd3400006b
:1001d000fd340000fd340000fd340000fd3400005b
:1001e000fd340000fd340000fd340000fd3400004b
:1001f000fd340000fd340000fd340000fd3400003b
:10020000fd3400000000000000000000fd3400008c
:10021000fd340000fd340000fd340000fd3400001a
:10022000fd340000fd340000fd340000fd3400000a
:10023000fd340000fd340000fd340000fd340000fa
:10024000fd340000fd340000fd340000fd340000ea
:10025000fd340000fd340000fd340000fd340000da
:020000040000fa
:10026000f8b500bff8bc08bc9e467047f52d0000ed
:10027000f8b500bff8bc08bc9e467047d12d000001
:020000040000fa
:100280004378002b00f0f482c36b002b00f0f08267
:100290002de9f04782b0846aa38b13f4007f06d067
:1002a000238b13f4007f1cbf4ff40073a383a38b35
:1002b00013f4807f06d0238b13f4807f1cbf4ff490
:1002c0008073a383a38b13f0800f05d0238b13f0cf
:1002d000800f1cbf8023a383a38b13f0400f05d096
:1002e000238b13f0400f1cbf4023a383a38b13f079
:1002f000200f05d0238b13f0200f1cbf2023a383d6
:100300000546a38b13f0010f0ed0238b13f0010fc2
:100310000ad00123a383a3821023a3832383c36b67
:1003200000220421806b9847a38b13f0100f0ed08e
:10033000238b13f0100f0ad01023a383a382012371
:10034000a3832383eb6b00220321a86b9847a38b25
:1003500013f0040f0ad0238b13f0040f06d00423ec
:10036000a383eb6b00220721a86b9847a38b13f0a4
:10037000080f03d0238b13f0080f31d194f8073105
:1003800013f0100f55d094f8093113f0100f50d01e
:10039000ab6cda7922f00202da71da7b22f0020227
:1003a000da73186800283ed0696d02680e684968e3
:1003b00016605160102284f80721402284f804213d
:1003c0000268d18831bb072285f8252002220272fb
:1003d0000822426082691a60c36853b3984728e0d4
:1003e000002185f82510237bc3f381039b4ad35c4e
:1003f00085f83430602205f1540002f0c3ffeb6b46
:100400001bb100220221a86b98478023a372082306
:10041000a383b3e792f90020002ab4bf0622022288
:1004200085f82520d2e7012385f82530102384f8ac
:10043000083194f8073113f0020f30d094f80931e5
:1004400013f0020f2bd0ab6c9e6846b395f82520b5
:10045000082a16d0316a00296ad1326912f0800f59
:1004600054d022f080023261ab6e23f47f5323f02c
:100470003f03ab66022384f80731802384f80531fb
:100480000de0002285f825203272b1699960726012
:10049000f3680bb130469847022384f8073194f88b
:1004a000073113f0010f00f09e8094f8093113f02a
:1004b000010f00f09880d5f8488095f82530052b7d
:1004c00057d0d8f80060002e6fd0af6dc7f30d077e
:1004d000336a7268f918914284bfd71abfb2696d46
:1004e00030683a46184402f00bff336a3b443362eb
:1004f0007268934260d2b8f80410b9425cd84023c5
:1005000084f80431012384f807316ce0052285f872
:10051000252000223272b2699a60f3680bb130462e
:100520009847022384f80731402384f80431b6e762
:100530009f89b94298bf8fb2686e7368591a336841
:100540003a46194402f0dcfe336adb1b3362ab6ec1
:1005500023f47f5323f03f03ab66ab6ec7f30d0765
:100560001f43af66022384f80731802384f80531e6
:1005700095e7d8f8000088b10023037285f825308c
:10058000012284f80721402284f804218269c8f8f6
:1005900000204360c36833b3984724e0042385f800
:1005a0002530012384f808311de0032385f8253028
:1005b000012384f8083116e093422cbf0023012365
:1005c0003372072385f82530012384f8073140234f
:1005d00084f80431b369c8f80030336a7360f36893
:1005e0000bb130469847012666e000230372836909
:1005f000caf80830c36803b19847daf808202ab36c
:10060000106abaf80c30984298bf83b25168081a41
:1006100011680144a844c8f86410116ac91a11622b
:10062000d8f8682022f47f5222f03f02c8f86820f0
:10063000d8f86820c3f30d031343c8f868300a23c1
:1006400089f80731802389f8053132e004eb471738
:100650000a2387f8083189f807312ae0ec340000d2
:10066000baf80c309a4298bf93b241688a1a01686e
:100670001144a844c8f86410026ad21a0262d8f879
:10068000682022f47f5222f03f02c8f86820d8f890
:100690006820c3f30d031343c8f868300a2389f8b0
:1006a000073104eb4717022387f80931802389f8c3
:1006b00005310136032e59d0238c9bb23746f340c7
:1006c00013f0010ff5d004eb461393f80931dbb2b8
:1006d00001934fea461804eb080999f80731dbb299
:1006e0000093019a009b13f0080f14d012f0080f2a
:1006f00011d005eb461393f86e3013f0020f0ad0b9
:1007000005eb461292f86e3003f0fd0382f86e306e
:10071000082389f80731019a009b13f0020fc8d013
:1007200012f0020fc5d005f1480353f826a0daf8fd
:1007300008000028bdd0026a002a91d1036913f095
:10074000800f3ff452af23f080030361a844d8f830
:10075000683023f47f5323f03f03c8f868300a233e
:1007600089f80731802389f80531a2e701261de0c9
:10077000002303728369c9f80030036a4360c368c9
:1007800003b19847d9f80030002b66d01a687f0172
:10079000eb195a65052388f80731274487f8093192
:1007a000402388f804310136032e5ed0238c9bb29f
:1007b0003746f34013f0010ff5d004eb461393f8de
:1007c0000931dbb2019304eb461898f80731dbb22c
:1007d0000093009b13f0040f11d005eb461393f820
:1007e0005e3013f0020f07d005eb461292f85e3030
:1007f00003f0fd0382f85e30042388f80731019a84
:10080000009b13f0010fced012f0010fcbd005f1f9
:10081000480353f82690d9f800000028c3d005eb10
:1008200047139a6dc2f30d02036a134403624168d1
:100830008b429dd2b9f8041091420bd80268134440
:1008400005eb47177b65052388f80731402388f8b7
:100850000431a8e7012303728ce704eb4717052353
:1008600087f8083188f807319de702b0bde8f087c6
:04087000704700bf0e
:020000040000fa
:10087400431e13f1030f00f2a7812de9f04f85b059
:1008840001f00f084fb292f90830022b00f39f8158
:10089400b8f1020f00f29e81d0f828b008f11203db
:1008a40050f823a03e1106f0080676b20aeb0609ba
:1008b40099f8073013f0010f00f08f8115460446b4
:1008c4005268b9f80410b2fbf1f301fb132373b1be
:1008d400002f80f28581e378002b40f08681a37c91
:1008e400012b1cd06ff07e0005b0bde8f08f002f07
:1008f4000bdbc278002af2d00022aa6103212972fc
:10090400039202920192009278e12b6913f0010f95
:10091400e1d0002adfd043f080032b61dbe74ff006
:100924000003a374b4f90a0002f0a6f90090b4f924
:100934000c0002f0a1f90190b4f90e0002f09cf948
:100944000290b4f9100002f097f903900023ab6110
:1009540003232b72002fa8bf002380f24f814ce1a8
:1009640093f90030002bb4bf0623022384f825300a
:1009740076e1a76dc7f30d072b6a6a68f9189142ef
:1009840084bfd21a97b2616d28683a46184402f0bf
:10099400b5fc2b6a3b442b626a68934218d300234c
:1009a4002b72082384f8253001238bf807318bf848
:1009b400093140238bf804312b6a6b60ab694af828
:1009c4000630eb68002b00f0bc8028469847b8e05e
:1009d400b9f80430bb4217d901232b72082284f8da
:1009e40025208bf807318bf8093140238bf804312b
:1009f4002b6a6b60ab694af80630eb68002b00f099
:100a0400a080284698479ce001238bf807318bf897
:100a1400093140238bf8043193e0002384f8253016
:100a24002b7201238bf807318bf8093140238bf8a3
:100a34000431ab694af80630eb68002b00f0818082
:100a4400284698477de094f82530062b13d0072bd1
:100a540077d1082384f82530a36e23f47f5323f041
:100a64003f03a36602238bf807318bf809318023f7
:100a74008bf8053165e02b6ab9f80460b34238bfde
:100a84009eb2ceb92b6a9b1b2b62092384f82530b6
:100a9400a36e23f47f5323f03f03a366a26ec6f331
:100aa4000d031343a36602238bf807318bf8093136
:100ab40080238bf8053144e0606e3246296802f0e9
:100ac4001dfcdfe7002f0fdb29684fea4813e2180b
:100ad40051650beb4818052288f8072188f809218d
:100ae400402388f804312ce0286ab9f8043098428d
:100af40098bf83b26a68101a2a6810444fea4812f1
:100b0400a1184866286ac01a2862886e20f47f50ab
:100b140020f03f008866886ec3f30d0303438b66a1
:100b24000beb02030a2283f8072183f809218022b0
:100b340083f8052105e01a469369002bfbd19561e2
:100b4400ea61e378002b4ed1009b63b1b4f90a301b
:100b5400002b08db590903f01f03012202fa03f3f7
:100b6400454a42f82130019b63b1b4f90c30002ba3
:100b740008db590903f01f03012202fa03f33e4a7a
:100b840042f82130029b63b1b4f90e30002b08db2c
:100b9400590903f01f03012202fa03f3364a42f80b
:100ba4002130039b63b1b4f91030002b08db5909e1
:100bb40003f01f03012202fa03f32f4a42f8213003
:100bc4000123a37400208fe66ff07c0070476ff060
:100bd4007a0089e66ff07b0086e66ff0750083e6a5
:100be4006ff07c0080e600207ee60023ab610322e8
:100bf4002a7203930293019300936b682b625af851
:100c04000620002a98d104232b720023eb614af8b2
:100c14000650b8f1000f7ff455af9f42fff613afb3
:100c240094f82530032b3ff4a4ae042b3ff4f5ae27
:100c3400012b86d1626d2b681168526819605a6065
:100c440040238bf8043110238bf807318bf80931da
:100c54002b689a79002a7ff483ae072384f8253021
:100c6400ab694af8063002232b72eb68002b3ff481
:0c0c740068af2846984764e700e100e004
:020000040000fa
:100c80002de9f04701f00f07022f01d910296fd18c
:100c9000b0f1ff3f6fd00d460446866ac378002b43
:100ca0006ed1837c012b03d06ff07e00bde8f0870e
:100cb00000238374b0f90a0001f0e0ff8046b4f924
:100cc0000c0001f0dbff8146b4f90e0001f0d6ff05
:100cd0008246b4f9100001f0d1ff55e0102386f8e8
:100ce000083186f8073104f14807002294467f2531
:100cf00006eb421383f800c183f8085183f80751cb
:100d000057f8043bd97921f00101d971d97b21f041
:100d10000101d9730132032aead14ae069b20029fc
:100d200018db06eb471696f8003103f0f80386f857
:100d30000031052386f8073186f80831123754f858
:100d40002730091101f008011944cb7923f0010380
:100d5000cb712ee006eb471696f8003103f08f03b7
:100d600086f800310a2386f8073186f80831e5e76e
:100d70006ff07b009ae76ff07c0097e7002095e723
:100d80000020824681468046102da7d0002fc5d175
:100d90007f2386f8083186f80731002386f8003172
:100da000a36cda7922f00102da71da7b22f0010217
:100db000da73e378002be1d1b8f1000f0cd0b4f96d
:100dc0000a30002b08db590903f01f03012202fa45
:100dd00003f31a4a42f82130b9f1000f0cd0b4f9ec
:100de0000c30002b08db590903f01f03012202fa23
:100df00003f3124a42f82130baf1000f0cd0b4f9d3
:100e00000e30002b08db590903f01f03012202fa00
:100e100003f30a4a42f8213060b1b4f91030002bd4
:100e200008db590903f01f03012202fa03f3034a06
:100e300042f821300123a374002037e700e100e0ed
:020000040000fa
:100e40002de9f04f83b001f00f05022d00f29980db
:100e5000b0f1ff3f00f098808b460446866a05f1aa
:100e6000120350f82370c378002b40f09280837ceb
:100e7000012b04d06ff07e0003b0bde8f08f00239b
:100e80008374b0f90a0001f0f9fe0190b4f90c0086
:100e900001f0f4fe8146b4f90e0001f0effe824647
:100ea000b4f9100001f0eafe804678e0f72386f8f6
:100eb00004317f2386f80731fb7923f00203fb71ad
:100ec0006ff00301384602f0f1f8fb7b23f00203d8
:100ed000fb736ff0030107f1080002f0e7f8e37815
:100ee000002b54d1019b63b1b4f90a30002b08db0d
:100ef000590903f01f03012202fa03f3384a42f8aa
:100f00002130b9f1000f0cd0b4f90c30002b08db04
:100f1000590903f01f03012202fa03f3304a42f891
:100f20002130baf1000f0cd0b4f90e30002b08dbe1
:100f3000590903f01f03012202fa03f3284a42f879
:100f40002130b8f1000f0cd0b4f91030002b08dbc1
:100f5000590903f01f03012202fa03f3204a42f861
:100f600021300123a374002086e706eb45152023da
:100f700085f80431402385f80731022385f80431d0
:100f8000ade76ff07b0077e76ff07c0074e700203f
:100f900072e74ff00008c246c146cdf80480002d2c
:100fa00084d04ffa8bfb4fea2b1000f00800384436
:100fb000c37923f00203c3716ff0030102f076f8e6
:100fc000bbf1000fd1db06eb4515102385f804318a
:100fd000202385f80731012385f804317fe700bf1e
:040fe00000e100e04c
:020000040000fa
:100fe4002de9f04101f00f07022f00f2aa80a3f1ce
:100ff4000804a4b2b4f57e7f00f2a680b0f1ff3fee
:1010040000f0a580866a082b43d900250824013501
:10101400edb26400a4b2a342f9d807f1120450f867
:101024002440002a37d12260a380a271e17941f0e3
:101034000101e171a260a381a273e37b43f0010388
:10104400e37386f80021112386f80031836d23f0c1
:10105400e0438365836e23f0e0438366836d2d074d
:1010640005f0e0452b438365836e1d438566436924
:10107400436583694366836d23f000438365836e10
:1010840023f000438366132386f809311046bde834
:10109400f0810025c1e749b24fea211c0cf0080c8d
:1010a4004ffa8cfc04eb0c0e4ff0000844f80c8053
:1010b400aef804308ef806209ef8073043f00103a2
:1010c4008ef80730414527db06eb471696f80031ca
:1010d40003f0f80386f8003196f800311d4c14f83b
:1010e4001220134386f80031402386f80531c90fd6
:1010f40001eb470700eb0710836d23f0e0438365a2
:10110400826d2b0703f0e04313438365836d23f063
:10111400004383650020bae706eb471696f80031d2
:1011240003f08f0386f8003196f80031094c04eb84
:1011340042025278134386f80031802386f8043142
:10114400d5e76ff07b00a2e76ff07b009fe76ff0bd
:081154007c009ce7d43400008c
:020000040000fa
:10115c002de9f04f83b001f00f05022d46d8b0f108
:10116c00ff3f46d001910446d0f8288005f11203c8
:10117c0050f82370c378002b40d1837c012b04d012
:10118c006ff07e0003b0bde8f08f00238374b0f9dc
:10119c000a0001f06dfd8146b4f90c0001f068fd08
:1011ac008246b4f90e0001f063fd8346b4f91000d9
:1011bc0001f05efd064625e0202388f8053110235a
:1011cc0088f805316ff00201384601f069fffb79b0
:1011dc0043f00203fb716ff0020107f1080001f00c
:1011ec005ffffb7b43f00203fb7326e06ff07b0099
:1011fc00c8e76ff07c00c5e70020c3e70026b346c4
:10120c00b246b146002dd7d09df90410002905f146
:10121c00080508eb4518b4bf2023102388f80530c7
:10122c00091101f008010f446ff00201384601f07a
:10123c0037fffb7943f00203fb71e378002bdbd122
:10124c00b9f1000f0cd0b4f90a30002b08db5909a6
:10125c0003f01f03012202fa03f31a4a42f8213069
:10126c00baf1000f0cd0b4f90c30002b08db590983
:10127c0003f01f03012202fa03f3124a42f8213051
:10128c00bbf1000f0cd0b4f90e30002b08db590960
:10129c0003f01f03012202fa03f30a4a42f8213039
:1012ac0066b1b4f91030002b08db590903f01f03a9
:1012bc00012202fa03f3034a42f821300123a374fa
:0812cc0000205fe700e100e0f3
:020000040000fa
:1012d400dc0500201c0000000000000000020020cb
:1012e40038010000000000002c050020b0000000c0
:1012f400000000003c060020500000000100000037
:101304009931000099330000453400005534000041
:1013140095340000bd330000bd310000391b0000ce
:10132400e50f0000810c00005d110000410e00007b
:10133400f92f00002531000075080000cd170000ca
:10134400a1160000ab330000c32100000000000020
:101354002c0400206c00000000000000e8040020c1
:101364004400000000000000200600200a000000e5
:101374000000000038060020020000000000000009
:1013840038030020f40000000000000018060020cc
:1013940008000000000000000c0600200c00000003
:1013a400000000002a0600200200000000000000e7
:1013b400f805002014000000000000002c060020a6
:1013c40004000000000000000000002000020000f3
:1013d40000000000a8060020070000000100000033
:1013e40000c2010000000800900600201800000060
:1013f400010000000d0a5055534820425554544fe3
:101404004e20505245535345440d0a0030060020e7
:1014140004000000000000009804002050000000b8
:10142400000000003406002004000000000000005a
:101434000000000000000000666666666666666678
:020000040000fa
:1014440090f90830002b40f39280f0b583b0044645
:101454000d4616468b1e072b00f28580dfe803f04d
:1014640004616683836b787e43786ff382034370f1
:10147400d0f8ec301b6c0021c0699847d4f8ec30ec
:101484001b6c8021e0699847204601f081fbd4f869
:10149400ec305b6a1021e0699847d4f8ec301f6a9d
:1014a400402300228021e069b84794f99030022b50
:1014b40007dcd4f8ec309b6b04f188020021e0696e
:1014c4009847e378032262f30203e370d4f8ec3024
:1014d4001b69e0699847237860f343032370e2684b
:1014e40003f00e03022b15d09368c4f8b0301379bf
:1014f40084f8ae30002384f8ad3094f8dd30012b4d
:1015040033d1d4f8e03083b3d4f8e420314628460c
:1015140098472ae05369c4f8b030137c84f8ae309d
:10152400e8e743786ff382034370e6e7437843f0d8
:1015340004034370e1e743786ff382034370d0f808
:10154400ec305b69c0699847adf8040001aed4e79c
:10155400c378012262f30203c370cee7c3786ff34a
:101564000203c370c9e70029c7d103b0f0bd7047b7
:020000040000fa
:10157400002840f08980474b1b78002b40f087807f
:1015840030b583b0434b01229a741a7083f8242037
:101594004c689c62c87c587200205870d8631871db
:1015a400b1f90a505d81b1f90c509d81b1f90e5029
:1015b400dd81b1f910501d82d87022709a6a937837
:1015c40013f0010ffbd10a23d370334b1b68019333
:1015d400019b03f01f031f2b08bf05232d4a906aac
:1015e400028d42ea83130385019bc3f344131f2b2b
:1015f40008bf1d23274a926a108d03431385019b5c
:10160400c3f38223072b08bf0323224a906a028d67
:1016140042ea033303850b7a2bb11e4b9a6a137883
:1016240043f0040313701b4b5b7a012b11d0194a4e
:10163400916a0b7843f002030b70926a937813f06b
:10164400020ffbd1134b022283f82420002003b0a5
:1016540030bd104b9a6a03f154005062002283f8a3
:1016640040204a6a5a649a6a13899bb223f00c0395
:10167400897c032908bf43f004039bb21381002132
:10168400044801f0e1fbd2e74ff0ff3070474ff020
:0c169400ff30704700020020840080003e
:020000040000fa
:1016a00001f00f03022b45d8b0f1ff3f45d02de9e3
:1016b000f0470d460446123350f82360c378002be0
:1016c00040d1837c012b03d06ff07e00bde8f08712
:1016d00000238374b0f90a0001f0d0fa8246b4f90d
:1016e0000c0001f0cbfa0746b4f90e0001f0c6fa7f
:1016f0008046b4f9100001f0c1fa814645f30311a8
:1017000001f008006ff00101304401f0cffce378f4
:10171000b3b9baf1000f24d0b4f90a30002b20dba2
:10172000590903f01f03012202fa03f3264a42f883
:10173000213016e06ff07b0070476ff07c0070473f
:101740000020c3e741f3031101f008006ff001012d
:10175000304401f0abfce7780fb10020b6e7b946a2
:10176000b84667b1b4f90c30002b08db590903f017
:101770001f03012202fa03f3134a42f82130b8f1a1
:10178000000f0cd0b4f90e30002b08db590903f020
:101790001f03012202fa03f30b4a42f82130b9f188
:1017a000000f0cd0b4f91030002b08db590903f0fe
:1017b0001f03012202fa03f3034a42f821300123f6
:0c17c000a374002082e700bf00e100e0fd
:020000040000fa
:1017cc00b0f1ff3f28d051b32de9f84391f908301f
:1017dc00012b27dd0c460546c37843bb837c012bcc
:1017ec0003d06ff07e00bde8f88300238374b0f95a
:1017fc000a0001f03dfa0746b5f90c0001f038fa81
:10180c008046b5f90e0001f033fa8146b5f91000a7
:10181c0001f02efa06460ee06ff07c0070476ff078
:10182c007c0070476ff07c00dde70020dbe70026d2
:10183c00b146b0463746fe23237200236360e3694a
:10184c0063b1a2699a61a3690bb1e269da61002301
:10185c00e361a361e3680bb120469847eb78002b5a
:10186c00e3d167b1b5f90a30002b08db590903f055
:10187c001f03012202fa03f31a4a42f82130b8f18d
:10188c00000f0cd0b5f90c30002b08db590903f014
:10189c001f03012202fa03f3124a42f82130b9f174
:1018ac00000f0cd0b5f90e30002b08db590903f0f2
:1018bc001f03012202fa03f30a4a42f8213066b1ef
:1018cc00b5f91030002b08db590903f01f03012276
:1018dc0002fa03f3034a42f821300123ab740020cf
:0818ec0081e700bf00e100e00c
:020000040000fa
:1018f40070b582b004460d4649784b1e082b00f2a1
:101904008280dfe803f05f806680058080801200bb
:10191400037843f080030370ab7880f8ac30002187
:10192400204601f0cbf902b070bd6b8823b9c278b0
:1019340002f00702052a2dd094f8ad20dbb29a42ba
:1019440063d094f8ae208ab1d4f8b060331f013a62
:10195400d2b206eb820600bf53f8042f5079a9785f
:10196400884208bfc4f8b420b342f5d16b8884f828
:10197400ad30204601f006f8e378052262f3020355
:10198400e3706b888df8043094f8dd30012b0fd0b0
:101994000021c5e70b2380f8b83001f0f9f80021e5
:1019a40084f8ad10e378042262f30203e370b7e72e
:1019b400d4f8e0305bb3d4f8e42001a90a209847b6
:1019c4000021ade76b88012baad1002180f8c0105b
:1019d400a6e76b88012b03d0022b05d001219fe7da
:1019e40080f8c03000219be7037803f00e03022b3c
:1019f40001d0012194e76b798370437843f00103ac
:101a0400437000218ce701218ae7002188e7002147
:041a140086e700bfa2
:020000040000fa
:101a1800f8b50d469df81810002871d106464ff00c
:101a2800ff3028603e48007c00286cd0002b6dd029
:101a380011f0020f0ad03a49c989994269d8b3fb13
:101a4800f1f001fb10315b1a022401e001f00104fe
:101a58003349486b896a88425ed2324949780129fc
:101a680003d06ff05f042046f8bd2e49002048706f
:101a78002d4991f90810012912dd2b4991f92c10f3
:101a880001290cdd284991f950100129d8bf0226f7
:101a980006dd244b01225a706ff07f04e3e701262c
:101aa8002149f00000eb060c4fea8c0c01eb0c0707
:101ab80041f80c207b6000237b611c4bfb603c6180
:101ac80001f008fd164c636b0133636301f006fdfa
:101ad8002f603a46217b206801f090fb044618b934
:101ae800104b01225a70bee701f0f4fc0c4a536b0c
:101af800013b536301f0f2fc4ff0ff332b60efe73b
:101b08006ff07704afe76ff07504ace76ff07d0412
:101b1800a9e76ff07d04a6e76ff07f04a3e700bf95
:101b2800e8040020380600202c040020652a000064
:020000040000fa
:101b3800b0f1ff3f7fd02de9f84303780bb9bde83a
:101b4800f8830446856a1021fff796f8e378a3bb6b
:101b5800a37c012bf3d10027a774b4f90a0001f084
:101b680089f88146b4f90c0001f084f80646b4f906
:101b78000e0001f07ff88046b4f9100001f07af801
:101b8800a77140f2fd33ab82af722b8943f001039a
:101b98002b81e378002bd2d1b9f1000f1cd0b4f916
:101ba8000a30bb4218db590903f01f03012202fa6d
:101bb80003f3214a42f821300ee00023a37140f2da
:101bc800fd32aa82ab722b8943f001032b81e678a0
:101bd800002eb4d13046b04666b1b4f90c30002bb3
:101be80008db590903f01f03012202fa03f3124a22
:101bf80042f82130b8f1000f0cd0b4f90e30002ba8
:101c080008db590903f01f03012202fa03f30a4a09
:101c180042f8213060b1b4f91030002b08db5909c3
:101c280003f01f03012202fa03f3034a42f82130aa
:0c1c38000123a37483e7704700e100e083
:020000040000fa
:101c4400f8b5002864d14ff0ff3008603848807a36
:101c5400002860d036480089b3fbf0f400fb143050
:101c6400002b5bd000285cd1314ca56be46aa54203
:101c74005ad2304c6478012c03d06ff05f042046b4
:101c8400f8bd2c4c002565702b4c94f90840012cb0
:101c940012dd294890f92c0001280cdd264890f922
:101ca40050000128d8bf022006dd224b01225a70c1
:101cb4006ff07f04e3e701200d461f49c400271895
:101cc400bf00ce19ca517360002373611b4bf360cc
:101cd40001f002fc164ca36b0133a36301f000fc7a
:101ce4002e603246a179206801f08afa044618b9b8
:101cf400104b01225a70c2e701f0eefb0c4a936bc1
:101d0400013b936301f0ecfb4ff0ff332b60efe7f3
:101d14006ff07704b3e76ff07504b0e76ff07d04fc
:101d2400ade76ff07d04aae76ff07f04a7e700bf7b
:101d3400e8040020380600202c040020f9290000c3
:020000040000fa
:101d4400b0f1ff3f08d0384a4ff49c7303fb0023e3
:101d540093f92430022b00d0704710b54ff49c73d4
:101d640003fb0023b3f90a30002b09db5a0903f003
:101d74001f03012101fa03f360322c4941f8223098
:101d8400294a4ff49c7303fb0023b3f90c30002b56
:101d940009db5a0903f01f03012101fa03f360323e
:101da400224941f82230204a4ff49c7303fb00235c
:101db400b3f90e30002b09db5a0903f01f0301218c
:101dc40001fa03f36032194941f82230164a4ff4fc
:101dd4009c7303fb0023b3f91030002b09db5a0971
:101de40003f01f03012101fa03f360320f4941f8a4
:101df400223004460c4a4ff49c7303fb0023012257
:101e0400da705b7a934207d007484ff49c7303fb64
:101e140004000023c37010bd034b4ff49c7000fbff
:101e24000430fef72bfaefe70002002000e100e0a7
:020000040000fa
:101e340070b582b000238df807300e2901d002b0ae
:101e440070bd14460646354bf42505fb0035d38892
:101e5400a5f8e830d5f8ec301b6c8021e869984788
:101e6400237803f01f03032be9d8dfe803f00222f1
:101e74002851237813f060020cd113f0800f04d1a1
:101e840021462846fff734fdd9e72146284600f0cd
:101e940029f9d4e7402a06d0202ad0d101212846a6
:101ea40000f00cffcbe722460e21284601f0b9f8da
:101eb400c5e722462179284600f092febfe7217942
:101ec40051b9237813f0600f1bd122469df80710f7
:101ed400284600f0e2fcb2e70df10702284600f0c4
:101ee40095ff0e4bf42202fb0636f37803f007034a
:101ef400052b01d10028e4d10121284600f0defea3
:101f04009de722469df80710284600f069fe96e7f3
:101f140022460e21284601f084f890e73803002079
:020000040000fa
:101f240038b590f9083013f1020f3cd005464469e6
:101f3400022b07d04268002a3cd1002184f8c41047
:101f44000f201ae094f8c4305bb1d4f8d83043b110
:101f5400d4f8e050ab4227d000220c21b4f8d000d2
:101f64009847012384f8c430264bc4f8d830238b17
:101f7400a4f8d03004f124010e20d4f8d830d4f8d9
:101f8400e050ab423ad00a460146b4f8d000984734
:101f94004023c4f88c30d4f8ec309b6b04f18802f5
:101fa4000021e069984738bdd4f8e42000210c20d2
:101fb400a847d6e794f8c430ebb1d4f8c830d4f8c5
:101fc400cc108b4202d300210d20d6e7d4f8d400e4
:101fd40004f12401184401f091f9d4f8c8006b68a5
:101fe4001844c4f8c800d4f8cc300021984234bf57
:101ff40001200d20c1e700210120bee7d4f8e42030
:08200400a847c5e7351e0000e6
:020000040000fa
:10200c002e4b00221a7403f500632d4a5a621a46ad
:10201c00536813f0080ffbd12a4b2b4a9a621a46cd
:10202c00536813f0100ffbd1264b4222c3f88420c7
:10203c001a4600bfd2f8843013f0400ffad0234b6d
:10204c0000229a6377225a631a46d36b13f0040f5b
:10205c00fbd11e4b022283f830201a46d36b13f0af
:10206c00020ffbd1194a136c03f00303032bfad1b3
:10207c00174b01225a711a46d37813f0010ffbd07b
:10208c00104b144a1a621a46536813f0040ffbd112
:10209c000c4b4122c3f8a8201a4600bfd2f8a83036
:1020ac0013f0400ffad00a4b6ff07f421a6140f2e6
:1020bc00ff725a61084a9a61704700bf00140040d1
:1020cc0006010100001c0040060130000010004019
:0c20dc00000800400701010057800100cf
:020000040000fa
:1020e80030b583b004460d46002301934b78062b88
:1020f80012d0082b50d0002b37d1a0f8bc30037871
:1021080003f0010390f8c02062f34103024602f88d
:10211800bc3f0192022043e0c068cb78013b062b0c
:1021280049d8dfe803f00410354848271d00237814
:1021380003f00e03022b0cbfc3680368019312203f
:10214800019971bb11e08b7894f8ae209a420cd9b2
:10215800d4f8b02052f823303bb1019358881fe0df
:10216800237803f07003102b23d00121204600f0c0
:10217800a3fd1ee0237803f07002102af5d103f0c6
:102188000e03022b0cbf036a436a01930a20d7e7a8
:1021980001aa00f043fbd3e700f1ad03019301204e
:1021a8000199ea88824228bf024692b2204600f08e
:0a21b800e9fd03b030bd0020c2e7ce
:020000040000fa
:0221c200704764
:020000040000fa
:1021c400002855d1002956d0c869002856d0f8b542
:1021d4002c4b01241c7200221a83dd7862f3020561
:1021e400dd70d8608e8a1e828d695d61187891f8e1
:1021f400207067f3061083f8c020c0b2204362f356
:10220400c7101870587803f12407c3f88870402762
:10221400c3f88c70c3f8984083f890201a4fc3f821
:102224009470c3f89c30194f1f679b675c6700f07c
:10223400fe0062f38200587083f8dc208a6ac3f8d7
:10224400ec20ca8ca3f8f02086b100241e4605e0d9
:1022540010350134e4b2338aa34207d9eb68002b6a
:10226400f6d01b69002bf3d09847f1e70020f8bda6
:102274004ff0ff3070474ff0ff3070474ff0ff30a2
:10228400704700bf38030020251f0000d12a00003a
:020000040000fa
:102294002f4a4ff49c7303fb002393f92430002b43
:1022a40054dd4ff49c7303fb0023db6b002b4dd0f8
:1022b40070b54ff49c7303fb00235d7a012d00d0ad
:1022c40070bd04464ff49c7303fb00235b6cfbb1ad
:1022d400984706461e4a4ff49c7303fb042393f865
:1022e40040308342ecd001281bd0194a4ff49c7330
:1022f40003fb04231b790bbb4ff49c7505fb0425de
:10230400eb6b00220921a86b984701232b7115e080
:102314000f4a4ff49c7303fb002393f84030012bc6
:10232400ced00b4b4ff49c7606fb0436f36b0022a5
:102334000821b06b9847002333712e46044b4ff4a9
:102344009c7000fb043080f84060b9e7704700bf20
:042354000002002063
:020000040000fa
:1023580010b582b0244b1b781bb1012b12d002b0f0
:1023680010bd224b1b7a002bf9d01f4c0020a07106
:102378004ff400731e4a04f10c01fff75ffc0123c0
:102388002370ece7194b1b7a2bb9174b00221a70f4
:102398000122da71e3e7144b9b7963b1144b1b7884
:1023a800542b1cd01049002088714ff40073104a38
:1023b8000c31fff743fc0c4b5b78002bcfd00a4b5a
:1023c800db79002bcbd0084900204870c871012365
:1023d80000931823074a1031fff71afbbfe7064b93
:1023e8001022da61dee700bff80500200c060020a5
:0c23f80000000020900600200080004142
:020000040000fa
:1024040030b583b09df81c5080b95068244ca0624c
:102414001068e0629268226300226263a263e2634e
:10242400204a2264042d03d0052d13d003b030bdff
:102434001b4a1160089a5279022a04d00a2af5d15b
:10244400174a1371f2e7089a9279022aeed1144ad4
:102454009374ebe7089b9a78d409db7803f00303c1
:10246400022b08d0032be1d1630023440c4c04eb72
:102474004304143405e0013404eb4403084c04eb36
:1024840043040846089b998822706180db78009198
:1024940003f00303002100f069fe01232371c5e763
:0824a400e804002020060020de
:020000040000fa
:1024ac0010b50738062809d8dfe800f01004093405
:1024bc0008084000204b586800f0bffe10bd1e4cb1
:1024cc00606800f03cfe00232372f7e71b4b1b6a8d
:1024dc0013f0200f1ad11a4bdb78002beed1184bce
:1024ec009b786bb1164a938801339bb29380952be2
:1024fc00e4d9134600229a7001225a70da70dde793
:10250c000f4b01229a7000229a80d7e70c4b0022c5
:10251c00da70d3e70b78012bd0d1074b01221a725a
:10252c0000220849104600f0d7fec7e70021024bf5
:10253c00586800f0bffbc1e70c060020008000418a
:08254c00f805002055250000f0
:020000040000fa
:1025540008b508290cd8dfe801f0050c131b2a3351
:102564003c0b240007221d491d4b586800f036fe21
:1025740008bd072219491a4b586800f005fcf7e713
:10258400184b1a600021164b586800f097fbefe7d0
:102594001288154b1a800021114b586800f08efbed
:1025a400e6e700210e4b586800f088fbe0e712686c
:1025b4000e4b1b699a42dbd10c4b0122da71d7e72f
:1025c40012680a4bdb689a42d2d1084b01229a71f5
:1025d400cee7064b01221a72cae700bfa806002004
:1025e4000c0600202c0600202a060020f8050020f6
:020000040000fa
:1025f400002845d110b50e2904d00f2936d00d2955
:102604002ad010bd1f4b1868137813f0200f16d072
:102614005378232b1cd8dfe803f016161b1b1b1b57
:102624001b1b1b1b1b1b1b1b1b1b1b1b1b1b1b1bf6
:102634001b1b1b1b1b1b1b1b1b1b1616161601210e
:1026440000f03cfbdde70f49002000f0a9f8d8e7d3
:10265400012100f033fbd4e70a4b1c6a002cd0d0d4
:102664005b6a002208211046a047cae7054b1c6a92
:10267400002cc6d05b6a002207211046a047c0e7a1
:08268400704700bfe8040020cc
:020000040000fa
:10268c00b0f1ff3f41d0214af42303fb002393f91f
:10269c000830002b39dd70b50446f42303fb00230e
:1026ac0093f8dc306bb1012b1fd1f42303fb002317
:1026bc001e8ad6b11548f42303fb04004569002497
:1026cc001ae0124bf42505fb0035d5f8ec301b68ed
:1026dc000f21b5f8f0009847e861b0f1ff3f04d046
:1026ec00012385f8dc3002232b7270bd10350134c8
:1026fc00e4b2a3b2b342f8d2eb68002bf6d0db689d
:10270c00002bf3d0a8889847f0e7704738030020d7
:020000040000fa
:10271c0008b5194b9847194b9847eff3108172b6cf
:10272c00174ad2f8883043f47003c2f88830bff3ec
:10273c004f8fbff36f8f01b962b6124a936823f0c3
:10274c00010393601346da6812f0010ffbd10d4bb5
:10275c0024225a6001229a6000f0c6fb0a4b23f037
:10276c007f03074a9360094b9847094b9847094bdd
:10277c00984700f090fefee7e3320000e3320000e1
:10278c0000ed00e00060004100000000392b00006b
:08279c00e3320000e33200000b
:020000040000fa
:1027a40038b50c465378232b35d8dfe803f02727b8
:1027b40034343434343434343434343434343434d5
:1027c4003434343434343434343434343434121902
:1027d400202c256ab5b1636a00221146a84711e08e
:1027e400256a7db1636a00220121a8470ae0256aaf
:1027f40045b1636a02320221a84703e0012120683f
:1028040000f05cfa38bd256a002dfbd0636a023201
:102814000321a847f6e70121206800f04ffaf1e709
:020000040000fa
:10282400f0b58f78c669d6f800c09cf80030023b3a
:10283400dbb25d08012b08d9047e013cb4fbf5f43e
:10284400e4b2bc4203d20020f0bd0024f9e727b96a
:10285400c2f800c09cf80000f6e7b1f804e0a8b2a2
:102864000028f1d0bcf80230734512d00cf10201fb
:102874000124631c9bb2a0420dd01c4631f8025fb8
:102884007545f6d107fb03f356f823301360187827
:0a289400dae70123f6e70020d6e79b
:020000040000fa
:10289e0010b504461179537893b9a0f8bc30d0f82e
:1028ae00ec305b6bc069984794f8bc3060f3000362
:1028be00214601f8bc3f0222204600f060fa10bd0e
:1028ce00012b07d0032b12d00c2bf8d1012100f0d5
:1028de00f0f9f4e75388002bf1d1d0f8ec30db6a35
:1028ee00c06998470021204600f0e3f9e7e75388d6
:1028fe00002be4d1d0f8ec309b6ac06998470021d8
:08290e00204600f0d6f9dae7db
:020000040000fa
:02291600704708
:020000040000fa
:10291800194bda6822f4e0621204120c42f0bf622a
:1029280042f40032da60bff35f8f62b6134ae021e7
:1029380082f850134ff48030906082f851134ff4ae
:102948000030906082f852134ff48020906082f833
:1029580053134ff4002191605a6a02435a625a692c
:1029680042f010025a615a6a42f400325a625a6ab4
:1029780042f480325a62704700ed00e000e100e066
:020000040000fa
:102988002de9f04f85b0d0f8b440678867b380462a
:102998000026b246b14635460fe094f8029094f806
:1029a80003a04146484600f03ff906460ae023786e
:1029b8001d44adb21c44af4216d994f801b0bbf126
:1029c800040fead0002ef2d0f368002befd0b268e3
:1029d800b0880294cdf804b0cdf800a0d3f800b0c8
:0e29e8004b464146d847e2e705b0bde8f08f08
:020000040000fa
:0229f600fee7fa
:020000040000fa
:1029f80010b584b0416901904368029390f908309a
:102a0800dab2012a0ad913f1030f20d013f1040f07
:102a18000cbf9f23a0238df80c3002e000238df813
:102a28000c3001eb01130c4a02eb83039a6b013a59
:102a38009a631c6a4cb101eb0111074b03eb81014e
:102a48004b6a01aa05214069a04704b010bd9e2326
:0c2a58008df80c30e5e700bfe80400201a
:020000040000fa
:102a640010b584b0416901904368029390f908302d
:102a7400dab2012a0ad913f1030f20d013f1040f9b
:102a84000cbf9f23a0238df80c3002e000238df8a7
:102a94000c3001eb01130c4a02eb83035a6b013a2d
:102aa4005a631c6a4cb101eb0111074b03eb810122
:102ab4004b6a01aa04214069a04704b010bd9e23bb
:0c2ac4008df80c30e5e700bfe8040020ae
:020000040000fa
:102ad00038b5446990f9083013f1020f2ad0054641
:102ae00094f90030002b0edb637813f0010f1ad03d
:102af00063786ff300036370d4f8ec30db6ca1787b
:102b0000e06998470fe0d4f8ec30db6894f8ac103b
:102b1000e069984723786ff3c7132370e3780422a2
:102b200062f30203e37095f908301bb96b680bb9c7
:062b300084f8c43038bd3a
:020000040000fa
:022b3600fee7b8
:020000040000fa
:102b38000e4a38b5002313600d4a0e4c13600e4a36
:102b48000e4d13600e4a13600e4a13600e4a53620c
:102b580013610123936000f0cffc00f0cdfcac4280
:102b680000d338bd54f8043b9847f8e734060020f2
:102b7800a40400206c020000a004002070020000e1
:0c2b8800980400209c040020a8040020f9
:020000040000fa
:102b94002de9f0410678c6f3420690f8ad80078a25
:102ba4004569dfb11035002405e00134e4b2103585
:102bb400a3b2bb4212d215f8103c1e42f5d015f850
:102bc4000f3c4345f1d155f8043c002bedd05b6834
:102bd400002bead035f80c0c9847e6e7bde8f08105
:020000040000fa
:102be40038b5044608461546214600f01ff8c0b122
:102bf400c36883b19b6843b1c4f8d8308088a4f813
:102c0400d0002a460e21984738bd2a460e21204678
:102c140000f007faf8e72a460e21204600f001faf0
:0c2c2400f2e70121204600f049f8ede73e
:020000040000fa
:102c3000f0b40d8a4a690c78c4f3420491f8ad608f
:102c4000cdb1002305e010320133dbb299b2a942c5
:102c50000dd211780c42f6d05178b142f3d191786f
:102c60008142f0d8d77839448842ecda00e000227b
:0a2c70001046f0bc70470022fae79e
:020000040000fa
:022c7a00fee773
:020000040000fa
:102c7c0038b5044600f0a5fb002c16db63090c49a3
:102c8c0051f8235004f01f04e54005f00105012222
:102c9c0002fa04f4203341f82340bff34f8fbff303
:102cac006f8f00f097fb284638bd0025f9e700bf71
:042cbc0000e100e053
:020000040000fa
:102cc00038b50c4600f02afbc8b1002280f8c420b9
:102cd000012c0cd0002444668466d0f8ec20956b5f
:102ce00000f164028021c069a847204638bdd0f8b1
:102cf000ec20926a8021c06990470020f6e76ff0cf
:042d00007400f3e781
:020000040000fa
:102d040010b500f0adfb00f00ff9fff77df9fff708
:102d140000fe09490020fef72bfc084c20600849fe
:102d24000020fff74dfa606000f0ccfb00f0a8fb38
:102d3400fff7f0fd10bd00bffc30000018060020b6
:042d44005430000007
:020000040000fa
:102d480009024300020100c0320904000001020226
:102d580001000524002001042402020524060001c4
:102d68000524010001070581031000020904010080
:102d7800020a00000007050202400000070582025f
:042d88004000000007
:020000040000fa
:102d8c0038b50d46144600f0c3fab8b1034600f14d
:102d9c00640245668466b0f8e810a1420bd0a142eb
:102dac0084bf01214167d3f8ec108c6b8021d8696a
:102dbc00a047002038bd02214167f4e76ff0740092
:022dcc00f8e726
:020000040000fa
:022dce00fee71e
:020000040000fa
:102dd00010b5054c227832b9044b13b10448aff357
:102de00000800123237010bddc05002000000000de
:102df0000000000008b5034b1bb103490348aff3c3
:102e0000008008bd00000000e00500200000000078
:020000040000fa
:102e100030b4d0f8b4004588b5b1002307e0847819
:102e20001470047823449bb220449d4209d944780d
:102e3000042cf4d0052cf4d184788c42f1d10120fb
:0c2e400000e0002030bc70470020fbe7e1
:020000040000fa
:102e4c0001eb4101094b03eb011282644a1c03ebb9
:102e5c000212c264023103eb01130365044b43619c
:102e6c00044b836100238371c3717047ac05002050
:082e7c002c0500206c0500206c
:020000040000fa
:102e840000b1704738b50b4d294651f8064b204622
:102e940000f0c7f905f10c01204600f0c2f905f174
:102ea4001401204600f0bdf905f11a01204600f096
:082eb400b8f938bde804002064
:020000040000fa
:102ebc0090b90c4b93f90830022b10d1094b93f8b5
:102ecc00de3013b14ff0ff3070470648012380f815
:102edc00de3080f8dd3070474ff0ff3070474ff038
:082eec00ff307047380300209d
:020000040000fa
:102ef40070b50b480b4d4ff6ff76016821b9436856
:102f040013b900f0fafa70bd83684268334000f1e7
:102f14000c0455f823302046984704eb8000ece776
:082f2400d4120000703300001c
:020000040000fa
:102f2c000b4b10221a6020221a61022283f84420d3
:102f3c00062283f84520012283f8582083f8592073
:102f4c00002283f83220772283f83c20704700bfa0
:042f5c0000800041b0
:020000040000fa
:102f600034034d006900630072006f006300680065
:102f700069007000200054006500630068006e0066
:102f80006f006c006f0067007900200049006e0040
:042f900063002e00ac
:020000040000fa
:102f940008b50a4b1b7803b108bd00210846fff7aa
:102fa4008bff064b5860b0f1ff3ff5d00022044977
:102fb40000f08ef8014b01221a70ede70c06002098
:042fc400ad24000038
:020000040000fa
:102fc8002e03530069006d0070006c00650020003e
:102fd8004300440043002000440065007600690077
:102fe800630065002000440065006d006f0000bfad
:020000040000fa
:102ff80001f00f03022b0ed8b0f1ff3f0dd01233b2
:1030080050f8233041f3031101f008011944c8793d
:0e30180000f001007047002070470020704754
:020000040000fa
:1030260070b5d0f8e040c0f8d840038ba0f8d03097
:1030360090f8dd30012b00d070bd002cfcd0164678
:0e3046000d46d0f8e42031462846a047f4e7b6
:020000040000fa
:10305400000000000000000000000000000000006c
:103064000000000001000000743400008030000003
:0c30740002000000000000003c060020ec
:020000040000fa
:103080005c33000001000000f0340000000000008c
:10309000000000000000000003000000bc3400003d
:0c30a00000000000000000000000000024
:020000040000fa
:1030ac0088b170b506460d4604682cb90023336010
:1030bc0070bda469002cf9d02572e368002bf8d000
:0830cc0020469847f5e7704724
:020000040000fa
:1030d40038b50d46144600f01ff950b1c0f8e05061
:1030e400c0f8e440d0f8ec209468024a0146c06974
:0830f400a04738bd451400009f
:020000040000fa
:1030fc00000000000000004101005000510052008f
:10310c00530002010000000000000000000000005d
:08311c000000000000000000ab
:020000040000fa
:10312400b0f1ff3f0dd001f00f03123350f82330fc
:1031340041f3031101f008011944c879c0f34000b8
:06314400704700207047f7
:020000040000fa
:10314a0010b500f0e6f868b10446d0f8ec30db6957
:10315a00c069984763786ff382036370e3786ff30b
:06316a000203e37010bd3a
:020000040000fa
:10317000f8b515461e4600f0d1f848b1d0f8ec304d
:103180001f6abdf8183032462946c069b847f8bdf5
:063190006ff07b00fbe77d
:020000040000fa
:02319600fee752
:020000040000fa
:1031980040b9074b5b7843b90548012343700023c6
:1031a800c36370474ff0ff3070474ff0ff307047f0
:0431b80000020020f1
:020000040000fa
:1031bc00b0f1ff3f0dd0826a0123837140f2fd33e1
:1031cc0093831d231383138923f001031b041b0c0e
:0431dc0013817047a4
:020000040000fa
:1031e00038b50d46144600f099f840b10346c0f8d2
:1031f000d4500020c3f8c800c3f8cc4038bd6ff0ed
:043200007400fbe774
:020000040000fa
:1032040070b50c46154600f087f838b1d0f8ec20bc
:10321400966b2a462146c069b04770bd6ff07c00aa
:02322400fbe7c6
:020000040000fa
:1032260038b50b7903b938bd0c460546097800f068
:1032360037f82178284600f024f800232371f2e7b6
:020000040000fa
:1032460010b500f068f850b10446d0f8ec309b6930
:10325600c0699847e378022262f30203e37010bd67
:020000040000fa
:02326600fee781
:020000040000fa
:1032680010b5064c2068fff711f86068fff70afaf6
:10327800fff78cfefff76cf810bd00bf18060020a2
:020000040000fa
:1032880010b50c4600f046f830b1d0f8ec20526a80
:0e3298002146c069904710bd6ff07b00fbe738
:020000040000fa
:1032a60010b50c4600f037f830b1d0f8ec20126caf
:0e32b6002146c069904710bd6ff07c00fbe719
:020000040000fa
:1032c40010b50023934206d113f0030018bf012068
:0e32d40000eb930010bdc45ccc540133f2e754
:020000040000fa
:0232e200704733
:020000040000fa
:1032e40020b931b1044b19625a6270476ff077000c
:0c32f40070476ff07c007047e804002079
:020000040000fa
:103300005ab110b40a44431e11f8014b03f8014f9f
:0c3310009142f9d15df8044b7047704702
:020000040000fa
:10331c00421e12f1030f05d890f8de20002a08bfd8
:08332c000020704700207047eb
:020000040000fa
:10333400034b1b781bb9024b01225a701a70704759
:043344003806002027
:020000040000fa
:1033480005240000852e0000f5250000000000007f
:043358003533000009
:020000040000fa
:10335c001201000202000040d8040a000001010220
:04336c00000100bf9d
:020000040000fa
:10337000f3330000c5320000f9340000f9340000d6
:04338000f93400001c
:020000040000fa
:1033840032b1c9b20244034603f8011b9342fbd194
:04339400704700bfbf
:020000040000fa
:10339800b0f1ff3f04d0437813b100234370c363f7
:0233a80070476c
:020000040000fa
:1033aa00b0f1ff3f04d0826a138943f0020313810c
:0233ba0070475a
:020000040000fa
:1033bc00b0f1ff3f1dbf836a188ac0f3ca0000201a
:0233cc00704748
:020000040000fa
:1033ce00eff3108072b6bff35f8fb0fa80f0400952
:0233de00704736
:020000040000fa
:1033e00018b1bff35f8f62b6704772b6bff35f8fdd
:0233f000704724
:020000040000fa
:1033f2000a440023914201d10020704701f8013ba9
:02340200f8e7e9
:020000040000fa
:1034040008b5024b1868fef79bfc08bd180600209f
:020000040000fa
:1034140008b5024b1868fef793fc08bd1806002097
:020000040000fa
:1034240008b5024b1868fef78bfc08bd180600208f
:020000040000fa
:1034340008b5024b1868fef783fc08bd1806002087
:020000040000fa
:10344400b0f1ff3f03d043780bb18163c26370478f
:020000040000fa
:10345400b0f1ff3f03d0836a41f080019972704755
:020000040000fa
:10346400024b40f204521a80704700bf00400041f2
:020000040000fa
:103474000301000200000000b034000048330000e3
:020000040000fa
:10348400024b00221a700122da717047f8050020fd
:020000040000fa
:0e349400b0f1ff3f14bf90f8340000207047e5
:020000040000fa
:0e34a20008b50020fff72dfcfff7ddfefce76c
:020000040000fa
:0c34b0000100000001000000010000000d
:020000040000fa
:0c34bc00f4340000602f0000c82f000056
:020000040000fa
:0c34c800014b00221a7070470c06002017
:020000040000fa
:0834d400011002200330044046
:020000040000fa
:0834dc0008b5fff776ff08bdfb
:020000040000fa
:0834e40008b5fff77bff08bdee
:020000040000fa
:0434ec0002010300d6
:020000040000fa
:0434f000482d000063
:020000040000fa
:0434f40004030904c0
:020000040000fa
:0434f80000207047f9
:020000040000fa
:0234fc00fee7e9
:020000040000fa
:0234fe00704715
:020000040000fa
:02350000704712
:020000040000fa
:0200000400807a
:044000003912003c35
:020000040000fa
:0200000400807a
:044004008000a82a66
:020000040000fa
:0200000400807a
:04400800ffffffffb8
:00000001FF
