:020000040000fa
:10000000f8ff03208d5300009f1e0000e722000030
:1000100067590000475a0000ef5b00000000000035
:100020000000000000000000000000008b650000e0
:100030007f580000000000008b6500008b65000009
:100040008b6500008b6500008b6500008b650000f0
:100050008b6500008b6500008b6500008b650000e0
:100060008b6500008b6500008b6500008b650000d0
:100070008b6500008b6500008b6500008b650000c0
:100080008b6500008b6500008b6500008b650000b0
:100090008b6500008b6500008b6500008b650000a0
:1000a0008b6500008b6500008b6500008b65000090
:1000b0008b6500008b6500008b6500008b65000080
:1000c0008b6500008b6500008b6500008b65000070
:1000d0008b6500008b6500008b6500008b65000060
:1000e0008b6500008b650000000000000000000030
:1000f000000000008b6500008b6500008b65000030
:100100008b6500008b6500008b6500008b6500002f
:100110008b6500008b6500008b6500008b6500001f
:100120008b6500008b6500008b6500008b6500000f
:100130008b6500008b6500008b6500008b650000ff
:100140008b6500008b6500008b6500008b650000ef
:100150008b6500008b6500000000000000000000bf
:10016000000000000000000000000000000000008f
:10017000000000000000000000000000000000007f
:100180008d7400009d740000ad740000bd7400000b
:10019000000000008b6500008b6500008b6500008f
:1001a0008b6500008b6500008b6500008b6500008f
:1001b0008b6500008b6500008b6500008b6500007f
:1001c0008b6500008b6500008b6500008b6500006f
:1001d0008b6500008b6500008b6500008b6500005f
:1001e0008b6500008b6500008b650000fd6f0000d3
:1001f0008b6500008b6500008b6500008b6500003f
:100200008b65000000000000000000008b6500000e
:100210008b6500008b6500008b6500008b6500001e
:100220008b6500008b6500008b6500008b6500000e
:100230008b6500008b6500008b6500008b650000fe
:100240008b6500008b6500008b6500008b650000ee
:100250008b6500008b6500008b6500008b650000de
:020000040000fa
:10026000f8b500bff8bc08bc9e467047d1670000d7
:10027000f8b500bff8bc08bc9e467047ad670000eb
:020000040000fa
:0802800024170000010000003a
:020000040000fa
:100288002de9f04782b04378002b00f0ab8006469a
:10029800c36b002b00f0b380846aa38b13f4007f38
:1002a80006d0238b13f4007f1cbf4ff40073a38385
:1002b800a38b13f4807f06d0238b13f4807f1cbf9d
:1002c8004ff48073a383a38b13f0800f05d0238b87
:1002d80013f0800f1cbf8023a383a38b13f0400f60
:1002e80005d0238b13f0400f1cbf4023a383a38b9f
:1002f80013f0200f05d0238b13f0200f1cbf2023f1
:10030800a383a38b13f0010f0ed0238b13f0010fdf
:100318000ad00123a383a3821023a3832383f36b2f
:1003280000220421b06b9847a38b13f0100f0ed056
:10033800238b13f0100f0ad01023a383a382012369
:10034800a3832383f36b00220321b06b9847a38b0d
:1003580013f0040f0ad0238b13f0040f06d00423e4
:10036800a383f36b00220721b06b9847a38b13f08c
:10037800080f03d0238b13f0080f4ad194f80731e4
:1003880013f0100f6ed094f8093113f0100f69d0e4
:10039800b36cda7922f00202da71da7b22f0020217
:1003a800da731868002857d0716d02680d684968bb
:1003b80015605160102284f80721402284f8042136
:1003c8000268d18800293ed1072286f8252002221a
:1003d80002720822426082691a60c368002b41d009
:1003e80098473fe007f0d2f8022802d802b0bde8eb
:1003f800f08707f0c5f8a64906f01afdf6e707f0fa
:10040800c5f80228f2d907f0bbf8a24906f010fd9a
:10041800ece7002186f82510237bc3f381039e4a6d
:10042800d35c86f83430602206f1540006f0f2ffff
:10043800f36b1bb100220221b06b98478023a37293
:100448000823a3839ae792f90020002ab4bf062262
:10045800022286f82520bae7012386f825301023e2
:1004680084f8083194f8073113f0020f30d094f86b
:10047800093113f0020f2bd0b36c9d6845b396f881
:100488002520082a16d0296a00296ad12a6912f07b
:10049800800f54d022f080022a61b36e23f47f5378
:1004a80023f03f03b366022384f80731802384f8de
:1004b80005310de0002286f825202a72a969996085
:1004c8006a60eb680bb128469847022384f8073125
:1004d80094f8073113f0010f00f09e8094f8093169
:1004e80013f0010f00f09880d6f8488096f8253070
:1004f800052b57d0d8f80050002d6fd0b76dc7f333
:100508000d072b6a6a68f918914284bfd71abfb2df
:10051800716d28683a46184406f0d6fe2b6a3b44ab
:100528002b626a68934260d2b8f80410b9425cd86a
:10053800402384f80431012384f807316ce0052254
:1005480086f8252000222a72aa699a60eb680bb106
:1005580028469847022384f80731402384f8043159
:10056800b6e79f89b94298bf8fb2706e6b68591a07
:100578002b683a46194406f0a7fe2b6adb1b2b6250
:10058800b36e23f47f5323f03f03b366b36ec7f310
:100598000d071f43b766022384f80731802384f8c8
:1005a800053195e7d8f8000088b10023037286f872
:1005b8002530012284f80721402284f80421826929
:1005c800c8f800204360c36833b3984724e0042385
:1005d80086f82530012384f808311de0032386f8c6
:1005e8002530012384f8083116e093422cbf0023fc
:1005f80001232b72072386f82530012384f807315d
:10060800402384f80431ab69c8f800302b6a6b606a
:10061800eb680bb12846984701256be0002303726d
:100628008369caf80830c36803b19847daf8082024
:100638002ab3106abaf80c30984298bf83b251684e
:10064800081a11680144b044c8f86410116ac91a3c
:100658001162d8f8682022f47f5222f03f02c8f8cd
:100668006820d8f86820c3f30d031343c8f868302e
:100678000a2389f80731802389f8053137e004eb2c
:1006880047170a2387f8083189f807312fe000bf98
:10069800f4490000544a00009c470000baf80c30a6
:1006a8009a4298bf93b241688a1a01681144b044cb
:1006b800c8f86410026ad21a0262d8f8682022f4d4
:1006c8007f5222f03f02c8f86820d8f86820c3f3a8
:1006d8000d031343c8f868300a2389f8073104eb7f
:1006e8004717022387f80931802389f80531013536
:1006f800032d59d0238c9bb22f46eb4013f0010fea
:10070800f5d004eb451393f80931dbb201934feab6
:10071800451804eb080999f80731dbb20093019af0
:10072800009b13f0080f14d012f0080f11d006eb3d
:10073800451393f86e3013f0020f0ad006eb4512fa
:1007480092f86e3003f0fd0382f86e30082389f8c2
:100758000731019a009b13f0020fc8d012f0020f64
:10076800c5d006f1480353f825a0daf80800002898
:10077800bdd0026a002a91d1036913f0800f3ff4bb
:100788004daf23f080030361b044d8f8683023f4f8
:100798007f5323f03f03c8f868300a2389f80731ec
:1007a800802389f80531a2e701251ee000230372a2
:1007b8008369c9f80030036a4360c36803b1984786
:1007c800d9f80030002b67d01a687f01f3195a65f1
:1007d800052388f80731274487f80931402388f82a
:1007e80004310135032d3ff401ae238c9bb22f4613
:1007f800eb4013f0010ff4d004eb451393f80931e3
:10080800dbb2019304eb451898f80731dbb200938b
:10081800009b13f0040f11d006eb451393f85e30dc
:1008280013f0020f07d006eb451292f85e3003f082
:10083800fd0382f85e30042388f80731019a009b93
:1008480013f0010fcdd012f0010fcad006f1480302
:1008580053f82590d9f800000028c2d006eb4713ba
:100868009a6dc2f30d02036a1344036241688b4216
:100878009cd2b9f8041091420bd80268134406ebd5
:1008880047177b65052388f80731402388f804312a
:10089800a7e7012303728be704eb4717052387f8c3
:0808a800083188f807319ce7d4
:020000040000fa
:1008b0002de9f04f2ded028bd2e9008997b0cde9fb
:1008c0000c138b6808930b690f90d1e900b6149351
:1008d000cd68002200234046494606f0e3f940b9be
:1008e0001bf0040f32d11bf00803059330d02023f6
:1008f00003e089f0004399462d232b70089b03f1f8
:10090000ff3a012305934c4929f0004300208b4214
:1009100008bf80451fd10d9b413b192b059b94bf00
:10092000464947492b44184606f046fe284606f03d
:1009300035fdcdf800b00246089b0f98294604f01b
:10094000adfd17b0bdec028bbde8f08f2b23d4e7d3
:10095000ddf820a0d7e7994208bf404509d20d9b9a
:10096000413b192b059b94bf364937492b44184608
:10097000dae7002200234046494606f0e3f99fedfe
:100980002c7b8ded027b48b300240d9806f0bdfd55
:10099000002ec3b20993c0f2d781672b5ad1002e23
:1009a00008bf0126231d02dbb442c0f2c6816527c1
:1009b00061e09ded067b8ded027b01340022234b2f
:1009c000dde9020102f0e8fd42464b46cde90601b1
:1009d00006f04cf90028ecd000271fe00446ede7b4
:1009e00014f5967f11da87b90022194b4046494623
:1009f00002f0d2fd002280468946154bdde9020156
:100a000002f0cafdcde902010127dde90201002261
:100a10000e4b01f05dfbcde90201013cdde9022353
:100a20004046494606f03ef90028d9d1ade700bf5f
:100a3000000000000000f03f0000f07fec740000b8
:100a4000f0740000f4740000f8740000000024400a
:100a500000005043099f662f06f101060bd1002cc0
:100a600004da9fedbd7b8ded027b0024099b672b93
:100a700018bf361966279ded027bcde906898dedfd
:100a80000a7b00230e93dde90a23dde9060101f06c
:100a90001ffb41ec100b03f083fe51ec100bb0ee8a
:100aa000408af0ee608a05f004fdb0ee480af0eef0
:100ab000680a069b1093079b159083f000431193df
:100ac0009ded0a1b9ded102b06f0c4fa53ec102b84
:100ad00083f000430793dde90a01a34b8ded060a7d
:100ae000002201f0f5fa0e9b01339e42cde90a0186
:100af0000e93c8d100229d4b02f04efdcde90a01b4
:100b000002460b46dde9060106f0ccf8002840f06d
:100b10008180dde90a23dde9060106f013f910b151
:100b2000159bda0776d5dde90a234046494601f0f0
:100b300097f80022cde906018b4bdde9020102f0b6
:100b40002bfddde90623cde90a0105f0e5ff0028cc
:100b500065d0662f04f1010465d10136a146a9ebe9
:100b600006034ff00008059e1093cdf80880109bf7
:100b7000994540f08180029b002b00f0c880a819a5
:100b80000022652f027029d1149b1499013b9442d5
:100b9000ea54c1f1030ebcbf644201220a21002cb9
:100ba00040f0bc800eeb030cbcf1000f00f3b680ec
:100bb000002a03f1ff3114bf2d222b226a540d9a13
:100bc000023b413a192a05eb030198bf45279e4293
:100bd0000f70aaf1020a01da06f0eefc0bf0030333
:100be000022b7ff4a3aebaf1000f7ff79fae284629
:100bf00006f0d4fb05eb0a03059a824240f3998084
:100c0000059b2b4418465246302106f007fc002372
:100c100008938be69fed527b8ded0a7b83e79ded7c
:100c2000027b8ded0a7b652f14bfa1464ff00009b2
:100c300095e7029a52b9b9f1000f07da0e992e2200
:100c40006a54012201360af1ff3a029205eb0801cb
:100c5000aa193144302001e002f8010b9142fbd186
:100c600008eb06023033aaeb080808f1ff3a561cdd
:100c7000ab544ff0000828e00c9b0e961b69053b17
:100c8000b3427ff678afdde90a23dde9060101f022
:100c90001ffa41ec100b03f083fd51ec100bb0ee8a
:100ca000408af0ee608a05f004fc0bf0100209287f
:100cb0000346a8bf09230243bbd1099a672ab8d1ca
:100cc000b9f1000fc2da08f10108069b1293079be5
:100cd000b0ee480af0ee680a83f0004313939dedee
:100ce0000a1b9ded122b06f0b5f953ec102b83f087
:100cf00000430793dde90a0100221b4b8ded060a34
:100d000001f0e6f909f1ff39cde90a012fe71bf0ff
:100d1000100f1ebf2e23ab55013630e7b4fbf1fc9c
:100d2000013b01fb1c443034ec540af1ff3a6446a9
:100d300035e72a5c1a5401385ee7002cbff69aaefc
:100d4000662788e606262de6099b672bfad01f4604
:100d5000062680e6aff30080000000000000f03fb0
:100d600000000000000000000000244000001440cb
:020000040000fa
:100d70002de9f04f95b0cde912030b68089392ed81
:100d8000007b4b680a938b6809930b690d93cc68c1
:100d90000022002351ec170b8ded047b05f082ff40
:100da00040b9089b580734d4089b13f0080732d089
:100db000202306e0dde9042181f00043cde904238e
:100dc0002d232370099b01275a1edde90403dff858
:100dd000f8b223f000414ff0000a594508bf5045d2
:100de0001bd1139b413b192b04eb070094bfb04967
:100df000b04906f0e1fbaf4806f0d0fa089b00933b
:100e00000246099b1298214604f048fb15b0bde844
:100e1000f08f2b23d5e7099ad7e7139b8b45a3f1d6
:100e2000410308bf82450b9309d2192b04eb07003d
:100e300094bfa149a14906f0bffba048dce73021df
:100e4000e1550b997b1c1a2934bf58217821e154b4
:100e5000931e079300220023dde90401023705f009
:100e600071ff002800f07b819fed8f7b8ded027b71
:100e700000250a9bdde90289002bdde904abb8bf40
:100e800018230e93002642464b465046594601f021
:100e90001ff941ec100b03f083fc42464b4651ec2a
:100ea000100b8ded100b02f077fb02460b465046ff
:100eb000594606f097fb824b82468b464046494690
:100ec000002202f069fb731c0c930a9b002b8046e6
:100ed000894606da002200235046594605f032ffc3
:100ee00028b90e9bb34200f3408101330c930022da
:100ef000744b4046494602f04ffb80468946024605
:100f00000b465046594605f0cdfe002840f02f8193
:100f100042464b465046594605f014ff30b1dde9d4
:100f2000100105f0c6fac10740f1218142464b4647
:100f3000dde9040100f094fecde90401dde90421be
:100f400021f00043604900208b4208bf82423ff4f9
:100f500048af4ff000083e46c246c1460d9b053bd8
:100f6000b342b34633d9dde90223dde9040101f0e0
:100f7000aff841ec100b03f013fc51ec100b8dedae
:100f80000e0b05f096fa002840f0f680b9f1000f3c
:100f900000f0f28008f10108dde90223dde90e012d
:100fa00002f0fafa02460b46dde9040106f01afbec
:100fb000434bcde904010022dde9020102f0ecfa25
:100fc0000c9b09f101094b45cde90201c6d1baf1eb
:100fd000000f1ed1b8f1000f00f015810a9b002b05
:100fe00040f31181089bda0700f10d81a3192e222d
:100ff0001a7008eb06022244302100bf03f8011fdb
:101000009a42fbd1079b46446fea080843440136e5
:1010100007930d9b0d990022a019013b9542027088
:10102000b8bf6d42e254c1f1020eb8bf01224ff0c9
:101030000a08002d40f0d7800eeb030cbcf1010f25
:1010400000f0d180002a03f1ff3114bf2d222b22a2
:1010500062540b9a023b1a2a04eb030134bf50225c
:1010600070229e420a7001da06f0a6fa089b03f08d
:101070000303022b14d1079ba3f10208b8f1000f60
:101080000edd204606f08af904eb0803b84280f230
:10109000b68042463021e01906f0c0f900230993da
:1010a0002046a9e6aff30080000000000000f03ffa
:1010b000dc740000e0740000e4740000e8740000d8
:1010c0000000b03f000020400000f07fcde9028921
:1010d0000135dde902231046194600f0c1fd8046c6
:1010e000894602460b46dde9040105f0dbfd0028d8
:1010f000ecd0dff82cb1dff82c914ff0000a4ff064
:101100000008dde90223dde9040105f0cbfd00283c
:101110003ff4afae52465b46dde9020102f03cfa15
:101120000022002305f00efe78b142464b46dde971
:10113000020102f031fa4246cde902014b46dde9f7
:10114000040102f029facde90401dde90201524669
:101150005b4602f021fa013dcde90201d1e79feda6
:101160002e7b05468ded027bb3e70c9e8be64ff0a0
:1011700000084ff00009d9e6baf1000f0bd1b9f120
:10118000000f08d02e2304f80b30079b013b0136db
:1011900007934ff0010a04eb0803a21933443021ee
:1011a00002e000bf02f8011b9a42fbd1079b06eb4d
:1011b000080ba3eb08080b9b0928d4bf303057302d
:1011c000192b06d840f02003613b192b01d806f0fb
:1011d000a3f908f1ff330bf1010604f80b000793a4
:1011e0004ff00008d8e60799b5fbf8fc013b08fb77
:1011f0001c5530350139e5540791654619e7225ce5
:101200001a54013842e7089bdb067ff502af2e2314
:10121000a3550136fde600bf000000000000f03fce
:081220000000e03f0000504314
:020000040000fa
:101228002de9f04f85b0431e13f1030f37d804465c
:10123800154692f90830022b42dc01f00f08b8f18c
:10124800020f4cd84eb2d0f828b008f1120350f86b
:1012580023a0371107f008077fb20aeb070999f8ae
:10126800073013f0010f00f0c4815268b9f8041078
:10127800b2fbf1f301fb1323002b3fd0002e80f2c9
:10128800bb81e378002b40f0bc81a37c012b4dd0bf
:1012980006f07cf9022869d86ff07e0005e006f0b8
:1012a80075f9022804d86ff07c0005b0bde8f08f0e
:1012b80006f066f9a64905f0bbfd6ff07c00f4e77f
:1012c80006f064f9022802d86ff07a00ede706f01c
:1012d80057f9a04905f0acfd6ff07a00e5e706f094
:1012e80055f9022802d86ff07b00dee706f048f9ce
:1012f800994905f09dfd6ff07b00d6e7002e0bdbca
:10130800c278002ac1d00022aa610321297203925f
:101318000292019200927de12b6913f0010fb0d087
:10132800002aaed043f080032b61aae74ff00003f8
:10133800a374b4f90a0005f08bf90090b4f90c0015
:1013480005f086f90190b4f90e0005f081f90290d4
:10135800b4f9100005f07cf903900023ab61032376
:101368002b72002ec0f25581002353e106f008f9d4
:101378007a4905f05dfd8fe793f90030002bb4bf83
:101388000623022384f8253076e1a66dc6f30d0600
:101398002b6a6a68f118914284bfd21a96b2616dbd
:1013a80028683246184405f08fff2b6a33442b62b5
:1013b8006a68934218d300232b72082384f82530d7
:1013c80001238bf807318bf8093140238bf804315e
:1013d8002b6a6b60ab694af80730eb68002b00f0aa
:1013e800c58028469847c1e0b9f80430b34217d9f8
:1013f80001232b72082284f825208bf807318bf8fb
:10140800093140238bf804312b6a6b60ab69c9f84a
:101418000030eb68002b00f0a98028469847a5e02b
:1014280001238bf807318bf8093140238bf80431fd
:101438009ce0002384f825302b7201238bf80731b8
:101448008bf8093140238bf80431ab694af807302f
:10145800eb68002b00f08a802846984786e094f8cd
:101468002530062b14d0072b40f08080082384f801
:101478002530a36e23f47f5323f03f03a366022392
:101488008bf807318bf8093180238bf805316de033
:101498002b6ab9f80460b34238bf9eb2ceb92b6a42
:1014a8009b1b2b62092384f82530a36e23f47f53fa
:1014b80023f03f03a366a26ec6f30d031343a3668e
:1014c80002238bf807318bf8093180238bf805311b
:1014d8004ce0606e3246296805f0f6fedfe7002e24
:1014e8000fdb29684fea4813e21851650beb4818df
:1014f800052288f8072188f80921402388f8043153
:1015080034e0286ab9f80430984298bf83b26a6810
:10151800101a2a6810444fea4812a1184866286a27
:10152800c01a2862886e20f47f5020f03f00886639
:10153800886ec3f30d0303438b660beb02030a2289
:1015480083f8072183f80921802283f805210de01b
:10155800182f0000682f0000c82f00002830000056
:101568001a469369002bfbd19561ea61e378002b59
:1015780045d1009b63b1b4f90a30002b08db590947
:1015880003f01f03012202fa03f3414a42f8213013
:10159800019b63b1b4f90c30002b08db590903f047
:1015a8001f03012202fa03f3394a42f82130029b51
:1015b80063b1b4f90e30002b08db590903f01f039f
:1015c800012202fa03f3324a42f82130039b63b145
:1015d800b4f91030002b08db590903f01f0301226e
:1015e80002fa03f32a4a42f821300123a3740020a7
:1015f8005be66ff0750058e66ff07c0055e600205a
:1016080053e60023ab6103222a72039302930193ea
:1016180000936b682b625af80720002aa1d1042393
:101628002b720023eb614af80750b8f1000f7ff4e2
:1016380056af9e42fff613af94f82530032b3ff4c4
:10164800a4ae042b3ff4f5ae012b8fd1626d2b684d
:101658001168526819605a6040238bf804311023ce
:101668008bf807318bf809312b689a79002a7ff4b7
:1016780083ae072384f82530ab694af80730022384
:101688002b72eb68002b3ff471af284698476de743
:0416980000e100e08d
:020000040000fa
:10169c002de9f041aeb00646154605910027059997
:1016ac000b78002b00f0fa8000244ff0ff33cde9cb
:1016bc0009430eab0c9380230b940d930b5d0bb174
:1016cc00252b26d134b12246304605f011fd059b61
:1016dc0023440593059b1a78252a40f0d78003f103
:1016ec000108cdf81480059803782b2b1ad025d837
:1016fc00202b1bd0232b1dd02a2b27d004f01cff12
:10170c000b90059b1a78303a092a2ed80133059391
:10171c00f7e70134d2e7099b43f001030130099349
:10172c000590e0e7099b43f00403f7e7099b43f0be
:10173c000803f3e7099b43f01003efe72d2bead0e6
:10174c00302bd9d1099b43f00203e7e72b681a1d14
:10175c001b682a600130002b05900b9305da099a5f
:10176c005b4282f0010209920b93099bda0744bf9a
:10177c0023f002030993059b1a782e2a0dd100221f
:10178c00581c0a9205905a782a2a25d102330593bf
:10179c002b681a1d1b682a600a9305a805f098f996
:1017ac00059b0390187805f0aafe6928039979d057
:1017bc0032dc632800f0cb8019dc252800f0d980be
:1017cc00612853d000234ff0ff32cdf814800993d9
:1017dc000b930a920093d4e004f0aefe0a90059ba2
:1017ec001a78303a092ad8d801330593f7e76428d8
:1017fc0058d06728e6dc2a4606a805f03bfc0028f2
:10180c0000f0a180059b5a1c05921b7806aa09a919
:10181c003046fff747f838e0702873d015dc6e2897
:10182c0000f08c806f28cdd12b46002206a803f047
:10183c004bfa002800f08780059b06aa013309a902
:10184c003046059304f050f81fe075283ad07828fc
:10185c0048d07328b6d1802975d1059b2a680133ed
:10186c000593131d2b60126800237de02a4606a801
:10187c0005f000fc002866d0059b5a1c05921b78cd
:10188c0006aa09a93046fff76dfa04443c44a74266
:10189c007add3e4b4f221a604ff0ff3738462eb0a0
:1018ac00bde8f0812b46012206a803f00dfa0028b2
:1018bc0049d0059b06aa013309a93046059303f0cc
:1018cc0001fbe2e72b46002206a803f0fdf90028f5
:1018dc0039d0059b06aa013309a93046059304f0bb
:1018ec00a5fcd2e72b46002206a803f0edf950b375
:1018fc00059b5a1c05921b7806aa09a9304602f0d2
:10190c0095f8c2e72b460022f02106a803f0dcf97b
:10191c00c8b1059b01330593dde9062313430bd1b5
:10192c001b4805f035fd099b009319490b9b02469a
:10193c00304603f0adfda8e77823dde72b463a19d6
:10194c0006a803f0a3fe059b013305939ee78029af
:10195c00f9d1059b013305932b681a1d1b682a606e
:10196c008df8183006aa012309a9304604f032fc80
:10197c008be78029e7d1059b01330593099b0093e5
:10198c000b9b04490122d3e7274688e6a40a0020d2
:08199c00dc750000e27500009b
:020000040000fa
:1019a4002de9f04f099f154604468e461e46002b2e
:1019b40040f0cc808a42b2fa82fc4cd9bcf1000fd0
:1019c4000bd0ccf1200801fa0cfe20fa08f802fa38
:1019d4000cf548ea0e0e00fa0cf44fea15491ffa0a
:1019e40085f8befbf9fa210c09fb1ae30afb08fb94
:1019f40041ea03439b452ad9eb180af1ff3004d28c
:101a04009b4502d9aaf102002b44a3eb0b03a4b219
:101a1400b3fbf9f209fb123302fb08f844ea03446e
:101a2400a04516d92c1902f1ff3303d2a04501d9e0
:101a3400931e2c44a4eb080443ea004027b124fa83
:101a44000cf400233c607b603146bde8f08f5046c7
:101a5400dbe71346eee702b9ffdebcf1000f2ed13f
:101a64008b1a01264fea154eaab2b3fbfef8210cdd
:101a74000efb183308fb02f941ea0343994561d987
:101a8400eb1808f1ff3004d2994502d9a8f10200fd
:101a94002b44a3eb0903a4b2b3fbfef10efb1133f9
:101aa4004a4344ea0344a2424ed92c1901f1ff33bc
:101ab40003d2a24201d98b1e2c44a41abce7ccf158
:101ac400200e02fa0cf521fa0ef901fa0cf320fab1
:101ad4000efe4eea03034fea154800fa0cf4b9fb74
:101ae400f8f11ffa85fe08fb1192180c01fb0ef6a3
:101af40040ea0242964221d9aa1801f1ff3003d2ea
:101b0400964201d9881e2a44921b9bb2b2fbf8f973
:101b140008fb192209fb0efe43ea02439e450fd936
:101b2400eb1809f1ff3604d29e4502d9a9f1020649
:101b34002b44a3eb0e0346ea004693e70846e3e78b
:101b44004e46f6e74046a4e70b46b6e78b4206d975
:101b5400002f7ed00026c7e90001304674e7b3faaf
:101b640083fcbcf1000f0fd18b4201d3824209d810
:101b7400841a61eb030e0120002f6dd0c7e9004edb
:101b8400002661e76046f7e7ccf1200e03fa0cf378
:101b940022fa0ef521fa0ef41d4301fa0cf320fa91
:101ba4000ef10b434fea154a00fa0cf6b4fbfaf9ae
:101bb4001ffa85f80afb19401c0c09fb08f144eada
:101bc4000044a14202fa0cf23fd92c1909f1ff306a
:101bd40004d2a14202d9a9f102002c44641a9bb296
:101be400b4fbfaf90afb194409fb08f843ea044177
:101bf40088452cd9691809f1ff3304d2884502d9e4
:101c0400a9f10203294443ea0040a1eb0801a0fb27
:101c140002894945c2464c4602d306d1464504d200
:101c2400b8eb020a69eb05040138afb1b6eb0a035d
:101c340061eb040606fa0efe23fa0cf34eea0303e4
:101c440026fa0cf6c7e900369ae74846c6e74b463b
:0c1c5400d9e73e463846f7e63e46f5e686
:020000040000fa
:101c600030b591ea030f00f18280841a71eb030c06
:101c700005d2121953eb0c03001b71eb0c0140f25f
:101c8000000ccff6e07c1cea430f52d0bceb410fb6
:101c90005fd90c0da4eb135e5ff0010c6cf31f51c8
:101ca0006cf31f53def1200c2ad303fa0cf5401914
:101cb00041f1000122fa0ef5401923fa0ef56941af
:101cc00012fa0cf2cd0208d349085fea30005fea4d
:101cd000320228bf42f001020134013c5fea500c9d
:101ce00072f1004250f1000051eb04514ff4001327
:101cf00013eb410f38bf30bd6ff31301002030bd2f
:101d0000bef1200ebef1200f1ed223fa0ef54019af
:101d100041f10001cef1200c124218bf012203fa5a
:101d20000cf52a43cee711ea5c0f04bf0020002126
:101d300030bd1cea410f04bf01f00041002030bd5e
:101d400001f00041002030bd21f4801101eb04516d
:101d500030bd004218bf41f00101bceb410f08bf8c
:101d600030bd4ff0fe4141f47801002030bd83f0da
:101d70000043841a71eb030e07d28ef0004e001b55
:101d800071eb0e01121953eb0e0340f2000ccff66b
:101d9000e07c1cea430fc6d0bceb410f72d90c0d9e
:101da000a4eb135ec90241ea5051c00241f0004168
:101db000db0243ea5253d20243f00043def1200c2f
:101dc00041d312fa0cf522fa0ef203fa0cf542eaac
:101dd000050218bf42f0010223fa0ef3801a99415e
:101de000e30ac4f30a0411f0404f03d418d0013cb5
:101df00040004941013c23d44205c00a40ea415019
:101e0000c90a51eac3715fea500c72f1004250f105
:101e1000000051eb045130bd01002fd00020203cc8
:101e20000029f9d0b1fa81fcdcf1200e11fa0cf195
:101e300030fa0ef510fa0cf02943a4eb0c04d9e7a4
:101e40000020d90730bdaef1200ebef1200f0dd21b
:101e5000cef1200c03fa0cf533fa0ef32a4318bf27
:101e600043f00103c01a61f10001b9e721f000411c
:101e7000c00a40ea4150c90a01eb045130bd0020bc
:101e8000002130bd004218bf41f00101bceb410f01
:0e1e90007ff467afbceb430f3ff463af30bd90
:020000040000fa
:021e9e00fee75d
:020000040000fa
:101ea000002840f00d81f8b50246864b1b7c042bc0
:101eb00000f2e080dfe813f0050026005800de00a5
:101ec000d800804b1b68b3f1ff3f03d07d4b01224c
:101ed0001a74cfe0002004f089fd022840f0ca8087
:101ee0000321002003f07cf9764b1860b0f1ff3f2e
:101ef00000f0c0800022744904f0d8fc714b01222c
:101f00001a74b7e06f4b1b79002b00f0b3806d4b58
:101f1000186804f079ff022817d16a4b40229a60b2
:101f20006848002380f828308368026b00f12001a4
:101f3000c06802f0d1f998b9624b1b6ab3f1ff3f58
:101f40000ed0604b02221a7494e05e4b186804f0c5
:101f50005bff0128e4d15b4b4ff400729a60dfe72e
:101f6000584b04221a7485e0564b1b796bb3554bc2
:101f700093f82830002b41d1524b93f85a30012b63
:101f800078d1504b002283f85a2093f858302bb167
:101f90004c4b93f82930002b00f08680494b93f886
:101fa00029302bb1474b002283f8292083f8582091
:101fb000002003f05df90446444805f09ffa002c28
:101fc00058d1404b04221a7454e03e4b93f85a30d7
:101fd000012b0ed03b48012303744ff0ff32026205
:101fe000426280f8283080f829300c3005f086fafb
:101ff00040e0344b002283f85a20ebe7314bdf6a94
:1020000093f85a30012b35d12e4b002183f85a100a
:1020100097b1104605e09d6b2e551965013087423a
:102020000ad0196b0e5c1c6d611c1d6ca94228bf87
:1020300011465d6d8d42eed12248002380f8283094
:102040004ff0ff3303628368026b00f12001c06828
:1020500002f042f960bb1b4b1b6ab3f1ff3f27d074
:102060001a4805f04bfa87e7164b1b791bb1154b45
:1020700001221a74f8bd134b93f85a30012b0ed07d
:102080001048012303744ff0ff320262426280f86d
:10209000283080f829300c3005f030fae7e7094b9a
:1020a000002283f85a20ebe7084805f027fae1e719
:1020b000044c04f10c0005f021fa04232374d9e741
:1020c000704700bfa0080020015f0000ac0800209e
:020000040000fa
:1020d000f0b581ea030e0ef0004e40f20007cff695
:1020e000e07717ea41051ebf95ea070f17ea430498
:1020f00094ea070f00f0c5806d0da5eb545707f566
:1021000080674ff0004646eac12444ea5054c002ba
:1021100046eac32343ea5253d202801a9c4104d2b6
:102120000018644180185c41013f5b084fea3202ad
:102130000025002140f001004ff0070604e0801a5e
:102140009c4136d340416441801a9c4136d3404182
:102150006441801a9c4136d340416441801a9c41bd
:1021600036d340416441801a9c4136d3404164419a
:10217000013e17d0801a9c4136d340416441801af9
:102180009c4136d340416441801a9c4136d3404142
:102190006441090201eb156190ea052520f0ff007a
:1021a0004540cce7801a9c4156d335e080185c410d
:1021b000c8d20018644180185c41c8d2001864413c
:1021c00080185c41c8d20018644180185c41c8d2b4
:1021d0000018644180185c41c8d200186441013e77
:1021e00017d080185c41c8d20018644180185c4147
:1021f000c8d20018644180185c41c8d200186441fc
:10220000090201eb156190ea052520f0ff00454029
:10221000cce780185c411fd3420918bf44f0010489
:10222000490101ebd56100f01f0000eb451021f4de
:10223000801141ea0e01013041f10001244208bf42
:1022400020f00100b7f5006f3eda013f49dd01ebf8
:102250000751bde8f0407047490101ebd56100f03e
:102260001f0000eb451021f4801141ea0e01b7f583
:10227000006f29da013f34dd01eb0751bde8f04082
:102280007047004218bf41f00101124218bf43f0ed
:102290000103b7eb410f2cbfb7eb430f1ce0b7ebcb
:1022a000410f04bfb7eb430f16e017ea410f04bf1d
:1022b00017ea430f10e017ea410f12d017ea430f55
:1022c00002d0b7eb430f0cd04ef0fe4141f4700149
:1022d0000020bde8f04070474ff0fe4141f4780126
:0622e000f6e77146f4e789
:020000040000fa
:0222e600fee711
:020000040000fa
:1022e8002de9f04704460d4601f00f06022e01d9ec
:1022f800102912d1b4f1ff3f1ed0a76ae378002b52
:1023080040f09280a37c012b25d005f03ff90228ec
:1023180037d86ff07e00bde8f08705f037f902285e
:1023280002d86ff07b00f6e705f02af96d4904f052
:102338007ffd6ff07b00eee705f028f9022802d850
:102348006ff07c00e7e705f01bf9674904f070fdc2
:102358006ff07c00dfe70023a374b4f90a0004f0ef
:1023680077f98046b4f90c0004f072f98146b4f9a3
:102378000e0004f06df98246b4f9100004f068f913
:1023880056e005f0fdf8594904f052fdc1e7102365
:1023980087f8083187f8073104f148060022944687
:1023a8007f2500bf07eb421383f800c183f808516b
:1023b80083f8075156f8043bd97921f00101d97106
:1023c800d97b21f00101d9730132032aead144e013
:1023d8006db2002d18db07eb461797f8003103f0b4
:1023e800f80387f80031052387f8073187f80831a3
:1023f800123654f826302d1105f008051d44eb79e6
:1024080023f00103eb7128e007eb461797f800313a
:1024180003f08f0387f800310a2387f8073187f81c
:102428000831e5e7002076e70020824681468046ad
:10243800102dacd0002ecbd17f2387f8083187f838
:102448000731002387f80031a36cda7922f0010202
:10245800da71da7b22f00102da73e378002be1d13a
:10246800b8f1000f0cd0b4f90a30002b08db590979
:1024780003f01f03012202fa03f31d4a42f8213038
:10248800b9f1000f0cd0b4f90c30002b08db590956
:1024980003f01f03012202fa03f3154a42f8213020
:1024a800baf1000f0cd0b4f90e30002b08db590933
:1024b80003f01f03012202fa03f30d4a42f8213008
:1024c80060b1b4f91030002b08db590903f01f0381
:1024d800012202fa03f3064a42f821300123a374c9
:1024e800002018e7943d0000f03d0000503e000039
:0424f80000e100e01f
:020000040000fa
:1024fc002de9f04f83b001f00f05022d18d80446da
:10250c000e46b0f1ff3f24d0d0f8288005f112031d
:10251c0050f82370c378002b40f0b480837c012bdf
:10252c0026d005f031f8022839d86ff07e0005e08e
:10253c0005f02af8022804d86ff07b0003b0bde840
:10254c00f08f05f01bf8614904f070fc6ff07b0014
:10255c00f4e705f019f8022802d86ff07c00ede7db
:10256c0005f00cf85a4904f061fc6ff07c00e5e7cb
:10257c0000238374b0f90a0004f068f80190b4f9f0
:10258c000c0004f063f88246b4f90e0004f05ef817
:10259c008346b4f9100004f059f8814678e004f051
:1025ac00edff4c4904f042fcbfe7f72388f80431f7
:1025bc007f2388f80731fb7923f00203fb716ff05e
:1025cc000301384604f080fdfb7b23f00203fb7310
:1025dc006ff0030107f1080004f076fde378002b9f
:1025ec004ed1019b63b1b4f90a30002b08db5909b9
:1025fc0003f01f03012202fa03f3374a42f8213099
:10260c00baf1000f0cd0b4f90c30002b08db5909cf
:10261c0003f01f03012202fa03f32f4a42f8213080
:10262c00bbf1000f0cd0b4f90e30002b08db5909ac
:10263c0003f01f03012202fa03f3274a42f8213068
:10264c00b9f1000f0cd0b4f91030002b08db59098c
:10265c0003f01f03012202fa03f31f4a42f8213050
:10266c000123a374002069e708eb4515202385f8a6
:10267c000431402385f80731022385f80431ade796
:10268c0000205be74ff00009cb46ca46cdf804901a
:10269c00002d8ad076b2301100f008003844c3798e
:1026ac0023f00203c3716ff0030104f00dfd002e43
:1026bc00dadb08eb4515102385f80431202385f867
:1026cc000731012385f8043188e700bf3049000049
:0c26dc0090490000643f000000e100e0b5
:020000040000fa
:1026e8002de9f04f83b001f00f06022e17d80446eb
:1026f8000d46b0f1ff3f23d0d0f8289006f1120321
:1027080050f82380c378002b66d1837c012b26d018
:1027180004f03cff022839d86ff07e0005e004f091
:1027280035ff022804d86ff07b0003b0bde8f08fb6
:1027380004f026ff5a4904f07bfb6ff07b00f4e7b6
:1027480004f024ff022802d86ff07c00ede704f0c3
:1027580017ff544904f06cfb6ff07c00e5e7002399
:102768008374b0f90a0003f073ff0190b4f90c0008
:1027780003f06eff8246b4f90e0003f069ff83464a
:10278800b4f9100003f064ff074629e004f0f8feee
:10279800454904f04dfbbfe7202389f80531102394
:1027a80089f805316ff00201404604f08ffc98f873
:1027b800073043f0020388f807306ff0020108f190
:1027c800080004f083fc98f80f3043f0020388f8ff
:1027d8000f3021e00020a8e70027bb46ba46019742
:1027e800002ed9d06db2002d06f1080609eb461966
:1027f800b4bf2023102389f805302d1105f00805f2
:10280800a8446ff00201404604f060fc98f80730d5
:1028180043f0020388f80730e378002bdad1019bf4
:1028280063b1b4f90a30002b08db590903f01f0320
:10283800012202fa03f31d4a42f82130baf1000fcf
:102848000cd0b4f90c30002b08db590903f01f0336
:10285800012202fa03f3154a42f82130bbf1000fb6
:102868000cd0b4f90e30002b08db590903f01f0314
:10287800012202fa03f30d4a42f8213067b1b4f994
:102888001030002b08db590903f01f03012202fa5c
:1028980003f3064a42f821300123a374002044e7d9
:1028a800a83e0000043f0000643f000000e100e093
:020000040000fa
:1028b800400a00201c00000000000000000000206a
:1028c80000020000000000002c070020810000002a
:1028d80000000000000200200002000000000000cc
:1028e800b007002081000000000000005c0a002002
:1028f80010000000000000008a0a0020020000000a
:1029080000000000ad0700200100000000000000ea
:10291800380500200001000000000000ae0700207c
:1029280001000000000000008c0a002008000000e0
:1029380000000000340800206c00000000000000c7
:102948004c0900204400000000000000800a00201c
:102958000a00000000000000ac0a0020020000008d
:102968000000000000040020380100000000000002
:1029780090090020b000000000000000b00a00200c
:102988005000000001000000794f00008d65000034
:10299800ed670000c96e0000f56e0000a96d00002b
:1029a8002d6800005d340000792a0000e92200004b
:1029b800e9260000fd240000555c0000d1650000f8
:1029c80029120000a12d0000252c0000216f000015
:1029d800917100000000000038060020f40000009b
:1029e80000000000a80a002001000000000000000c
:1029f800780a00200800000000000000940a002067
:102a080008000000000000006c0a00200c00000014
:102a180000000000af0700200100000000000000d7
:102a2800310800200100000000000000a00800207c
:102a38005c000000000000009c0a00200400000068
:102a480000000000fc08002050000000000000000a
:102a5800a00a00200800000000000000000000009c
:102a68000000000066666666666666666666666696
:020000040000fa
:102a78002de9f04101f00f07022f50d8a3f1080407
:102a8800a4b2b4f57e7f00f2c080b0f1ff3f55d00c
:102a9800866a082b61d9002508240135edb2640047
:102aa800a4b2a342f9d807f1120450f82440002a2e
:102ab80055d12260a380a271e17941f00101e17151
:102ac800a260a381a273e37b43f00103e37386f85a
:102ad8000021112386f80031836d23f0e0438365dc
:102ae800836e23f0e0438366836d2d0705f0e04590
:102af8002b438365836e1d438566436943658369fc
:102b08004366836d23f000438365836e23f000439f
:102b18008366132386f809311046bde8f08104f076
:102b280035fd022802d86ff07b00f6e704f028fd97
:102b3800374904f07df96ff07b00eee704f026fddd
:102b4800022802d86ff07c00e7e704f019fd31494c
:102b580004f06ef96ff07c00dfe70025a3e749b2c7
:102b68004fea211c0cf0080c4ffa8cfc04eb0c0efd
:102b78004ff0000844f80c80aef804308ef80620b8
:102b88009ef8073043f001038ef80730414527dbf4
:102b980006eb471696f8003103f0f80386f8003183
:102ba80096f800311c4c14f81220134386f80031b3
:102bb800402386f80531c90f01eb470700eb0710e2
:102bc800836d23f0e0438365826d2b0703f0e043b8
:102bd80013438365836d23f00043836500209ce7de
:102be80006eb471696f8003103f08f0386f800319c
:102bf80096f80031084c04eb42025278134386f8e9
:102c08000031802386f80431d5e76ff07b0084e734
:0c2c1800b44a0000104b0000c47500001e
:020000040000fa
:102c24002de9f04701f00f03022b14d804460d469a
:102c3400b0f1ff3f1fd0123350f82360c378002b4c
:102c440062d1837c012b25d004f0a2fc022853d846
:102c54006ff07e0005e004f09bfc022803d86ff0bf
:102c64007b00bde8f08704f08dfc484904f0e2f8ed
:102c74006ff07b00f5e704f08bfc022802d86ff0bc
:102c84007c00eee704f07efc414904f0d3f86ff0d9
:102c94007c00e6e700238374b0f90a0003f0dafc51
:102ca4008246b4f90c0003f0d5fc0746b4f90e00d3
:102cb40003f0d0fc8046b4f9100003f0cbfc81464d
:102cc40045f3031000f008006ff00101304404f0f4
:102cd400fff9e378b3b9baf1000f24d0b4f90a309c
:102ce400002b20db590903f01f03012202fa03f32e
:102cf400284a42f8213016e004f044fc264904f046
:102d040099f8a5e70020ace741f3031000f00800b0
:102d14006ff00101304404f0dbf9e7780fb10020d3
:102d24009fe7b946b84667b1b4f90c30002b08db0d
:102d3400590903f01f03012202fa03f3154a42f86a
:102d44002130b8f1000f0cd0b4f90e30002b08dba1
:102d5400590903f01f03012202fa03f30d4a42f852
:102d64002130b9f1000f0cd0b4f91030002b08db7e
:102d7400590903f01f03012202fa03f3054a42f83a
:102d840021300123a37400206be700bfbc3f000087
:0c2d94001440000000e100e0704000006e
:020000040000fa
:102da0002de9f843b0f1ff3f14d005460c4601b3be
:102db00091f90830012b48ddc378002b4ad1837c80
:102dc000012b25d004f0e6fb022838d86ff07e00f6
:102dd000bde8f88304f0defb022802d86ff07c0027
:102de000f6e704f0d1fb484904f026f86ff07c00c8
:102df000eee704f0cffb022802d86ff07c00e7e793
:102e000004f0c2fb414904f017f86ff07c00dfe7e3
:102e100000238374b0f90a0003f01efc0746b5f9dd
:102e20000c0003f019fc8046b5f90e0003f014fc09
:102e30008146b5f9100003f00ffc06460ee004f0e1
:102e4000a3fb334903f0f8ffc0e76ff07c00bfe756
:102e50000020bde70026b146b0463746fe23237268
:102e600000236360e36963b1a2699a61a3690bb14e
:102e7000e269da610023e361a361e3680bb12046f4
:102e80009847eb78002be3d167b1b5f90a30002bf6
:102e900008db590903f01f03012202fa03f31d4a5c
:102ea00042f82130b8f1000f0cd0b5f90c30002bee
:102eb00008db590903f01f03012202fa03f3154a44
:102ec00042f82130b9f1000f0cd0b5f90e30002bcb
:102ed00008db590903f01f03012202fa03f30d4a2c
:102ee00042f8213066b1b5f91030002b08db5909e2
:102ef00003f01f03012202fa03f3064a42f82130cd
:102f00000123ab74002063e7d84300003444000081
:082f10008444000000e100e030
:020000040000fa
:102f18000d0a5553422055534246535631204465b5
:102f280076696365204472697665723a20496e76df
:102f3800616c69642068616e646c6520696e204408
:102f480052565f555342465356315f44455649439e
:102f5800455f4952505375626d697428292e0000e7
:102f68000d0a555342205553424653563120446565
:102f780076696365204472697665723a204465769d
:102f88006963652049525020697320616c726561dc
:102f9800647920696e2075736520696e20445256e5
:102fa8005f555342485356315f4445564943455f40
:102fb8004952505375626d697428292e000000002b
:102fc8000d0a555342205553424853563120446503
:102fd80076696365204472697665723a20456e6445
:102fe800706f696e74206973206e6f742070726fd1
:102ff800766973696f6e656420666f7220696e20ea
:103008004452565f555342485356315f44455649da
:1030180043455f4952505375626d697428292e00e3
:103028000d0a5553422055534246535631204465a4
:1030380076696365204472697665723a204d7574c5
:103048006578206c6f636b206661696c65642069c4
:103058006e204452565f555342465356315f44459d
:10306800564943455f4952505375626d6974282922
:04307800000000bf95
:020000040000fa
:10307c0030b583b000286ad1514b1b78002b75d129
:10308c004f4b01229a741a7083f824204c689c626e
:10309c00c87c587200205870d8631871b1f90a5066
:1030ac005d81b1f90c509d81b1f90e50dd81b1f902
:1030bc0010501d82d87022709a6a937813f0010f09
:1030cc00fbd10a23d3703f4b1b680193019b03f088
:1030dc001f031f2b08bf0523394a906a028d42ea51
:1030ec0083130385019bc3f344131f2b08bf1d23bc
:1030fc00334a926a108d03431385019bc3f38223d9
:10310c00072b08bf03232e4a906a028d42ea033331
:10311c0003850b7a2bb12a4b9a6a137843f004037c
:10312c001370274b5b7a012b2fd0254a916a0b78b1
:10313c0043f002030b70926a937813f0020ffbd1e9
:10314c001f4b022283f82420002003b030bd04f072
:10315c001bfa022802d84ff0ff30f6e704f00efa03
:10316c00194903f063fe4ff0ff30eee704f00cfa60
:10317c00022802d84ff0ff30e7e704f0fff91349bb
:10318c0003f054fe4ff0ff30dfe70d4b9a6a03f16a
:10319c0054005062002283f840204a6a5a649a6aaa
:1031ac0013899bb223f00c03897c032908bf43f0dd
:1031bc0004039bb213810021014803f0e1fcb4e746
:1031cc0000040020840080001450000060500000b7
:020000040000fa
:1031dc0010b5b0f1ff3f63d00446484a4ff49c73de
:1031ec0003fb002393f92430022b63d1434a4ff4a1
:1031fc009c7303fb0023b3f90a30002b09db5a093b
:10320c0003f01f03012101fa03f360323c4941f83a
:10321c0022303a4a4ff49c7303fb0423b3f90c306d
:10322c00002b09db5a0903f01f03012101fa03f3f8
:10323c006032334941f82230304a4ff49c7303fb1f
:10324c000423b3f90e30002b09db5a0903f01f03da
:10325c00012101fa03f36032294941f82230274a4f
:10326c004ff49c7303fb0423b3f91030002b09dbe0
:10327c005a0903f01f03012101fa03f360322049bc
:10328c0041f822301d4a4ff49c7303fb04230122a6
:10329c00da705b7a032b26d8dfe803f01d161d1db0
:1032ac0004f072f902281dd904f068f9154903f0ed
:1032bc00bdfd17e004f068f9022813d904f05ef99b
:1032cc00114903f0b3fd0de00c4b4ff49c7000fb67
:1032dc000430fcf7d3ff094b4ff49c7202fb04340f
:1032ec000023e37010bd04f04ff90228f3d904f069
:1032fc0045f9064903f09afdede700bf00040020f4
:10330c0000e100e0704b0000b04b0000f84b0000f7
:020000040000fa
:10331c0070b582b004460d46002301934b78062b02
:10332c0012d0082b7cd0002b5dd1a0f8bc300378d8
:10333c0003f0010390f8c02062f34103024602f847
:10334c00bc3f019202206fe0c668cb78013b062b94
:10335c0075d8dfe803f004295e74745043000378d9
:10336c0003f00e03022b05d033689bb13368019335
:10337c00122052e0f3681bb1f368019312204ce069
:10338c0004f002f90228f7d904f0f8f82d4903f0fb
:10339c004dfdf1e704f0f8f80228e7d904f0eef857
:1033ac00294903f043fde1e78b7890f8ae209a426f
:1033bc0019d9d0f8b02052f8233013b101935888a2
:1033cc0032e004f0e1f8022802d8002301930ae06d
:1033dc0004f0d4f81d4903f029fdf6e7037803f057
:1033ec007003102b04d00121204602f053fd24e081
:1033fc0002f09aff21e0037803f07002102af2d158
:10340c0003f00e03022b0cbf336a736a01930a207c
:10341c0003e001aa304602f077f9019929b9e2e7f5
:10342c0000f1ad03019301200199ea88824228bf83
:10343c00024692b2204602f0fdfc02b070bd0020a4
:10344c00ebe700bf1c56000058560000ac690000aa
:020000040000fa
:10345c002de9f843b0f1ff3f04d0044603785bb983
:10346c00bde8f88304f090f80228f9d904f086f846
:10347c00434903f0dbfcf3e7856a1021fef72effce
:10348c00e378002b3ed1a37c012b09d004f07cf80f
:10349c000228e5d904f072f83a4903f0c7fcdfe7db
:1034ac000027a774b4f90a0003f0d0f88146b4f9e8
:1034bc000c0003f0cbf80646b4f90e0003f0c6f886
:1034cc008046b4f9100003f0c1f8a77140f2fd3347
:1034dc00ab82af722b8943f001032b81e378002b75
:1034ec00bed1b9f1000f1cd0b4f90a30002b18db97
:1034fc00590903f01f03012202fa03f3224a42f88e
:10350c0021300ee00023a37140f2fd32aa82ab728f
:10351c002b8943f001032b81e678002ea0d1304695
:10352c00b04666b1b4f90c30002b08db590903f036
:10353c001f03012202fa03f3134a42f82130b8f1b7
:10354c00000f0cd0b4f90e30002b08db590903f036
:10355c001f03012202fa03f30b4a42f8213060b137
:10356c00b4f91030002b08db590903f01f030122ba
:10357c0002fa03f3044a42f821300123a3746fe7e3
:0c358c00284e0000804e000000e100e02e
:020000040000fa
:10359800f0b540f2ff7681ea030c16ea115e1ebf11
:1035a800b64516ea1355b54252d021ea465141f4c0
:1035b8008011a1fb024723ea465343f48013ae442b
:1035c800a0fb03650cf0004c36197d41a1fb0347b5
:1035d80047f10003a0fb0217f619654153f10003f8
:1035e800094218bf46f0010640f2fe74b3f5007fa9
:1035f80013d2aef5806ea64523d24cea03312803d8
:1036080041ea155140ea16503203450872f100426a
:1036180050f1000051eb0e51f0bdaef2ff3ea64551
:103628000fd24ceac321e80241ea555140ea56500c
:10363800f202450872f1004250f1000051eb0e51c0
:10364800f0bd1eea0e0f2dd50cf000410020f0bd94
:1036580016ea115f04bf01f000410020004218bfc4
:1036680041f0010116ea135f04bf03f00043002292
:10367800124218bf43f0010306ea1354b44218bfbc
:10368800b64503d00cf000410020f0bd21f0004108
:1036980023f00043b1eb065f0cd8b3eb065f09d803
:1036a80041b13bb10cf0004141f0fe4141f47001e1
:1036b8000020f0bd40f20001c7f6f8710020f0bd0f
:020000040000fa
:1036c8000d0a5553422055534246535631204472f1
:1036d800697665723a20426164204472697665723f
:1036e80020496e64657820696e204452565f5553b0
:1036f80042465356315f4f70656e28292e000000f0
:103708000d0a5553422055534246535631204472b0
:10371800697665723a2044726976657220737461bd
:10372800747573206e6f7420726561647920696e98
:10373800204452565f555342465356315f4f706589
:103748006e28292e000000000d0a555342205553bb
:103758004246535631204472697665723a20556e56
:10376800737570706f7274656420494f20496e7468
:10377800656e7420696e204452565f555342465315
:1037880056315f4f70656e28292e00000d0a55537b
:103798004220555342465356312044726976657229
:1037a8003a204472697665722063616e20626520f2
:1037b8006f70656e6564206f6e6c79206f6e6365df
:1037c8002e204d756c7469706c652063616c6c7328
:1037d80020746f204452565f555342465356315f0a
:0837e8004f70656e28292e00c8
:020000040000fa
:1037f000f8b5002845d1002952d0c86900285ed00c
:103800003e4b01241c7200221a83dd7862f302050c
:10381000dd70d8608e8a1e828d695d61187891f89e
:10382000207067f3061083f8c020c0b2204362f313
:10383000c7101870587803f12407c3f88870402720
:10384000c3f88c70c3f8984083f890202c4fc3f8cd
:103850009470c3f89c302b4f1f679b675c6700f028
:10386000fe0062f38200587083f8dc208a6ac3f895
:10387000ec20ca8ca3f8f020002e3dd000241e4678
:1038800032e003f087fe022802d84ff0ff3034e028
:1038900003f07afe1c4903f0cffa4ff0ff302ce022
:1038a00003f078fe022802d84ff0ff3025e003f045
:1038b0006bfe164903f0c0fa4ff0ff301de003f035
:1038c00069fe022802d84ff0ff3016e003f05cfedc
:1038d0000f4903f0b1fa4ff0ff300ee0103501341c
:1038e000e4b2338aa34207d9eb68002bf6d01b69f8
:1038f000002bf3d09847f1e70020f8bd38060020f0
:10390000d9440000895b0000b0500000e050000086
:043910001051000052
:020000040000fa
:1039140070b582b004460d4649784b1e082b00f260
:103924008280dfe803f05f8066800580808012007b
:10393400037843f080030370ab7880f8ac30002147
:10394400204602f0abfa02b070bd6b8823b9c2788e
:1039540002f00702052a2dd094f8ad20dbb29a427a
:1039640063d094f8ae208ab1d4f8b060331f013a22
:10397400d2b206eb820600bf53f8042f5079a9781f
:10398400884208bfc4f8b420b342f5d16b8884f8e8
:10399400ad30204602f01ef8e378052262f30203fc
:1039a400e3706b888df8043094f8dd30012b0fd070
:1039b4000021c5e70b2380f8b83002f091fc002108
:1039c40084f8ad10e378042262f30203e370b7e7ee
:1039d400d4f8e0305bb3d4f8e42001a90a20984776
:1039e4000021ade76b88012baad1002180f8c0101b
:1039f400a6e76b88012b03d0022b05d001219fe79a
:103a040080f8c03000219be7037803f00e03022bfb
:103a140001d0012194e76b798370437843f001036b
:103a2400437000218ce701218ae7002188e7002107
:043a340086e700bf62
:020000040000fa
:103a38002de9f04f0e4649683568d6f80890f768c2
:103a48008bb0cde903230029acbf25f00205012185
:103a580015f010030593039b8346d3e900232fd069
:103a680052ea03002cd0a9f10208346915f00800c5
:103a780004f1ff3408904ff00000385518bf08f1e2
:103a8800ff388a46012c1ddc059b002b54d1089b6e
:103a980013b1013c20233b5532690095013a4b464e
:103aa800121b3919584601f0f5fcdbf80430db0528
:103ab80003d573689842b8bf18460bb0bde8f08fbd
:103ac800c846d2e752ea030009d1baf1000f06dc72
:103ad800a8eb010050440028d6dda807d4d502f091
:103ae8000f000928d4bf00f1300e00f1570e0498da
:103af800a0f1410cbcf1190f04f1ff3410d84ef0bd
:103b0800200cacf1610cbcf1190f09d87046099171
:103b1800cde9062303f0fcfcdde906230999864676
:103b2800100940ea03704fea131c07f804e00af191
:103b3800ff3a02466346a5e7039bd3e9000150ea32
:103b48000103a4d03a19049b02f8013c023c30233b
:043b58003b559ce756
:020000040000fa
:103b5c00f8b50d469df81810002871d106464ff0a7
:103b6c00ff3028603e48007c00286cd0002b6dd0c4
:103b7c0011f0020f0ad03a49c989994269d8b3fbae
:103b8c00f1f001fb10315b1a022401e001f0010499
:103b9c003349486b896a88425ed232494978012997
:103bac0003d06ff05f042046f8bd2e49002048700a
:103bbc002d4991f90810012912dd2b4991f92c108e
:103bcc0001290cdd284991f950100129d8bf022692
:103bdc0006dd244b01225a706ff07f04e3e70126c7
:103bec002149f00000eb060c4fea8c0c01eb0c07a2
:103bfc0041f80c207b6000237b611c4bfb603c611b
:103c0c0003f0defc164c636b0133636303f0dcfce6
:103c1c002f603a46217b206802f082fe044618b9d8
:103c2c00104b01225a70bee703f0cafc0c4a536bce
:103c3c00013b536303f0c8fc4ff0ff332b60efe7fd
:103c4c006ff07704afe76ff07504ace76ff07d04ad
:103c5c00a9e76ff07d04a6e76ff07f04a3e700bf30
:103c6c004c090020ac0a002034080020b55a000092
:020000040000fa
:103c7c00f8b590f90830002b40f3858016460d46b8
:103c8c0004468b1e072b7cd8dfe803f00461667baf
:103c9c007b6b707643786ff382034370d0f8ec3013
:103cac001b6c0021c0699847d4f8ec301b6c802148
:103cbc00e0699847204602f00ffbd4f8ec305b6ac1
:103ccc001021e0699847d4f8ec301f6a4023002299
:103cdc008021e069b84794f99030022b07dcd4f8c6
:103cec00ec309b6b04f188020021e0699847e37883
:103cfc00032262f30203e370d4f8ec301b69e06931
:103d0c009847237860f343032370e26803f00e03b3
:103d1c00022b15d09368c4f8b030137984f8ae3008
:103d2c00002384f8ad3094f8dd30012b2bd1d4f87e
:103d3c00e03043b3d4f8e42031462846984722e0db
:103d4c005369c4f8b030137c84f8ae30e8e743789c
:103d5c006ff382034370e6e7437843f00403437048
:103d6c00e1e743786ff3820343700ce0c3780122e0
:103d7c0062f30203c370d6e7c3786ff30203c37018
:083d8c00d1e70029cfd1f8bdf9
:020000040000fa
:103d94000d0a55534220555342465356312044652b
:103da40076696365204472697665723a20556e734c
:103db4007570706f7274656420656e64706f696e7f
:103dc4007420696e204452565f555342465356310f
:103dd4005f4445564943455f456e64706f696e7430
:103de40044697361626c6528292e00000d0a5553dd
:103df40042205553424653563120446576696365e3
:103e0400204472697665723a20447269766572203c
:103e140048616e646c6520697320696e76616c69b3
:103e24006420696e204452565f55534246535631be
:103e34005f4445564943455f456e64706f696e74cf
:103e440044697361626c6528292e00000d0a55537c
:103e54004220555342465356312044657669636582
:103e6400204472697665723a204d75746578206cc9
:103e74006f636b206661696c656420696e204452cf
:103e8400565f555342465356315f44455649434560
:103e94005f456e64706f696e7444697361626c65ca
:043ea40028290000c9
:020000040000fa
:103ea8000d0a555342205553424653563120446516
:103eb80076696365204472697665723a20556e7337
:103ec8007570706f7274656420656e64706f696e6a
:103ed8007420696e204452565f55534246535631fa
:103ee8005f4445564943455f456e64706f696e741b
:103ef8005374616c6c28292e000000000d0a55537c
:103f080042205553424653563120446576696365cd
:103f1800204472697665723a204472697665722027
:103f280048616e646c6520697320696e76616c699e
:103f38006420696e204452565f55534246535631a9
:103f48005f4445564943455f456e64706f696e74ba
:103f58005374616c6c28292e000000000d0a55531b
:103f6800422055534246535631204465766963656d
:103f7800204472697665723a204d75746578206cb4
:103f88006f636b206661696c656420696e204452ba
:103f9800565f555342465356315f4445564943454b
:103fa8005f456e64706f696e745374616c6c282918
:043fb800000000bf46
:020000040000fa
:103fbc000d0a555342205553424653563120446501
:103fcc0076696365204472697665723a20556e7322
:103fdc007570706f7274656420656e64706f696e55
:103fec007420696e204452565f55534246535631e5
:103ffc005f4445564943455f49525043616e636582
:10400c006c416c6c28292e000d0a555342205553d7
:10401c004246535631204465766963652044726983
:10402c007665723a204472697665722048616e64d6
:10403c006c6520697320696e76616c696420696ea9
:10404c00204452565f555342465356315f444556b1
:10405c004943455f49525043616e63656c416c6cda
:10406c0028292e000d0a55534220555342465356cb
:10407c003120446576696365204472697665723acd
:10408c00204d75746578206c6f636b206661696c6c
:10409c00656420696e204452565f55534246535610
:1040ac00315f4445564943455f49525043616e6305
:0c40bc00656c416c6c28292e000000bfd0
:020000040000fa
:1040c800394b00221a7403f50063384a9a621a467b
:1040d800536813f0100ffbd1354b4222c3f88420ec
:1040e8001a4600bfd2f8843013f0400ffad0314b93
:1040f80000229a6377225a631a46d36b13f0040f8f
:10410800fbd12c4b022283f830201a46d36b13f0d4
:10411800020ffbd1274a136c03f00303032bfad1d8
:10412800254b01225a711a46d37813f0010ffbd0a0
:104138001f4b224a1a621a46536813f0040ffbd128
:104148001b4b1f4a5a621a46536813f0080ffbd1db
:10415800174b4122c3f8a4201a4600bfd2f8a43056
:1041680013f0400ffad0124b4122c3f8a8201a4688
:10417800d2f8a83013f0400ffad00d4b4122c3f803
:1041880024211a46d2f8243113f0400ffad00a4bf2
:104198006ff07f421a6144f2ff725a61094a9a61cc
:1041a8004ff480721a627047001400400601300014
:1041b800001c0040001000400008004007010100fa
:0841c80007010200578001000d
:020000040000fa
:1041d00070b582b000238df807300e2901d002b0ef
:1041e00070bd144606463a4bf42505fb0035d388ce
:1041f000a5f8e830d5f8ec301b6c8021e8699847c9
:10420000237803f01f03032b58d8dfe803f00222c2
:104210002851237813f060020cd113f0800f04d1e1
:1042200021462846fff776fbd9e721462846fff7c7
:1042300075f8d4e7402a06d0202ad0d1012128469b
:1042400001f02efecbe722460e21284602f024fe86
:10425000c5e722462179284602f0e0f8bfe7217938
:1042600051b9237813f0600f1bd122469df8071037
:10427000284601f08cfab2e70df10702284602f059
:10428000d3fb134bf42202fb0636f37803f007034b
:10429000052b01d10028e4d10121284601f000fec0
:1042a0009de722469df80710284602f0b7f896e7ea
:1042b00022460e21284602f0effd90e703f06af94e
:1042c00002288cd903f060f9024902f0b5fd86e7b7
:0842d000380600206c690000b3
:020000040000fa
:1042d800f8b5002864d14ff0ff3008603848807a7c
:1042e800002860d036480089b3fbf0f400fb143096
:1042f800002b5bd000285cd1314ca56be46aa54249
:104308005ad2304c6478012c03d06ff05f042046f9
:10431800f8bd2c4c002565702b4c94f90840012cf5
:1043280012dd294890f92c0001280cdd264890f967
:1043380050000128d8bf022006dd224b01225a7006
:104348006ff07f04e3e701200d461f49c4002718da
:10435800bf00ce19ca517360002373611b4bf36011
:1043680003f030f9164ca36b0133a36303f02ef965
:104378002e603246a179206802f0d4fa044618b9b2
:10438800104b01225a70c2e703f01cf90c4a936bd8
:10439800013b936303f01af94ff0ff332b60efe70b
:1043a8006ff07704b3e76ff07504b0e76ff07d0442
:1043b800ade76ff07d04aae76ff07f04a7e700bfc1
:1043c8004c090020ac0a002034080020495a00009b
:020000040000fa
:1043d8000d0a5553422055534246535631204465e1
:1043e80076696365204472697665723a2044726919
:1043f8007665722048616e646c6520697320696e09
:1044080076616c696420696e204452565f55534248
:10441800465356315f4445564943455f49525043d8
:10442800616e63656c28292e000000000d0a555343
:104438004220555342465356312044657669636598
:10444800204472697665723a204952502069732077
:10445800696e76616c696420696e204452565f55b6
:104468005342465356315f4445564943455f495286
:104478005043616e63656c28292e00000d0a555360
:104488004220555342465356312044657669636548
:10449800204472697665723a204d75746578206c8f
:1044a8006f636b206661696c656420696e20445295
:1044b800565f555342465356315f44455649434526
:1044c8005f49525043616e63656c28292e0000bf16
:020000040000fa
:1044d80038b590f9083013f1020f3cd0054644690d
:1044e800022b07d04268002a46d1002184f8c41064
:1044f8000f201ae094f8c4305bb1d4f8d8308bb3ed
:10450800d4f8e050ab4227d000220c21b4f8d000f8
:104518009847012384f8c4302b4bc4f8d830238b38
:10452800a4f8d03004f124010e20d4f8d830d4f8ff
:10453800e050ab4244d00a460146b4f8d000984750
:104548004023c4f88c30d4f8ec309b6b04f188021b
:104558000021e069984738bdd4f8e42000210c20f8
:10456800a847d6e703f012f80228d2d903f008f8d2
:10457800164902f05dfccce794f8c430ebb1d4f8ee
:10458800c830d4f8cc108b4202d300210d20cce7e0
:10459800d4f8d40004f12401184402f095fed4f8ac
:1045a800c8006b681844c4f8c800d4f8cc3000219f
:1045b800984234bf01200d20b7e700210120b4e75d
:1045c800d4f8e420a847bbe7d1410000fc6b000009
:020000040000fa
:1045d800f0b583b0002001f007fb00230093009a98
:1045e8002a4b9a4206dc1a46009b01330093009b33
:1045f8009342f9dd0a2403270025254e01e0013cfa
:1046080019d03946284600f0e7fd3060b0f1ff3f89
:104618000dd10195019a42f20f739a42efdc1a46c6
:10462800019b01330193019b9342f9dde7e70022e7
:10463800184902f037f902f07dfe0021164802f011
:1046480099ff02f09bfe154802f092fb144c154ea0
:10465800154f164d02f07afe02f084fd0028fbd0bb
:104668002378002bf6d002f06dff3080328839466f
:10467800284602f045fe284602f07afb0023237004
:104688000b4b4ff48072c3f89c20e3e79f86010030
:104698008c0a00208563000041750000546b0000ff
:1046a800ad0700208a0a00207c6b00003805002036
:0446b800008000413d
:020000040000fa
:1046bc0070b582b09df81c40089d98b90e465068a4
:1046cc002e4988621068c86292680a6300224a63a5
:1046dc008a63ca632a4a0a64042c0bd0052c21d0a5
:1046ec0002b070bd02f050ff02f048ff254902f005
:1046fc009dfbf5e7214a16606a79022a04d00a2a42
:10470c0005d11e4a1371ebe7aa79022a07d002f0f1
:10471c003bff02f033ff1c4902f088fbe0e7174a2d
:10472c009374dde7aa78d409eb7803f00303022b2a
:10473c0008d0032b1ad163002344104c04eb430420
:10474c00143405e0013404eb44030c4c04eb430437
:10475c00a98822706180eb78009103f0030300219b
:10476c00304601f095ff01232371b9e702f00cffed
:10477c0002f004ff054902f059fbb1e74c09002097
:10478c00800a0020145400003454000068540000c7
:020000040000fa
:04479c000201030013
:020000040000fa
:1047a00053ec102bc3f30a512de9f04140f2fd7098
:1047b0004e1e86421d4645d8a1f2ff30002835db4b
:1047c000332831dc284bc0f120084ff0ff3c03fabe
:1047d00008f2a1f21f412cfa00fc10ee104a4cea3c
:1047e000020c23fa01f24cea020c23fa00fe04ea5e
:1047f0000c0605ea0e0724ea0c0256ea070425ea2d
:104800000e030fd0002a73f100040bda4ff4801569
:1048100005fa08f425fa01f10c43121925fa00f003
:1048200040eb030343ec102bbde8f081002a73f149
:10483000000303db9fed080bbde8f0819fed080b43
:10484000bde8f0810029efd10a4603f0004343ecb4
:10485000102be9e7aff3008000000000000000002b
:0c486000000000000000f0bfffff0f0090
:020000040000fa
:10486c000d0a555342205553424653563120446548
:10487c0076696365204472697665723a20556e7369
:10488c007570706f7274656420656e64706f696e9c
:10489c007420696e204452565f555342465356312c
:1048ac005f4445564943455f456e64706f696e744d
:1048bc004973456e61626c656428292e0000000006
:1048cc000d0a5553422055534246535631204465e8
:1048dc0076696365204472697665723a2044726920
:1048ec007665722048616e646c6520697320696e10
:1048fc0076616c696420696e204452565f55534250
:10490c00465356315f4445564943455f456e647086
:10491c006f696e744973456e61626c656428292eeb
:04492c00000000bfc8
:020000040000fa
:104930000d0a555342205553424653563120446583
:1049400076696365204472697665723a20556e73a4
:104950007570706f7274656420656e64706f696ed7
:104960007420696e204452565f5553424653563167
:104970005f4445564943455f456e64706f696e7488
:104980005374616c6c436c65617228292e000000c1
:104990000d0a555342205553424653563120446523
:1049a00076696365204472697665723a204472695b
:1049b0007665722048616e646c6520697320696e4b
:1049c00076616c696420696e204452565f5553428b
:1049d000465356315f4445564943455f456e6470c2
:1049e0006f696e745374616c6c436c6561722829d5
:0449f0002e0000bfd6
:020000040000fa
:1049f4000d0a5553422055534246535631204465bf
:104a040076696365204472697665723a20447269f6
:104a140076657220646f6573206e6f7420686176aa
:104a240065206120636c69656e7420696e20465f41
:104a34004452565f555342465356315f4445564996
:104a440043455f5461736b735f49535228292e00a9
:104a54000d0a55534220555342465356312044655e
:104a640076696365204472697665723a2044726996
:104a7400766572206e656564732061206576656e67
:104a8400742068616e646c657220696e20465f44b0
:104a940052565f555342465356315f444556494337
:104aa400455f5461736b735f49535228292e00008c
:020000040000fa
:104ab4000d0a5553422055534246535631204465fe
:104ac40076696365204472697665723a20556e731f
:104ad4007570706f7274656420656e64706f696e52
:104ae4007420696e204452565f55534246535631e2
:104af4005f4445564943455f456e64706f696e7403
:104b0400456e61626c6528292e0000000d0a55531c
:104b140042205553424653563120446576696365b5
:104b2400204472697665723a20447269766572200f
:104b340048616e646c6520697320696e76616c6986
:104b44006420696e204452565f5553424653563191
:104b54005f4445564943455f456e64706f696e74a2
:0c4b6400456e61626c6528292e0000bfc0
:020000040000fa
:104b70000d0a555342205553424653563120447234
:104b8000697665723a20496e76616c6964206f625d
:104b90006a65637420696e204452565f55534246dd
:104ba0005356315f5461736b735f49535228290028
:104bb0000d0a5553422055534246535631204472f4
:104bc000697665723a20496e76616c696420537922
:104bd0007374656d2053746174757320696e20441d
:104be00052565f555342465356315f5461736b734f
:104bf0005f495352282900000d0a55534246535627
:104c000031204472697665723a2057686174206d6c
:104c10006f64652061726520796f7520747279699f
:044c20006e673f007c
:020000040000fa
:104c2400f8b5002847d18446002947d0264b1b7984
:104c3400002b46d0244b93f85a30012b02d04ff06e
:104c4400ff3432e0204b83f85a009646824230dd2e
:104c540001390446184605e0c66b77558364013470
:104c6400744524d011f8017f856c6b1c466cb342eb
:104c740028bf6346c66c9e42eed1134b93f858305e
:104c84001bb1114b93f8293063b10f4b93f82930c2
:104c94002bb10d4b002283f8292083f858200020e3
:104ca40000f0e4fa094802f027fc2046f8bd144657
:104cb400e3e70024e1e74ff0ff34f6e74ff0ff3479
:104cc400f3e74ff0ff34f0e7a0080020ac08002021
:020000040000fa
:104cd400882910b536d012dc812943d003dc802921
:104ce40040d0002010bd82290ed08429f9d1196842
:104cf40002b30a1d1a60b1f90020d3171ee0a029df
:104d04002bd00bdc9029ecd11968073121f0070175
:104d140001f108021a60d1e900230fe0c02901d093
:104d2400f029ded11a68111d19601368036000238d
:104d3400436005e00a1d1a600a880023c0e90023c5
:104d44000120cfe7196822b10a1d1a6091f90020e9
:104d5400d3e70a1d1a600a78efe71a68111d196073
:104d64001268cae719681ab10a1d1a600a68c4e70a
:0c4d74000c1d1c600b68c0e90032e1e778
:020000040000fa
:104d800010b530b90e290cd00f293ed00d2932d0e4
:104d900010bd02f0fffb02f0f7fb214902f04cf8d6
:104da000f6e7204b1868137813f0200f16d05378cd
:104db000232b1cd8dfe803f016161b1b1b1b1b1b29
:104dc0001b1b1b1b1b1b1b1b1b1b1b1b1b1b1b1b33
:104dd0001b1b1b1b1b1b1b1b16161616012101f090
:104de0005ff8d5e70f49002000f09afbd0e70121da
:104df00001f056f8cce70b4b1c6a002cc8d05b6a5c
:104e0000002208211046a047c2e7064b1c6a002c6e
:104e1000bed05b6a002207211046a047b8e700bf5a
:084e2000247100004c09002080
:020000040000fa
:104e28000d0a555342205553424653563120446586
:104e380076696365204472697665723a20447269be
:104e48007665722048616e646c6520697320696eae
:104e580076616c696420696e204452565f555342ee
:104e6800465356315f4445564943455f446574612e
:104e7800636828292e0000000d0a55534220555317
:104e88004246535631204465766963652044726909
:104e98007665723a204d75746578206c6f636b2067
:104ea8006661696c656420696e204452565f55538b
:104eb80042465356315f4445564943455f446574fd
:084ec80061636828290000bfa6
:020000040000fa
:104ed0002de9f041d2e900230c4686b007465fea8f
:104ee000d37820684968a5680590e66841d05242a9
:104ef00063eb4303002908db20f002000590b8f1c2
:104f0000000f02d1059948072ad5691e05a802900d
:104f10000a20cde90010204600f075fcb8f1000f22
:104f200002d1059b59071fd5b8f1000f00f1ff30e2
:104f300014bf2d232b2333542269059b0093013a80
:104f40002b46121a3118384600f0a8fa7b68db05a8
:104f500003d563689842b8bf184606b0bde8f08133
:104f60000807d2d42946d1e71a07e5d5013820230e
:084f7000e1e70029c0dac5e702
:020000040000fa
:104f780008b580b9204b93f92430022b1ad10f2998
:104f88001cd002f003fb032818d902f0f9fa1b49d8
:104f980001f04eff12e002f0f9fa032802d84ff0b0
:104fa800ff3013e002f0ecfa154901f041ff4ff031
:104fb800ff300be002f0eafa022808d80e4b5b78c3
:104fc8005bb90d48012343700023c36308bd02f099
:104fd800d7fa0c4901f02cfff0e702f0d7fa0328c2
:104fe80002d84ff0ff30f1e702f0cafa064901f0a3
:104ff8001fff4ff0ff30e9e70004002050370000a2
:0c500800c8360000083700009437000094
:020000040000fa
:105014000d0a445256205553422055534246535686
:10502400313a20496e76616c696420447269766510
:1050340072204d6f64756c6520496e6465782069d3
:105044006e204452565f555342465356315f496e63
:10505400697469616c697a6528292e000d0a4452c5
:10506400562055534220555342465356313a204414
:10507400726976657220697320616c726561647906
:1050840020696e697469616c697a656420696e204f
:105094004452565f555342465356315f496e6974c4
:0c50a40069616c697a6528292e0000bf44
:020000040000fa
:1050b0000d0a55534220446576696365204c617939
:1050c00065723a20496e76616c696420696e73740a
:1050d000616e6365496e6465782076616c75650004
:1050e0000d0a55534220446576696365204c617909
:1050f00065723a20496e697469616c697a61746994
:105100006f6e2064617461206973204e554c4c00b1
:105110000d0a55534220446576696365204c6179d8
:1051200065723a20555342204d6173746572204474
:10513000657363726970746f72207461626c65204c
:085140006973204e554c4c0030
:020000040000fa
:105148000d0a55534220446576696365204c6179a0
:1051580065723a20696e7374616e6365496e646541
:105168007820697320696e76616c696400000000bc
:105178000d0a55534220446576696365204c617970
:1051880065723a20446576696365204c6179657279
:10519800206973206e6f7420726561647920746f62
:1051a800206265206f70656e656400000d0a5553b6
:1051b8004220446576696365204c617965723a20be
:1051c8004e6f206672656520636c69656e74206f2a
:0851d800626a65637473000054
:020000040000fa
:1051e00008b578b91e4b93f90830022b19d11c4b26
:1051f00093f8de3023bb1a48012380f8de3080f8b4
:10520000dd3008bd02f0c6f9022802d84ff0ff30a9
:10521000f7e702f0b9f9134901f00efe4ff0ff3045
:10522000efe702f0b7f9022802d84ff0ff30e8e7c5
:1052300002f0aaf90c4901f0fffd4ff0ff30e0e762
:1052400002f0a8f9022802d84ff0ff30d9e702f0a7
:105250009bf9064901f0f0fd4ff0ff30d1e700bfa8
:10526000380600204851000078510000b451000079
:020000040000fa
:10527000f0b583b001460028204c18bf0024e26b33
:10528000236c9a423cbfa06b1218d31a002b32dd5c
:10529000b3f5007fa8bf4ff400730029174918bf6a
:1052a0000021002007460ce00d6bae5c01328d6bd7
:1052b000aa4228bf3a460a64a26a165401309842ac
:1052c00004d00a6ccd6baa42eed1f7e7012584f831
:1052d0004c50a26a214651f8180b0095fef73efc8f
:1052e00028b9a369b3f1ff3f01d0012004e00020f9
:1052f00084f84c0000e0012003b0f0bdac080020b1
:020000040000fa
:105300000d0a55534220555342465356312044729c
:10531000697665723a20496e76616c6964206472c0
:10532000697665722068616e646c6520696e2044e0
:1053300052565f555342465356315f436c6f736507
:1053400028292e000d0a55534220555342465356e4
:1053500031204472697665723a20447269766572ca
:105360002068616e646c65206e6f74206f70656e6e
:10537000656420696e204452565f55534246535629
:0c538000315f436c6f736528292e00001c
:020000040000fa
:10538c0008b5194b9847194b9847eff3108172b633
:10539c00174ad2f8883043f47003c2f88830bff350
:1053ac004f8fbff36f8f01b962b6124a936823f027
:1053bc00010393601346da6812f0010ffbd10d4b19
:1053cc0024225a6001229a6001f02efc0a4b23f031
:1053dc007f03074a9360094b9847094b9847094b41
:1053ec009847fff7f3f8fee78f6200008f6200002a
:1053fc0000ed00e00060004100000000d5600000fe
:08540c008f6200008f620000b6
:020000040000fa
:1054140055534220446576696365204344433a20ea
:10542400496e76616c696420696e64657800000079
:1054340055534220446576696365204344433a20ca
:10544400496e76616c696420696e74657266616325
:10545400652070726573656e74656420746f204393
:1054640044432000555342204465766963652043d4
:1054740044433a2043616e6e6f742068616e646cbd
:1054840065207468697320656e64706f696e74203a
:0854940074797065000000bf8f
:020000040000fa
:10549c002de9ff471d460c9b13f0010906468a4671
:1054ac00144601d195420bd822465146304601f0a4
:1054bc001ffea54204d82546284604b0bde8f08757
:1054cc002f1b102f3a464ff0200128bf10226846a0
:1054dc00b84601f09dff00bfb8f10f0f11d83b0982
:1054ec006ff00f0202fb03726946304601f000feba
:1054fc00b9f1000fe0d122465146304601f0f8fddb
:10550c00dae710226946304601f0f2fda8f11008e6
:04551c00e2e700bf03
:020000040000fa
:1055200038b50c465378232b35d8dfe803f027270e
:10553000343434343434343434343434343434342b
:105540003434343434343434343434343434121958
:10555000202c256ab5b1636a00221146a84711e0e4
:10556000256a7db1636a00220121a8470ae0256a05
:1055700045b1636a02320221a84703e00121206895
:1055800000f08efc38bd256a002dfbd0636a023224
:105590000321a847f6e70121206800f081fcf1e72c
:020000040000fa
:1055a0001c4bda6822f4e0621204120c42f0bf6273
:1055b00042f40032da60bff35f8f62b6164ae02130
:1055c00082f850134ff48030906082f851134ff4fa
:1055d0000030906082f852134ff48020906082f87f
:1055e00053134ff40020906082f86b134ff4006166
:1055f000d1605a6a42f480225a625a6942f010021b
:105600005a615a6a42f400325a625a6a42f480324b
:0c5610005a62704700ed00e000e100e08d
:020000040000fa
:10561c000d0a55534220446576696365204c6179c7
:10562c0065723a2048696768207370656564206408
:10563c0065766963652064657363726970746f72f3
:10564c00206973204e554c4c000000000d0a555338
:10565c004220446576696365204c617965723a2015
:10566c0046756c6c2f4c6f77207370656564206485
:10567c0065766963652064657363726970746f72b3
:0c568c00206973204e554c4c000000bffc
:020000040000fa
:10569800842910b523d00cdc812903d0822913d0aa
:1056a80080290bd119680c1d1c600b6803601a60f7
:1056b80013e0902921d003dc882917d0002010bde1
:1056c800a029efd0c029ece719680c1d1c600b68f5
:1056d8000360d1171046c3e900010120efe71968fc
:1056e8000c1d1c600b6803601a80f6e719680c1d16
:1056f8001c600b6803601a70efe719680c1d1c60ca
:0c57080009680160d317c1e90023e6e73f
:020000040000fa
:10571400f0b58f78c669d6f800c09cf80030023b1b
:10572400dbb25d08012b08d9047e013cb4fbf5f41f
:10573400e4b2bc4203d20020f0bd0024f9e727b94b
:10574400c2f800c09cf80000f6e7b1f804e0a8b283
:105754000028f1d0bcf80230734512d00cf10201dc
:105764000124631c9bb2a0420dd01c4631f8025f99
:105774007545f6d107fb03f356f823301360187808
:0a578400dae70123f6e70020d6e77c
:020000040000fa
:10578e0010b504461179537893b9a0f8bc30d0f80f
:10579e00ec305b6bc069984794f8bc3060f3000343
:1057ae00214601f8bc3f0222204600f042fb10bd0c
:1057be00012b07d0032b12d00c2bf8d1012100f0b6
:1057ce0068fbf4e75388002bf1d1d0f8ec30db6a9c
:1057de00c06998470021204600f05bfbe7e753883d
:1057ee00002be4d1d0f8ec309b6ac06998470021b9
:0857fe00204600f04efbdae743
:020000040000fa
:105806002de9f84f04460c9f6668d4f80cb024695d
:1058160010463a68013c002502f0020a0b9a0bf882
:105826000450002e1946b8bf0126012390464feac0
:10583600e279002c03dcd3b12046bde8f88f50eaac
:10584600010209d1721b002a06dc0a9a521b002aa1
:10585600f1ddbaf1000feed042464b4601f001fbf6
:10586600013c134630320bf804200135e1e73b6872
:0858760023f010033b60dfe7a3
:020000040000fa
:02587e00fee743
:020000040000fa
:1058800008b508290dd8dfe801f00d05141f3025f3
:105890000c0c2a00072203f10c01154b186800f0cc
:1058a000cffa08bd0722591d114b186801f01ef8e8
:1058b000f7e7127802f0010283f84d2000210c4b2b
